{
  "_format": "hh-sol-artifact-1",
  "contractName": "Sujiko",
  "sourceName": "contracts/Sujiko.sol",
  "abi": [
    {
      "inputs": [
        {
          "internalType": "address",
          "name": "_verifierAddr",
          "type": "address"
        }
      ],
      "stateMutability": "nonpayable",
      "type": "constructor"
    },
    {
      "anonymous": false,
      "inputs": [
        {
          "indexed": true,
          "internalType": "address",
          "name": "owner",
          "type": "address"
        },
        {
          "indexed": true,
          "internalType": "address",
          "name": "approved",
          "type": "address"
        },
        {
          "indexed": true,
          "internalType": "uint256",
          "name": "tokenId",
          "type": "uint256"
        }
      ],
      "name": "Approval",
      "type": "event"
    },
    {
      "anonymous": false,
      "inputs": [
        {
          "indexed": true,
          "internalType": "address",
          "name": "owner",
          "type": "address"
        },
        {
          "indexed": true,
          "internalType": "address",
          "name": "operator",
          "type": "address"
        },
        {
          "indexed": false,
          "internalType": "bool",
          "name": "approved",
          "type": "bool"
        }
      ],
      "name": "ApprovalForAll",
      "type": "event"
    },
    {
      "anonymous": false,
      "inputs": [
        {
          "indexed": false,
          "internalType": "address",
          "name": "sender",
          "type": "address"
        },
        {
          "indexed": false,
          "internalType": "uint256",
          "name": "tokenId",
          "type": "uint256"
        }
      ],
      "name": "NewNFTMinted",
      "type": "event"
    },
    {
      "anonymous": false,
      "inputs": [
        {
          "indexed": true,
          "internalType": "address",
          "name": "from",
          "type": "address"
        },
        {
          "indexed": true,
          "internalType": "address",
          "name": "to",
          "type": "address"
        },
        {
          "indexed": true,
          "internalType": "uint256",
          "name": "tokenId",
          "type": "uint256"
        }
      ],
      "name": "Transfer",
      "type": "event"
    },
    {
      "inputs": [
        {
          "internalType": "address",
          "name": "to",
          "type": "address"
        },
        {
          "internalType": "uint256",
          "name": "tokenId",
          "type": "uint256"
        }
      ],
      "name": "approve",
      "outputs": [],
      "stateMutability": "nonpayable",
      "type": "function"
    },
    {
      "inputs": [
        {
          "internalType": "address",
          "name": "owner",
          "type": "address"
        }
      ],
      "name": "balanceOf",
      "outputs": [
        {
          "internalType": "uint256",
          "name": "",
          "type": "uint256"
        }
      ],
      "stateMutability": "view",
      "type": "function"
    },
    {
      "inputs": [
        {
          "internalType": "uint256[2]",
          "name": "a",
          "type": "uint256[2]"
        },
        {
          "internalType": "uint256[2][2]",
          "name": "b",
          "type": "uint256[2][2]"
        },
        {
          "internalType": "uint256[2]",
          "name": "c",
          "type": "uint256[2]"
        },
        {
          "internalType": "uint256[13]",
          "name": "input",
          "type": "uint256[13]"
        }
      ],
      "name": "contributeSujiko",
      "outputs": [
        {
          "internalType": "bool",
          "name": "",
          "type": "bool"
        }
      ],
      "stateMutability": "nonpayable",
      "type": "function"
    },
    {
      "inputs": [
        {
          "internalType": "uint256[13]",
          "name": "_sujiko",
          "type": "uint256[13]"
        }
      ],
      "name": "contributeWithBoard",
      "outputs": [
        {
          "internalType": "bool",
          "name": "",
          "type": "bool"
        }
      ],
      "stateMutability": "nonpayable",
      "type": "function"
    },
    {
      "inputs": [
        {
          "internalType": "uint256",
          "name": "tokenId",
          "type": "uint256"
        }
      ],
      "name": "getApproved",
      "outputs": [
        {
          "internalType": "address",
          "name": "",
          "type": "address"
        }
      ],
      "stateMutability": "view",
      "type": "function"
    },
    {
      "inputs": [],
      "name": "getNewBoard",
      "outputs": [
        {
          "internalType": "uint256[9]",
          "name": "",
          "type": "uint256[9]"
        },
        {
          "internalType": "uint256[4]",
          "name": "",
          "type": "uint256[4]"
        }
      ],
      "stateMutability": "view",
      "type": "function"
    },
    {
      "inputs": [
        {
          "internalType": "address",
          "name": "owner",
          "type": "address"
        },
        {
          "internalType": "address",
          "name": "operator",
          "type": "address"
        }
      ],
      "name": "isApprovedForAll",
      "outputs": [
        {
          "internalType": "bool",
          "name": "",
          "type": "bool"
        }
      ],
      "stateMutability": "view",
      "type": "function"
    },
    {
      "inputs": [
        {
          "internalType": "uint256[13]",
          "name": "_sujiko",
          "type": "uint256[13]"
        }
      ],
      "name": "isNewSujiko",
      "outputs": [
        {
          "internalType": "bool",
          "name": "",
          "type": "bool"
        }
      ],
      "stateMutability": "view",
      "type": "function"
    },
    {
      "inputs": [],
      "name": "limitBoards",
      "outputs": [
        {
          "internalType": "uint256",
          "name": "",
          "type": "uint256"
        }
      ],
      "stateMutability": "view",
      "type": "function"
    },
    {
      "inputs": [
        {
          "internalType": "address",
          "name": "personAddress",
          "type": "address"
        }
      ],
      "name": "mintNFT",
      "outputs": [],
      "stateMutability": "nonpayable",
      "type": "function"
    },
    {
      "inputs": [],
      "name": "name",
      "outputs": [
        {
          "internalType": "string",
          "name": "",
          "type": "string"
        }
      ],
      "stateMutability": "view",
      "type": "function"
    },
    {
      "inputs": [
        {
          "internalType": "uint256",
          "name": "tokenId",
          "type": "uint256"
        }
      ],
      "name": "ownerOf",
      "outputs": [
        {
          "internalType": "address",
          "name": "",
          "type": "address"
        }
      ],
      "stateMutability": "view",
      "type": "function"
    },
    {
      "inputs": [],
      "name": "random",
      "outputs": [
        {
          "internalType": "uint256",
          "name": "",
          "type": "uint256"
        }
      ],
      "stateMutability": "view",
      "type": "function"
    },
    {
      "inputs": [
        {
          "internalType": "address",
          "name": "from",
          "type": "address"
        },
        {
          "internalType": "address",
          "name": "to",
          "type": "address"
        },
        {
          "internalType": "uint256",
          "name": "tokenId",
          "type": "uint256"
        }
      ],
      "name": "safeTransferFrom",
      "outputs": [],
      "stateMutability": "nonpayable",
      "type": "function"
    },
    {
      "inputs": [
        {
          "internalType": "address",
          "name": "from",
          "type": "address"
        },
        {
          "internalType": "address",
          "name": "to",
          "type": "address"
        },
        {
          "internalType": "uint256",
          "name": "tokenId",
          "type": "uint256"
        },
        {
          "internalType": "bytes",
          "name": "_data",
          "type": "bytes"
        }
      ],
      "name": "safeTransferFrom",
      "outputs": [],
      "stateMutability": "nonpayable",
      "type": "function"
    },
    {
      "inputs": [
        {
          "internalType": "address",
          "name": "operator",
          "type": "address"
        },
        {
          "internalType": "bool",
          "name": "approved",
          "type": "bool"
        }
      ],
      "name": "setApprovalForAll",
      "outputs": [],
      "stateMutability": "nonpayable",
      "type": "function"
    },
    {
      "inputs": [
        {
          "internalType": "bytes4",
          "name": "interfaceId",
          "type": "bytes4"
        }
      ],
      "name": "supportsInterface",
      "outputs": [
        {
          "internalType": "bool",
          "name": "",
          "type": "bool"
        }
      ],
      "stateMutability": "view",
      "type": "function"
    },
    {
      "inputs": [],
      "name": "symbol",
      "outputs": [
        {
          "internalType": "string",
          "name": "",
          "type": "string"
        }
      ],
      "stateMutability": "view",
      "type": "function"
    },
    {
      "inputs": [
        {
          "internalType": "uint256",
          "name": "tokenId",
          "type": "uint256"
        }
      ],
      "name": "tokenURI",
      "outputs": [
        {
          "internalType": "string",
          "name": "",
          "type": "string"
        }
      ],
      "stateMutability": "view",
      "type": "function"
    },
    {
      "inputs": [
        {
          "internalType": "address",
          "name": "from",
          "type": "address"
        },
        {
          "internalType": "address",
          "name": "to",
          "type": "address"
        },
        {
          "internalType": "uint256",
          "name": "tokenId",
          "type": "uint256"
        }
      ],
      "name": "transferFrom",
      "outputs": [],
      "stateMutability": "nonpayable",
      "type": "function"
    },
    {
      "inputs": [],
      "name": "verifierAddr",
      "outputs": [
        {
          "internalType": "address",
          "name": "",
          "type": "address"
        }
      ],
      "stateMutability": "view",
      "type": "function"
    },
    {
      "inputs": [
        {
          "internalType": "uint256[2]",
          "name": "a",
          "type": "uint256[2]"
        },
        {
          "internalType": "uint256[2][2]",
          "name": "b",
          "type": "uint256[2][2]"
        },
        {
          "internalType": "uint256[2]",
          "name": "c",
          "type": "uint256[2]"
        },
        {
          "internalType": "uint256[13]",
          "name": "input",
          "type": "uint256[13]"
        }
      ],
      "name": "verifyProof",
      "outputs": [
        {
          "internalType": "bool",
          "name": "",
          "type": "bool"
        }
      ],
      "stateMutability": "view",
      "type": "function"
    },
    {
      "inputs": [
        {
          "internalType": "uint256[2]",
          "name": "a",
          "type": "uint256[2]"
        },
        {
          "internalType": "uint256[2][2]",
          "name": "b",
          "type": "uint256[2][2]"
        },
        {
          "internalType": "uint256[2]",
          "name": "c",
          "type": "uint256[2]"
        },
        {
          "internalType": "uint256[13]",
          "name": "input",
          "type": "uint256[13]"
        }
      ],
      "name": "verifySujiko",
      "outputs": [
        {
          "internalType": "bool",
          "name": "",
          "type": "bool"
        }
      ],
      "stateMutability": "view",
      "type": "function"
    }
  ],
  "bytecode": "0x608060405260405180610120016040528060f1815260200162004b9160f191396101ab908051906020019062000037929190620001aa565b506040518060400160405280600d81526020017f3c2f746578743e3c2f7376673e000000000000000000000000000000000000008152506101ac908051906020019062000086929190620001aa565b503480156200009457600080fd5b5060405162004c8238038062004c828339818101604052810190620000ba919062000271565b6040518060400160405280600681526020017f53756a696b6f00000000000000000000000000000000000000000000000000008152506040518060400160405280600681526020017f53554a494b4f000000000000000000000000000000000000000000000000000081525081600090805190602001906200013e929190620001aa565b50806001908051906020019062000157929190620001aa565b50505080600960006101000a81548173ffffffffffffffffffffffffffffffffffffffff021916908373ffffffffffffffffffffffffffffffffffffffff1602179055506020600a819055505062000350565b828054620001b890620002d1565b90600052602060002090601f016020900481019282620001dc576000855562000228565b82601f10620001f757805160ff191683800117855562000228565b8280016001018555821562000228579182015b82811115620002275782518255916020019190600101906200020a565b5b5090506200023791906200023b565b5090565b5b80821115620002565760008160009055506001016200023c565b5090565b6000815190506200026b8162000336565b92915050565b6000602082840312156200028457600080fd5b600062000294848285016200025a565b91505092915050565b6000620002aa82620002b1565b9050919050565b600073ffffffffffffffffffffffffffffffffffffffff82169050919050565b60006002820490506001821680620002ea57607f821691505b6020821081141562000301576200030062000307565b5b50919050565b7f4e487b7100000000000000000000000000000000000000000000000000000000600052602260045260246000fd5b62000341816200029d565b81146200034d57600080fd5b50565b61483180620003606000396000f3fe608060405234801561001057600080fd5b506004361061014d5760003560e01c8063648ca8dd116100c3578063b88d4fde1161007c578063b88d4fde146103d6578063c87b56dd146103f2578063c987a08e14610422578063e985e9c514610441578063f143a75e14610471578063fde14d70146104a15761014d565b8063648ca8dd146102ee578063663ea2e21461031e57806370a082311461033c5780637d9715171461036c57806395d89b411461039c578063a22cb465146103ba5761014d565b806338e7e8511161011557806338e7e851146102085780633f571ab41461023857806342842e0e1461026857806354ba0f27146102845780635ec01e4d146102a05780636352211e146102be5761014d565b806301ffc9a71461015257806306fdde0314610182578063081812fc146101a0578063095ea7b3146101d057806323b872dd146101ec575b600080fd5b61016c60048036038101906101679190612dd9565b6104bf565b6040516101799190613777565b60405180910390f35b61018a6105a1565b6040516101979190613792565b60405180910390f35b6101ba60048036038101906101b59190612e2b565b610633565b6040516101c79190613675565b60405180910390f35b6101ea60048036038101906101e59190612ce5565b6106b8565b005b61020660048036038101906102019190612bdf565b6107d0565b005b610222600480360381019061021d9190612d4b565b610830565b60405161022f9190613777565b60405180910390f35b610252600480360381019061024d9190612d21565b6108d2565b60405161025f9190613777565b60405180910390f35b610282600480360381019061027d9190612bdf565b610c12565b005b61029e60048036038101906102999190612b7a565b610c32565b005b6102a8610d43565b6040516102b59190613a72565b60405180910390f35b6102d860048036038101906102d39190612e2b565b610d96565b6040516102e59190613675565b60405180910390f35b61030860048036038101906103039190612d4b565b610e48565b6040516103159190613777565b60405180910390f35b610326610efb565b6040516103339190613675565b60405180910390f35b61035660048036038101906103519190612b7a565b610f21565b6040516103639190613a72565b60405180910390f35b61038660048036038101906103819190612d21565b610fd9565b6040516103939190613777565b60405180910390f35b6103a461120c565b6040516103b19190613792565b60405180910390f35b6103d460048036038101906103cf9190612ca9565b61129e565b005b6103f060048036038101906103eb9190612c2e565b6112b4565b005b61040c60048036038101906104079190612e2b565b611316565b6040516104199190613792565b60405180910390f35b61042a611468565b60405161043892919061374c565b60405180910390f35b61045b60048036038101906104569190612ba3565b61158d565b6040516104689190613777565b60405180910390f35b61048b60048036038101906104869190612d4b565b611621565b6040516104989190613777565b60405180910390f35b6104a96116de565b6040516104b69190613a72565b60405180910390f35b60007f80ac58cd000000000000000000000000000000000000000000000000000000007bffffffffffffffffffffffffffffffffffffffffffffffffffffffff1916827bffffffffffffffffffffffffffffffffffffffffffffffffffffffff1916148061058a57507f5b5e139f000000000000000000000000000000000000000000000000000000007bffffffffffffffffffffffffffffffffffffffffffffffffffffffff1916827bffffffffffffffffffffffffffffffffffffffffffffffffffffffff1916145b8061059a5750610599826116e4565b5b9050919050565b6060600080546105b090613e64565b80601f01602080910402602001604051908101604052809291908181526020018280546105dc90613e64565b80156106295780601f106105fe57610100808354040283529160200191610629565b820191906000526020600020905b81548152906001019060200180831161060c57829003601f168201915b5050505050905090565b600061063e8261174e565b61067d576040517f08c379a0000000000000000000000000000000000000000000000000000000008152600401610674906139b2565b60405180910390fd5b6004600083815260200190815260200160002060009054906101000a900473ffffffffffffffffffffffffffffffffffffffff169050919050565b60006106c382610d96565b90508073ffffffffffffffffffffffffffffffffffffffff168373ffffffffffffffffffffffffffffffffffffffff161415610734576040517f08c379a000000000000000000000000000000000000000000000000000000000815260040161072b906139f2565b60405180910390fd5b8073ffffffffffffffffffffffffffffffffffffffff166107536117ba565b73ffffffffffffffffffffffffffffffffffffffff16148061078257506107818161077c6117ba565b61158d565b5b6107c1576040517f08c379a00000000000000000000000000000000000000000000000000000000081526004016107b8906138d2565b60405180910390fd5b6107cb83836117c2565b505050565b6107e16107db6117ba565b8261187b565b610820576040517f08c379a000000000000000000000000000000000000000000000000000000000815260040161081790613a32565b60405180910390fd5b61082b838383611959565b505050565b600061083e85858585611621565b61087d576040517f08c379a000000000000000000000000000000000000000000000000000000000815260040161087490613a52565b60405180910390fd5b61088682610fd9565b156108c6576040517f08c379a00000000000000000000000000000000000000000000000000000000081526004016108bd90613a12565b60405180910390fd5b60019050949350505050565b6000600a546108e16008611bc0565b10610921576040517f08c379a000000000000000000000000000000000000000000000000000000000815260040161091890613852565b60405180910390fd5b6000604051806040016040528060405180610120016040528060008152602001600081526020016000815260200160008152602001600081526020016000815260200160008152602001600081526020016000815250815260200160405180608001604052806000815260200160008152602001600081526020016000815250815250905060005b6009811015610a49578381600d81106109eb577f4e487b7100000000000000000000000000000000000000000000000000000000600052603260045260246000fd5b602002015182600001518260098110610a2d577f4e487b7100000000000000000000000000000000000000000000000000000000600052603260045260246000fd5b6020020181815250508080610a4190613ec7565b9150506109a9565b506000600990505b600d811015610afd578381600d8110610a93577f4e487b7100000000000000000000000000000000000000000000000000000000600052603260045260246000fd5b60200201518260200151600983610aaa9190613d7a565b60048110610ae1577f4e487b7100000000000000000000000000000000000000000000000000000000600052603260045260246000fd5b6020020181815250508080610af590613ec7565b915050610a51565b5080600b610b0b6008611bc0565b60208110610b42577f4e487b7100000000000000000000000000000000000000000000000000000000600052603260045260246000fd5b600d0201600082015181600001906009610b5d92919061278e565b50602082015181600901906004610b759291906127ce565b50905050610bfe600b600060208110610bb7577f4e487b7100000000000000000000000000000000000000000000000000000000600052603260045260246000fd5b600d0201600001600860098110610bf7577f4e487b7100000000000000000000000000000000000000000000000000000000600052603260045260246000fd5b0154611bce565b610c086008611c67565b6001915050919050565b610c2d838383604051806020016040528060008152506112b4565b505050565b6000610c3e6007611bc0565b905060006101ab6101ac604051602001610c599291906135b5565b60405160208183030381529060405290506000610c9c610c7883611c7d565b604051602001610c8891906135e4565b604051602081830303815290604052611c7d565b9050600081604051602001610cb19190613627565b6040516020818303038152906040529050610ccc8585611e07565b610cd68482611e25565b610ce06007611c67565b610d03604051806060016040528060258152602001614797602591398587611e99565b7f1c05098ed1ff38e6238d2b1b04b2c7977d4c94ce651bda6473f9dba8dbf01da03385604051610d349291906136dc565b60405180910390a15050505050565b60006001610d516008611bc0565b610d5b9190613c99565b4244604051602001610d6e929190613649565b6040516020818303038152906040528051906020012060001c610d919190613f1a565b905090565b6000806002600084815260200190815260200160002060009054906101000a900473ffffffffffffffffffffffffffffffffffffffff169050600073ffffffffffffffffffffffffffffffffffffffff168173ffffffffffffffffffffffffffffffffffffffff161415610e3f576040517f08c379a0000000000000000000000000000000000000000000000000000000008152600401610e3690613932565b60405180910390fd5b80915050919050565b6000610e5685858585611621565b610e95576040517f08c379a0000000000000000000000000000000000000000000000000000000008152600401610e8c90613a52565b60405180910390fd5b610e9e82610fd9565b610edd576040517f08c379a0000000000000000000000000000000000000000000000000000000008152600401610ed4906138f2565b60405180910390fd5b610ee6826108d2565b610eef57600080fd5b60019050949350505050565b600960009054906101000a900473ffffffffffffffffffffffffffffffffffffffff1681565b60008073ffffffffffffffffffffffffffffffffffffffff168273ffffffffffffffffffffffffffffffffffffffff161415610f92576040517f08c379a0000000000000000000000000000000000000000000000000000000008152600401610f8990613912565b60405180910390fd5b600360008373ffffffffffffffffffffffffffffffffffffffff1673ffffffffffffffffffffffffffffffffffffffff168152602001908152602001600020549050919050565b6000806001610fe86008611bc0565b610ff29190613c99565b905060005b8181116112005760006001905060005b60098110156110e8578180156110d357508581600d8110611051577f4e487b7100000000000000000000000000000000000000000000000000000000600052603260045260246000fd5b6020020151600b8460208110611090577f4e487b7100000000000000000000000000000000000000000000000000000000600052603260045260246000fd5b600d020160000182600981106110cf577f4e487b7100000000000000000000000000000000000000000000000000000000600052603260045260246000fd5b0154145b915080806110e090613ec7565b915050611007565b5060005b60048110156111d9578180156111c457508581600961110b9190613c99565b600d8110611142577f4e487b7100000000000000000000000000000000000000000000000000000000600052603260045260246000fd5b6020020151600b8460208110611181577f4e487b7100000000000000000000000000000000000000000000000000000000600052603260045260246000fd5b600d020160090182600481106111c0577f4e487b7100000000000000000000000000000000000000000000000000000000600052603260045260246000fd5b0154145b915080806111d190613ec7565b9150506110ec565b5080156111ec5760009350505050611207565b5080806111f890613ec7565b915050610ff7565b5060019150505b919050565b60606001805461121b90613e64565b80601f016020809104026020016040519081016040528092919081815260200182805461124790613e64565b80156112945780601f1061126957610100808354040283529160200191611294565b820191906000526020600020905b81548152906001019060200180831161127757829003601f168201915b5050505050905090565b6112b06112a96117ba565b8383611f38565b5050565b6112c56112bf6117ba565b8361187b565b611304576040517f08c379a00000000000000000000000000000000000000000000000000000000081526004016112fb90613a32565b60405180910390fd5b611310848484846120a5565b50505050565b60606113218261174e565b611360576040517f08c379a000000000000000000000000000000000000000000000000000000000815260040161135790613992565b60405180910390fd5b600060066000848152602001908152602001600020805461138090613e64565b80601f01602080910402602001604051908101604052809291908181526020018280546113ac90613e64565b80156113f95780601f106113ce576101008083540402835291602001916113f9565b820191906000526020600020905b8154815290600101906020018083116113dc57829003601f168201915b50505050509050600061140a612101565b9050600081511415611420578192505050611463565b60008251111561145557808260405160200161143d929190613591565b60405160208183030381529060405292505050611463565b61145e84612118565b925050505b919050565b61147061280e565b611478612831565b6000611482610d43565b9050600b81602081106114be577f4e487b7100000000000000000000000000000000000000000000000000000000600052603260045260246000fd5b600d0201600001600b82602081106114ff577f4e487b7100000000000000000000000000000000000000000000000000000000600052603260045260246000fd5b600d02016009018160098060200260405190810160405280929190826009801561153e576020028201915b81548152602001906001019080831161152a575b505050505091508060048060200260405190810160405280929190826004801561157d576020028201915b815481526020019060010190808311611569575b5050505050905092509250509091565b6000600560008473ffffffffffffffffffffffffffffffffffffffff1673ffffffffffffffffffffffffffffffffffffffff16815260200190815260200160002060008373ffffffffffffffffffffffffffffffffffffffff1673ffffffffffffffffffffffffffffffffffffffff16815260200190815260200160002060009054906101000a900460ff16905092915050565b6000600960009054906101000a900473ffffffffffffffffffffffffffffffffffffffff1673ffffffffffffffffffffffffffffffffffffffff1663f143a75e868686866040518563ffffffff1660e01b81526004016116849493929190613705565b60206040518083038186803b15801561169c57600080fd5b505afa1580156116b0573d6000803e3d6000fd5b505050506040513d601f19601f820116820180604052508101906116d49190612db0565b9050949350505050565b600a5481565b60007f01ffc9a7000000000000000000000000000000000000000000000000000000007bffffffffffffffffffffffffffffffffffffffffffffffffffffffff1916827bffffffffffffffffffffffffffffffffffffffffffffffffffffffff1916149050919050565b60008073ffffffffffffffffffffffffffffffffffffffff166002600084815260200190815260200160002060009054906101000a900473ffffffffffffffffffffffffffffffffffffffff1673ffffffffffffffffffffffffffffffffffffffff1614159050919050565b600033905090565b816004600083815260200190815260200160002060006101000a81548173ffffffffffffffffffffffffffffffffffffffff021916908373ffffffffffffffffffffffffffffffffffffffff160217905550808273ffffffffffffffffffffffffffffffffffffffff1661183583610d96565b73ffffffffffffffffffffffffffffffffffffffff167f8c5be1e5ebec7d5bd14f71427d1e84f3dd0314c0f7b2291e5b200ac8c7c3b92560405160405180910390a45050565b60006118868261174e565b6118c5576040517f08c379a00000000000000000000000000000000000000000000000000000000081526004016118bc906138b2565b60405180910390fd5b60006118d083610d96565b90508073ffffffffffffffffffffffffffffffffffffffff168473ffffffffffffffffffffffffffffffffffffffff16148061193f57508373ffffffffffffffffffffffffffffffffffffffff1661192784610633565b73ffffffffffffffffffffffffffffffffffffffff16145b80611950575061194f818561158d565b5b91505092915050565b8273ffffffffffffffffffffffffffffffffffffffff1661197982610d96565b73ffffffffffffffffffffffffffffffffffffffff16146119cf576040517f08c379a00000000000000000000000000000000000000000000000000000000081526004016119c690613812565b60405180910390fd5b600073ffffffffffffffffffffffffffffffffffffffff168273ffffffffffffffffffffffffffffffffffffffff161415611a3f576040517f08c379a0000000000000000000000000000000000000000000000000000000008152600401611a3690613872565b60405180910390fd5b611a4a8383836121bf565b611a556000826117c2565b6001600360008573ffffffffffffffffffffffffffffffffffffffff1673ffffffffffffffffffffffffffffffffffffffff1681526020019081526020016000206000828254611aa59190613d7a565b925050819055506001600360008473ffffffffffffffffffffffffffffffffffffffff1673ffffffffffffffffffffffffffffffffffffffff1681526020019081526020016000206000828254611afc9190613c99565b92505081905550816002600083815260200190815260200160002060006101000a81548173ffffffffffffffffffffffffffffffffffffffff021916908373ffffffffffffffffffffffffffffffffffffffff160217905550808273ffffffffffffffffffffffffffffffffffffffff168473ffffffffffffffffffffffffffffffffffffffff167fddf252ad1be2c89b69c2b068fc378daa952ba7f163c4a11628f55a4df523b3ef60405160405180910390a4611bbb8383836121c4565b505050565b600081600001549050919050565b611c6481604051602401611be29190613a72565b6040516020818303038152906040527ff5b1bba9000000000000000000000000000000000000000000000000000000007bffffffffffffffffffffffffffffffffffffffffffffffffffffffff19166020820180517bffffffffffffffffffffffffffffffffffffffffffffffffffffffff83818316178352505050506121c9565b50565b6001816000016000828254019250508190555050565b6060600082511415611ca057604051806020016040528060008152509050611e02565b60006040518060600160405280604081526020016147bc6040913990506000600360028551611ccf9190613c99565b611cd99190613cef565b6004611ce59190613d20565b67ffffffffffffffff811115611d24577f4e487b7100000000000000000000000000000000000000000000000000000000600052604160045260246000fd5b6040519080825280601f01601f191660200182016040528015611d565781602001600182028036833780820191505090505b509050600182016020820185865187015b80821015611dc2576003820191508151603f8160121c168501518453600184019350603f81600c1c168501518453600184019350603f8160061c168501518453600184019350603f8116850151845360018401935050611d67565b5050600386510660018114611dde5760028114611df157611df9565b603d6001830353603d6002830353611df9565b603d60018303535b50505080925050505b919050565b611e218282604051806020016040528060008152506121f2565b5050565b611e2e8261174e565b611e6d576040517f08c379a0000000000000000000000000000000000000000000000000000000008152600401611e6490613952565b60405180910390fd5b80600660008481526020019081526020016000209080519060200190611e94929190612853565b505050565b611f33838383604051602401611eb1939291906137b4565b6040516020818303038152906040527fe3849f79000000000000000000000000000000000000000000000000000000007bffffffffffffffffffffffffffffffffffffffffffffffffffffffff19166020820180517bffffffffffffffffffffffffffffffffffffffffffffffffffffffff83818316178352505050506121c9565b505050565b8173ffffffffffffffffffffffffffffffffffffffff168373ffffffffffffffffffffffffffffffffffffffff161415611fa7576040517f08c379a0000000000000000000000000000000000000000000000000000000008152600401611f9e90613892565b60405180910390fd5b80600560008573ffffffffffffffffffffffffffffffffffffffff1673ffffffffffffffffffffffffffffffffffffffff16815260200190815260200160002060008473ffffffffffffffffffffffffffffffffffffffff1673ffffffffffffffffffffffffffffffffffffffff16815260200190815260200160002060006101000a81548160ff0219169083151502179055508173ffffffffffffffffffffffffffffffffffffffff168373ffffffffffffffffffffffffffffffffffffffff167f17307eab39ab6107e8899845ad3d59bd9653f200f220920489ca2b5937696c31836040516120989190613777565b60405180910390a3505050565b6120b0848484611959565b6120bc8484848461224d565b6120fb576040517f08c379a00000000000000000000000000000000000000000000000000000000081526004016120f2906137f2565b60405180910390fd5b50505050565b606060405180602001604052806000815250905090565b60606121238261174e565b612162576040517f08c379a0000000000000000000000000000000000000000000000000000000008152600401612159906139d2565b60405180910390fd5b600061216c612101565b9050600081511161218c57604051806020016040528060008152506121b7565b80612196846123e4565b6040516020016121a7929190613591565b6040516020818303038152906040525b915050919050565b505050565b505050565b60008151905060006a636f6e736f6c652e6c6f679050602083016000808483855afa5050505050565b6121fc8383612591565b612209600084848461224d565b612248576040517f08c379a000000000000000000000000000000000000000000000000000000000815260040161223f906137f2565b60405180910390fd5b505050565b600061226e8473ffffffffffffffffffffffffffffffffffffffff1661276b565b156123d7578373ffffffffffffffffffffffffffffffffffffffff1663150b7a026122976117ba565b8786866040518563ffffffff1660e01b81526004016122b99493929190613690565b602060405180830381600087803b1580156122d357600080fd5b505af192505050801561230457506040513d601f19601f820116820180604052508101906123019190612e02565b60015b612387573d8060008114612334576040519150601f19603f3d011682016040523d82523d6000602084013e612339565b606091505b5060008151141561237f576040517f08c379a0000000000000000000000000000000000000000000000000000000008152600401612376906137f2565b60405180910390fd5b805181602001fd5b63150b7a0260e01b7bffffffffffffffffffffffffffffffffffffffffffffffffffffffff1916817bffffffffffffffffffffffffffffffffffffffffffffffffffffffff1916149150506123dc565b600190505b949350505050565b6060600082141561242c576040518060400160405280600181526020017f3000000000000000000000000000000000000000000000000000000000000000815250905061258c565b600082905060005b6000821461245e57808061244790613ec7565b915050600a826124579190613cef565b9150612434565b60008167ffffffffffffffff8111156124a0577f4e487b7100000000000000000000000000000000000000000000000000000000600052604160045260246000fd5b6040519080825280601f01601f1916602001820160405280156124d25781602001600182028036833780820191505090505b5090505b60008514612585576001826124eb9190613d7a565b9150600a856124fa9190613f1a565b60306125069190613c99565b60f81b818381518110612542577f4e487b7100000000000000000000000000000000000000000000000000000000600052603260045260246000fd5b60200101907effffffffffffffffffffffffffffffffffffffffffffffffffffffffffffff1916908160001a905350600a8561257e9190613cef565b94506124d6565b8093505050505b919050565b600073ffffffffffffffffffffffffffffffffffffffff168273ffffffffffffffffffffffffffffffffffffffff161415612601576040517f08c379a00000000000000000000000000000000000000000000000000000000081526004016125f890613972565b60405180910390fd5b61260a8161174e565b1561264a576040517f08c379a000000000000000000000000000000000000000000000000000000000815260040161264190613832565b60405180910390fd5b612656600083836121bf565b6001600360008473ffffffffffffffffffffffffffffffffffffffff1673ffffffffffffffffffffffffffffffffffffffff16815260200190815260200160002060008282546126a69190613c99565b92505081905550816002600083815260200190815260200160002060006101000a81548173ffffffffffffffffffffffffffffffffffffffff021916908373ffffffffffffffffffffffffffffffffffffffff160217905550808273ffffffffffffffffffffffffffffffffffffffff16600073ffffffffffffffffffffffffffffffffffffffff167fddf252ad1be2c89b69c2b068fc378daa952ba7f163c4a11628f55a4df523b3ef60405160405180910390a4612767600083836121c4565b5050565b6000808273ffffffffffffffffffffffffffffffffffffffff163b119050919050565b82600981019282156127bd579160200282015b828111156127bc5782518255916020019190600101906127a1565b5b5090506127ca91906128d9565b5090565b82600481019282156127fd579160200282015b828111156127fc5782518255916020019190600101906127e1565b5b50905061280a91906128d9565b5090565b604051806101200160405280600990602082028036833780820191505090505090565b6040518060800160405280600490602082028036833780820191505090505090565b82805461285f90613e64565b90600052602060002090601f01602090048101928261288157600085556128c8565b82601f1061289a57805160ff19168380011785556128c8565b828001600101855582156128c8579182015b828111156128c75782518255916020019190600101906128ac565b5b5090506128d591906128d9565b5090565b5b808211156128f25760008160009055506001016128da565b5090565b600061290961290484613ab2565b613a8d565b9050808285604086028201111561291f57600080fd5b60005b8581101561294f57816129358882612ac0565b845260208401935060408301925050600181019050612922565b5050509392505050565b600061296c61296784613ad8565b613a8d565b9050808285602086028201111561298257600080fd5b60005b858110156129b257816129988882612b65565b845260208401935060208301925050600181019050612985565b5050509392505050565b60006129cf6129ca84613afe565b613a8d565b905080828560208602820111156129e557600080fd5b60005b85811015612a1557816129fb8882612b65565b8452602084019350602083019250506001810190506129e8565b5050509392505050565b6000612a32612a2d84613b24565b613a8d565b905082815260208101848484011115612a4a57600080fd5b612a55848285613e22565b509392505050565b600081359050612a6c8161473a565b92915050565b600082601f830112612a8357600080fd5b6002612a908482856128f6565b91505092915050565b600082601f830112612aaa57600080fd5b600d612ab7848285612959565b91505092915050565b600082601f830112612ad157600080fd5b6002612ade8482856129bc565b91505092915050565b600081359050612af681614751565b92915050565b600081519050612b0b81614751565b92915050565b600081359050612b2081614768565b92915050565b600081519050612b3581614768565b92915050565b600082601f830112612b4c57600080fd5b8135612b5c848260208601612a1f565b91505092915050565b600081359050612b748161477f565b92915050565b600060208284031215612b8c57600080fd5b6000612b9a84828501612a5d565b91505092915050565b60008060408385031215612bb657600080fd5b6000612bc485828601612a5d565b9250506020612bd585828601612a5d565b9150509250929050565b600080600060608486031215612bf457600080fd5b6000612c0286828701612a5d565b9350506020612c1386828701612a5d565b9250506040612c2486828701612b65565b9150509250925092565b60008060008060808587031215612c4457600080fd5b6000612c5287828801612a5d565b9450506020612c6387828801612a5d565b9350506040612c7487828801612b65565b925050606085013567ffffffffffffffff811115612c9157600080fd5b612c9d87828801612b3b565b91505092959194509250565b60008060408385031215612cbc57600080fd5b6000612cca85828601612a5d565b9250506020612cdb85828601612ae7565b9150509250929050565b60008060408385031215612cf857600080fd5b6000612d0685828601612a5d565b9250506020612d1785828601612b65565b9150509250929050565b60006101a08284031215612d3457600080fd5b6000612d4284828501612a99565b91505092915050565b6000806000806102a08587031215612d6257600080fd5b6000612d7087828801612ac0565b9450506040612d8187828801612a72565b93505060c0612d9287828801612ac0565b925050610100612da487828801612a99565b91505092959194509250565b600060208284031215612dc257600080fd5b6000612dd084828501612afc565b91505092915050565b600060208284031215612deb57600080fd5b6000612df984828501612b11565b91505092915050565b600060208284031215612e1457600080fd5b6000612e2284828501612b26565b91505092915050565b600060208284031215612e3d57600080fd5b6000612e4b84828501612b65565b91505092915050565b6000612e608383612f41565b60408301905092915050565b6000612e78838361355c565b60208301905092915050565b612e8d81613dae565b82525050565b612e9c81613b9c565b612ea68184613c2a565b9250612eb182613b55565b8060005b83811015612ee2578151612ec98782612e54565b9650612ed483613be9565b925050600181019050612eb5565b505050505050565b612ef381613ba7565b612efd8184613c35565b9250612f0882613b5f565b8060005b83811015612f39578151612f208782612e6c565b9650612f2b83613bf6565b925050600181019050612f0c565b505050505050565b612f4a81613bb2565b612f548184613c40565b9250612f5f82613b69565b8060005b83811015612f90578151612f778782612e6c565b9650612f8283613c03565b925050600181019050612f63565b505050505050565b612fa181613bb2565b612fab8184613c4b565b9250612fb682613b69565b8060005b83811015612fe7578151612fce8782612e6c565b9650612fd983613c03565b925050600181019050612fba565b505050505050565b612ff881613bbd565b6130028184613c56565b925061300d82613b73565b8060005b8381101561303e5781516130258782612e6c565b965061303083613c10565b925050600181019050613011565b505050505050565b61304f81613bc8565b6130598184613c61565b925061306482613b7d565b8060005b8381101561309557815161307c8782612e6c565b965061308783613c1d565b925050600181019050613068565b505050505050565b6130a681613dc0565b82525050565b60006130b782613bd3565b6130c18185613c6c565b93506130d1818560208601613e31565b6130da81614007565b840191505092915050565b60006130f082613bde565b6130fa8185613c7d565b935061310a818560208601613e31565b61311381614007565b840191505092915050565b600061312982613bde565b6131338185613c8e565b9350613143818560208601613e31565b80840191505092915050565b6000815461315c81613e64565b6131668186613c8e565b945060018216600081146131815760018114613192576131c5565b60ff198316865281860193506131c5565b61319b85613b87565b60005b838110156131bd5781548189015260018201915060208101905061319e565b838801955050505b50505092915050565b60006131db603283613c7d565b91506131e682614018565b604082019050919050565b60006131fe602583613c7d565b915061320982614067565b604082019050919050565b6000613221601c83613c7d565b915061322c826140b6565b602082019050919050565b6000613244603f83613c7d565b915061324f826140df565b604082019050919050565b6000613267602483613c7d565b91506132728261412e565b604082019050919050565b600061328a601983613c7d565b91506132958261417d565b602082019050919050565b60006132ad602c83613c7d565b91506132b8826141a6565b604082019050919050565b60006132d0606b83613c8e565b91506132db826141f5565b606b82019050919050565b60006132f3603883613c7d565b91506132fe82614290565b604082019050919050565b6000613316602f83613c7d565b9150613321826142df565b604082019050919050565b6000613339602a83613c7d565b91506133448261432e565b604082019050919050565b600061335c602983613c7d565b91506133678261437d565b604082019050919050565b600061337f602e83613c7d565b915061338a826143cc565b604082019050919050565b60006133a2603583613c8e565b91506133ad8261441b565b603582019050919050565b60006133c5600283613c8e565b91506133d08261446a565b600282019050919050565b60006133e8602083613c7d565b91506133f382614493565b602082019050919050565b600061340b603183613c7d565b9150613416826144bc565b604082019050919050565b600061342e602c83613c7d565b91506134398261450b565b604082019050919050565b6000613451600d83613c8e565b915061345c8261455a565b600d82019050919050565b6000613474602f83613c7d565b915061347f82614583565b604082019050919050565b6000613497600a83613c8e565b91506134a2826145d2565b600a82019050919050565b60006134ba602183613c7d565b91506134c5826145fb565b604082019050919050565b60006134dd603483613c7d565b91506134e88261464a565b604082019050919050565b6000613500601d83613c8e565b915061350b82614699565b601d82019050919050565b6000613523603183613c7d565b915061352e826146c2565b604082019050919050565b6000613546601583613c7d565b915061355182614711565b602082019050919050565b61356581613e18565b82525050565b61357481613e18565b82525050565b61358b61358682613e18565b613f10565b82525050565b600061359d828561311e565b91506135a9828461311e565b91508190509392505050565b60006135c1828561314f565b91506135cc82613395565b91506135d8828461314f565b91508190509392505050565b60006135ef8261348a565b91506135fa82613444565b9150613605826132c3565b9150613611828461311e565b915061361c826133b8565b915081905092915050565b6000613632826134f3565b915061363e828461311e565b915081905092915050565b6000613655828561357a565b602082019150613665828461357a565b6020820191508190509392505050565b600060208201905061368a6000830184612e84565b92915050565b60006080820190506136a56000830187612e84565b6136b26020830186612e84565b6136bf604083018561356b565b81810360608301526136d181846130ac565b905095945050505050565b60006040820190506136f16000830185612e84565b6136fe602083018461356b565b9392505050565b60006102a08201905061371b6000830187612f98565b6137286040830186612e93565b61373560c0830185612f98565b613743610100830184612eea565b95945050505050565b60006101a0820190506137626000830185613046565b613770610120830184612fef565b9392505050565b600060208201905061378c600083018461309d565b92915050565b600060208201905081810360008301526137ac81846130e5565b905092915050565b600060608201905081810360008301526137ce81866130e5565b90506137dd602083018561356b565b6137ea6040830184612e84565b949350505050565b6000602082019050818103600083015261380b816131ce565b9050919050565b6000602082019050818103600083015261382b816131f1565b9050919050565b6000602082019050818103600083015261384b81613214565b9050919050565b6000602082019050818103600083015261386b81613237565b9050919050565b6000602082019050818103600083015261388b8161325a565b9050919050565b600060208201905081810360008301526138ab8161327d565b9050919050565b600060208201905081810360008301526138cb816132a0565b9050919050565b600060208201905081810360008301526138eb816132e6565b9050919050565b6000602082019050818103600083015261390b81613309565b9050919050565b6000602082019050818103600083015261392b8161332c565b9050919050565b6000602082019050818103600083015261394b8161334f565b9050919050565b6000602082019050818103600083015261396b81613372565b9050919050565b6000602082019050818103600083015261398b816133db565b9050919050565b600060208201905081810360008301526139ab816133fe565b9050919050565b600060208201905081810360008301526139cb81613421565b9050919050565b600060208201905081810360008301526139eb81613467565b9050919050565b60006020820190508181036000830152613a0b816134ad565b9050919050565b60006020820190508181036000830152613a2b816134d0565b9050919050565b60006020820190508181036000830152613a4b81613516565b9050919050565b60006020820190508181036000830152613a6b81613539565b9050919050565b6000602082019050613a87600083018461356b565b92915050565b6000613a97613aa8565b9050613aa38282613e96565b919050565b6000604051905090565b600067ffffffffffffffff821115613acd57613acc613fd8565b5b602082029050919050565b600067ffffffffffffffff821115613af357613af2613fd8565b5b602082029050919050565b600067ffffffffffffffff821115613b1957613b18613fd8565b5b602082029050919050565b600067ffffffffffffffff821115613b3f57613b3e613fd8565b5b613b4882614007565b9050602081019050919050565b6000819050919050565b6000819050919050565b6000819050919050565b6000819050919050565b6000819050919050565b60008190508160005260206000209050919050565b600060029050919050565b6000600d9050919050565b600060029050919050565b600060049050919050565b600060099050919050565b600081519050919050565b600081519050919050565b6000602082019050919050565b6000602082019050919050565b6000602082019050919050565b6000602082019050919050565b6000602082019050919050565b600081905092915050565b600081905092915050565b600081905092915050565b600081905092915050565b600081905092915050565b600081905092915050565b600082825260208201905092915050565b600082825260208201905092915050565b600081905092915050565b6000613ca482613e18565b9150613caf83613e18565b9250827fffffffffffffffffffffffffffffffffffffffffffffffffffffffffffffffff03821115613ce457613ce3613f4b565b5b828201905092915050565b6000613cfa82613e18565b9150613d0583613e18565b925082613d1557613d14613f7a565b5b828204905092915050565b6000613d2b82613e18565b9150613d3683613e18565b9250817fffffffffffffffffffffffffffffffffffffffffffffffffffffffffffffffff0483118215151615613d6f57613d6e613f4b565b5b828202905092915050565b6000613d8582613e18565b9150613d9083613e18565b925082821015613da357613da2613f4b565b5b828203905092915050565b6000613db982613df8565b9050919050565b60008115159050919050565b60007fffffffff0000000000000000000000000000000000000000000000000000000082169050919050565b600073ffffffffffffffffffffffffffffffffffffffff82169050919050565b6000819050919050565b82818337600083830152505050565b60005b83811015613e4f578082015181840152602081019050613e34565b83811115613e5e576000848401525b50505050565b60006002820490506001821680613e7c57607f821691505b60208210811415613e9057613e8f613fa9565b5b50919050565b613e9f82614007565b810181811067ffffffffffffffff82111715613ebe57613ebd613fd8565b5b80604052505050565b6000613ed282613e18565b91507fffffffffffffffffffffffffffffffffffffffffffffffffffffffffffffffff821415613f0557613f04613f4b565b5b600182019050919050565b6000819050919050565b6000613f2582613e18565b9150613f3083613e18565b925082613f4057613f3f613f7a565b5b828206905092915050565b7f4e487b7100000000000000000000000000000000000000000000000000000000600052601160045260246000fd5b7f4e487b7100000000000000000000000000000000000000000000000000000000600052601260045260246000fd5b7f4e487b7100000000000000000000000000000000000000000000000000000000600052602260045260246000fd5b7f4e487b7100000000000000000000000000000000000000000000000000000000600052604160045260246000fd5b6000601f19601f8301169050919050565b7f4552433732313a207472616e7366657220746f206e6f6e20455243373231526560008201527f63656976657220696d706c656d656e7465720000000000000000000000000000602082015250565b7f4552433732313a207472616e736665722066726f6d20696e636f72726563742060008201527f6f776e6572000000000000000000000000000000000000000000000000000000602082015250565b7f4552433732313a20746f6b656e20616c7265616479206d696e74656400000000600082015250565b7f5468616e6b732c2062757420776527766520616c72656164792072656163686560008201527f6420746865206d6178696d756e206e756d626572206f662073756a696b6f7300602082015250565b7f4552433732313a207472616e7366657220746f20746865207a65726f2061646460008201527f7265737300000000000000000000000000000000000000000000000000000000602082015250565b7f4552433732313a20617070726f766520746f2063616c6c657200000000000000600082015250565b7f4552433732313a206f70657261746f7220717565727920666f72206e6f6e657860008201527f697374656e7420746f6b656e0000000000000000000000000000000000000000602082015250565b7f222c20226465736372697074696f6e223a202254686973204e4654206365727460008201527f6969657320796f75206861766520736f6c76656420612053756a696b6f20707560208201527f7a7a6c65222c2022696d616765223a2022646174613a696d6167652f7376672b60408201527f786d6c3b6261736536342c000000000000000000000000000000000000000000606082015250565b7f4552433732313a20617070726f76652063616c6c6572206973206e6f74206f7760008201527f6e6572206e6f7220617070726f76656420666f7220616c6c0000000000000000602082015250565b7f5468616e6b732c2062757420746861742073756a696b6f20686173206265656e60008201527f20616c72656164792061646465642e0000000000000000000000000000000000602082015250565b7f4552433732313a2062616c616e636520717565727920666f7220746865207a6560008201527f726f206164647265737300000000000000000000000000000000000000000000602082015250565b7f4552433732313a206f776e657220717565727920666f72206e6f6e657869737460008201527f656e7420746f6b656e0000000000000000000000000000000000000000000000602082015250565b7f45524337323155524953746f726167653a2055524920736574206f66206e6f6e60008201527f6578697374656e7420746f6b656e000000000000000000000000000000000000602082015250565b7f436f6e67726174756c6174696f6e732c20796f7520617265206120636572746960008201527f666965642053756a696b6f204368616d70696f6e210000000000000000000000602082015250565b7f227d000000000000000000000000000000000000000000000000000000000000600082015250565b7f4552433732313a206d696e7420746f20746865207a65726f2061646472657373600082015250565b7f45524337323155524953746f726167653a2055524920717565727920666f722060008201527f6e6f6e6578697374656e7420746f6b656e000000000000000000000000000000602082015250565b7f4552433732313a20617070726f76656420717565727920666f72206e6f6e657860008201527f697374656e7420746f6b656e0000000000000000000000000000000000000000602082015250565b7f53756a696b6f20536f6c76656400000000000000000000000000000000000000600082015250565b7f4552433732314d657461646174613a2055524920717565727920666f72206e6f60008201527f6e6578697374656e7420746f6b656e0000000000000000000000000000000000602082015250565b7f7b226e616d65223a202200000000000000000000000000000000000000000000600082015250565b7f4552433732313a20617070726f76616c20746f2063757272656e74206f776e6560008201527f7200000000000000000000000000000000000000000000000000000000000000602082015250565b7f536f7272792c2062757420746869732073756a696b6f20646f6e742062656c6f60008201527f6e6720746f206f757220636f6c6c656374696f6e000000000000000000000000602082015250565b7f646174613a6170706c69636174696f6e2f6a736f6e3b6261736536342c000000600082015250565b7f4552433732313a207472616e736665722063616c6c6572206973206e6f74206f60008201527f776e6572206e6f7220617070726f766564000000000000000000000000000000602082015250565b7f4572726f7220696e207665726966792070726f6f660000000000000000000000600082015250565b61474381613dae565b811461474e57600080fd5b50565b61475a81613dc0565b811461476557600080fd5b50565b61477181613dcc565b811461477c57600080fd5b50565b61478881613e18565b811461479357600080fd5b5056fe416e204e465420772f20494420257320686173206265656e206d696e74656420746f2025734142434445464748494a4b4c4d4e4f505152535455565758595a6162636465666768696a6b6c6d6e6f707172737475767778797a303132333435363738392b2fa26469706673582212200f33ccf6cf25edc44a9522b4b28b5a891a9b580dbf5a8c2ee7282217c6c86e3464736f6c634300080400333c7376672077696474683d2234303022206865696768743d22343030222076696577426f783d2230203020343030203430302220786d6c6e733d22687474703a2f2f7777772e77332e6f72672f323030302f737667223e3c726563742077696474683d223130302522206865696768743d2231303025222f3e3c7465787420783d223530252220793d223530252220646f6d696e616e742d626173656c696e653d226d6964646c652220746578742d616e63686f723d226d6964646c6522207374796c653d2266696c6c3a236666663b666f6e742d66616d696c793a73616e733b666f6e742d73697a653a33307078223e",
  "linkReferences": {},
  "deployedLinkReferences": {}
}