{
  "_format": "hh-sol-artifact-1",
  "contractName": "Sujiko",
  "sourceName": "contracts/Sujiko.sol",
  "abi": [
    {
      "inputs": [
        {
          "internalType": "address",
          "name": "_verifierAddr",
          "type": "address"
        }
      ],
      "stateMutability": "nonpayable",
      "type": "constructor"
    },
    {
      "anonymous": false,
      "inputs": [
        {
          "indexed": true,
          "internalType": "address",
          "name": "owner",
          "type": "address"
        },
        {
          "indexed": true,
          "internalType": "address",
          "name": "approved",
          "type": "address"
        },
        {
          "indexed": true,
          "internalType": "uint256",
          "name": "tokenId",
          "type": "uint256"
        }
      ],
      "name": "Approval",
      "type": "event"
    },
    {
      "anonymous": false,
      "inputs": [
        {
          "indexed": true,
          "internalType": "address",
          "name": "owner",
          "type": "address"
        },
        {
          "indexed": true,
          "internalType": "address",
          "name": "operator",
          "type": "address"
        },
        {
          "indexed": false,
          "internalType": "bool",
          "name": "approved",
          "type": "bool"
        }
      ],
      "name": "ApprovalForAll",
      "type": "event"
    },
    {
      "anonymous": false,
      "inputs": [
        {
          "indexed": true,
          "internalType": "address",
          "name": "from",
          "type": "address"
        },
        {
          "indexed": true,
          "internalType": "address",
          "name": "to",
          "type": "address"
        },
        {
          "indexed": true,
          "internalType": "uint256",
          "name": "tokenId",
          "type": "uint256"
        }
      ],
      "name": "Transfer",
      "type": "event"
    },
    {
      "inputs": [
        {
          "internalType": "address",
          "name": "to",
          "type": "address"
        },
        {
          "internalType": "uint256",
          "name": "tokenId",
          "type": "uint256"
        }
      ],
      "name": "approve",
      "outputs": [],
      "stateMutability": "nonpayable",
      "type": "function"
    },
    {
      "inputs": [
        {
          "internalType": "address",
          "name": "owner",
          "type": "address"
        }
      ],
      "name": "balanceOf",
      "outputs": [
        {
          "internalType": "uint256",
          "name": "",
          "type": "uint256"
        }
      ],
      "stateMutability": "view",
      "type": "function"
    },
    {
      "inputs": [
        {
          "internalType": "uint256[2]",
          "name": "a",
          "type": "uint256[2]"
        },
        {
          "internalType": "uint256[2][2]",
          "name": "b",
          "type": "uint256[2][2]"
        },
        {
          "internalType": "uint256[2]",
          "name": "c",
          "type": "uint256[2]"
        },
        {
          "internalType": "uint256[13]",
          "name": "input",
          "type": "uint256[13]"
        }
      ],
      "name": "contributeSujiko",
      "outputs": [
        {
          "internalType": "bool",
          "name": "",
          "type": "bool"
        }
      ],
      "stateMutability": "nonpayable",
      "type": "function"
    },
    {
      "inputs": [
        {
          "internalType": "uint256[13]",
          "name": "_sujiko",
          "type": "uint256[13]"
        }
      ],
      "name": "contributeWithSujiko",
      "outputs": [
        {
          "internalType": "bool",
          "name": "",
          "type": "bool"
        }
      ],
      "stateMutability": "nonpayable",
      "type": "function"
    },
    {
      "inputs": [
        {
          "internalType": "uint256",
          "name": "tokenId",
          "type": "uint256"
        }
      ],
      "name": "getApproved",
      "outputs": [
        {
          "internalType": "address",
          "name": "",
          "type": "address"
        }
      ],
      "stateMutability": "view",
      "type": "function"
    },
    {
      "inputs": [
        {
          "internalType": "uint256",
          "name": "_i",
          "type": "uint256"
        }
      ],
      "name": "getNewSujiko",
      "outputs": [
        {
          "internalType": "uint256[9]",
          "name": "",
          "type": "uint256[9]"
        },
        {
          "internalType": "uint256[4]",
          "name": "",
          "type": "uint256[4]"
        },
        {
          "internalType": "uint256",
          "name": "",
          "type": "uint256"
        }
      ],
      "stateMutability": "view",
      "type": "function"
    },
    {
      "inputs": [
        {
          "internalType": "address",
          "name": "owner",
          "type": "address"
        },
        {
          "internalType": "address",
          "name": "operator",
          "type": "address"
        }
      ],
      "name": "isApprovedForAll",
      "outputs": [
        {
          "internalType": "bool",
          "name": "",
          "type": "bool"
        }
      ],
      "stateMutability": "view",
      "type": "function"
    },
    {
      "inputs": [
        {
          "internalType": "uint256[13]",
          "name": "_sujiko",
          "type": "uint256[13]"
        }
      ],
      "name": "isNewSujiko",
      "outputs": [
        {
          "internalType": "bool",
          "name": "",
          "type": "bool"
        }
      ],
      "stateMutability": "view",
      "type": "function"
    },
    {
      "inputs": [],
      "name": "limitSujikos",
      "outputs": [
        {
          "internalType": "uint256",
          "name": "",
          "type": "uint256"
        }
      ],
      "stateMutability": "view",
      "type": "function"
    },
    {
      "inputs": [
        {
          "internalType": "address",
          "name": "personAddress",
          "type": "address"
        }
      ],
      "name": "mintNFT",
      "outputs": [],
      "stateMutability": "nonpayable",
      "type": "function"
    },
    {
      "inputs": [],
      "name": "name",
      "outputs": [
        {
          "internalType": "string",
          "name": "",
          "type": "string"
        }
      ],
      "stateMutability": "view",
      "type": "function"
    },
    {
      "inputs": [
        {
          "internalType": "uint256",
          "name": "tokenId",
          "type": "uint256"
        }
      ],
      "name": "ownerOf",
      "outputs": [
        {
          "internalType": "address",
          "name": "",
          "type": "address"
        }
      ],
      "stateMutability": "view",
      "type": "function"
    },
    {
      "inputs": [],
      "name": "random",
      "outputs": [
        {
          "internalType": "uint256",
          "name": "",
          "type": "uint256"
        }
      ],
      "stateMutability": "view",
      "type": "function"
    },
    {
      "inputs": [
        {
          "internalType": "address",
          "name": "from",
          "type": "address"
        },
        {
          "internalType": "address",
          "name": "to",
          "type": "address"
        },
        {
          "internalType": "uint256",
          "name": "tokenId",
          "type": "uint256"
        }
      ],
      "name": "safeTransferFrom",
      "outputs": [],
      "stateMutability": "nonpayable",
      "type": "function"
    },
    {
      "inputs": [
        {
          "internalType": "address",
          "name": "from",
          "type": "address"
        },
        {
          "internalType": "address",
          "name": "to",
          "type": "address"
        },
        {
          "internalType": "uint256",
          "name": "tokenId",
          "type": "uint256"
        },
        {
          "internalType": "bytes",
          "name": "_data",
          "type": "bytes"
        }
      ],
      "name": "safeTransferFrom",
      "outputs": [],
      "stateMutability": "nonpayable",
      "type": "function"
    },
    {
      "inputs": [
        {
          "internalType": "address",
          "name": "operator",
          "type": "address"
        },
        {
          "internalType": "bool",
          "name": "approved",
          "type": "bool"
        }
      ],
      "name": "setApprovalForAll",
      "outputs": [],
      "stateMutability": "nonpayable",
      "type": "function"
    },
    {
      "inputs": [
        {
          "internalType": "bytes4",
          "name": "interfaceId",
          "type": "bytes4"
        }
      ],
      "name": "supportsInterface",
      "outputs": [
        {
          "internalType": "bool",
          "name": "",
          "type": "bool"
        }
      ],
      "stateMutability": "view",
      "type": "function"
    },
    {
      "inputs": [],
      "name": "symbol",
      "outputs": [
        {
          "internalType": "string",
          "name": "",
          "type": "string"
        }
      ],
      "stateMutability": "view",
      "type": "function"
    },
    {
      "inputs": [
        {
          "internalType": "uint256",
          "name": "tokenId",
          "type": "uint256"
        }
      ],
      "name": "tokenURI",
      "outputs": [
        {
          "internalType": "string",
          "name": "",
          "type": "string"
        }
      ],
      "stateMutability": "view",
      "type": "function"
    },
    {
      "inputs": [
        {
          "internalType": "address",
          "name": "from",
          "type": "address"
        },
        {
          "internalType": "address",
          "name": "to",
          "type": "address"
        },
        {
          "internalType": "uint256",
          "name": "tokenId",
          "type": "uint256"
        }
      ],
      "name": "transferFrom",
      "outputs": [],
      "stateMutability": "nonpayable",
      "type": "function"
    },
    {
      "inputs": [],
      "name": "verifierAddr",
      "outputs": [
        {
          "internalType": "address",
          "name": "",
          "type": "address"
        }
      ],
      "stateMutability": "view",
      "type": "function"
    },
    {
      "inputs": [
        {
          "internalType": "uint256[2]",
          "name": "a",
          "type": "uint256[2]"
        },
        {
          "internalType": "uint256[2][2]",
          "name": "b",
          "type": "uint256[2][2]"
        },
        {
          "internalType": "uint256[2]",
          "name": "c",
          "type": "uint256[2]"
        },
        {
          "internalType": "uint256[13]",
          "name": "input",
          "type": "uint256[13]"
        }
      ],
      "name": "verifyProof",
      "outputs": [
        {
          "internalType": "bool",
          "name": "",
          "type": "bool"
        }
      ],
      "stateMutability": "view",
      "type": "function"
    },
    {
      "inputs": [
        {
          "internalType": "uint256[2]",
          "name": "a",
          "type": "uint256[2]"
        },
        {
          "internalType": "uint256[2][2]",
          "name": "b",
          "type": "uint256[2][2]"
        },
        {
          "internalType": "uint256[2]",
          "name": "c",
          "type": "uint256[2]"
        },
        {
          "internalType": "uint256[13]",
          "name": "input",
          "type": "uint256[13]"
        }
      ],
      "name": "verifySujiko",
      "outputs": [
        {
          "internalType": "bool",
          "name": "",
          "type": "bool"
        }
      ],
      "stateMutability": "view",
      "type": "function"
    }
  ],
  "bytecode": "0x608060405260405180610120016040528060f1815260200162004c1d60f191396101ab908051906020019062000037929190620002f2565b506040518060400160405280600d81526020017f3c2f746578743e3c2f7376673e000000000000000000000000000000000000008152506101ac908051906020019062000086929190620002f2565b503480156200009457600080fd5b5060405162004d0e38038062004d0e8339818101604052810190620000ba919062000443565b6040518060400160405280600681526020017f53756a696b6f00000000000000000000000000000000000000000000000000008152506040518060400160405280600681526020017f53554a494b4f000000000000000000000000000000000000000000000000000081525081600090805190602001906200013e929190620002f2565b50806001908051906020019062000157929190620002f2565b50505080600960006101000a81548173ffffffffffffffffffffffffffffffffffffffff021916908373ffffffffffffffffffffffffffffffffffffffff1602179055506020600a8190555060405180604001604052806040518061012001604052806000815260200160008152602001600081526020016000815260200160008152602001600081526020016008815260200160008152602001600781525081526020016040518060800160405280600a815260200160158152602001601281526020016014815250815250600b6200023d6008620002ce60201b6200167d1760201c565b6020811062000275577f4e487b7100000000000000000000000000000000000000000000000000000000600052603260045260246000fd5b600d02016000820151816000019060096200029292919062000383565b50602082015181600901906004620002ac929190620003c8565b50905050620002c76008620002dc60201b6200168b1760201c565b5062000522565b600081600001549050919050565b6001816000016000828254019250508190555050565b8280546200030090620004a3565b90600052602060002090601f01602090048101928262000324576000855562000370565b82601f106200033f57805160ff191683800117855562000370565b8280016001018555821562000370579182015b828111156200036f57825182559160200191906001019062000352565b5b5090506200037f91906200040d565b5090565b8260098101928215620003b5579160200282015b82811115620003b457825182559160200191906001019062000397565b5b509050620003c491906200040d565b5090565b8260048101928215620003fa579160200282015b82811115620003f9578251825591602001919060010190620003dc565b5b5090506200040991906200040d565b5090565b5b80821115620004285760008160009055506001016200040e565b5090565b6000815190506200043d8162000508565b92915050565b6000602082840312156200045657600080fd5b600062000466848285016200042c565b91505092915050565b60006200047c8262000483565b9050919050565b600073ffffffffffffffffffffffffffffffffffffffff82169050919050565b60006002820490506001821680620004bc57607f821691505b60208210811415620004d357620004d2620004d9565b5b50919050565b7f4e487b7100000000000000000000000000000000000000000000000000000000600052602260045260246000fd5b62000513816200046f565b81146200051f57600080fd5b50565b6146eb80620005326000396000f3fe608060405234801561001057600080fd5b506004361061014d5760003560e01c8063663ea2e2116100c3578063abdc18b81161007c578063abdc18b8146103c4578063b88d4fde146103f4578063c87b56dd14610410578063e985e9c514610440578063f143a75e14610470578063fc79a9f5146104a05761014d565b8063663ea2e2146102ee57806370a082311461030c5780637d9715171461033c5780638f476f0a1461036c57806395d89b411461038a578063a22cb465146103a85761014d565b806338e7e8511161011557806338e7e8511461020857806342842e0e1461023857806354ba0f27146102545780635ec01e4d146102705780636352211e1461028e578063648ca8dd146102be5761014d565b806301ffc9a71461015257806306fdde0314610182578063081812fc146101a0578063095ea7b3146101d057806323b872dd146101ec575b600080fd5b61016c60048036038101906101679190612cd9565b6104d2565b6040516101799190613680565b60405180910390f35b61018a6105b4565b604051610197919061369b565b60405180910390f35b6101ba60048036038101906101b59190612d2b565b610646565b6040516101c79190613598565b60405180910390f35b6101ea60048036038101906101e59190612be5565b6106cb565b005b61020660048036038101906102019190612adf565b6107e3565b005b610222600480360381019061021d9190612c4b565b610843565b60405161022f9190613680565b60405180910390f35b610252600480360381019061024d9190612adf565b6108e5565b005b61026e60048036038101906102699190612a7a565b610905565b005b6102786109dd565b604051610285919061399b565b60405180910390f35b6102a860048036038101906102a39190612d2b565b610a24565b6040516102b59190613598565b60405180910390f35b6102d860048036038101906102d39190612c4b565b610ad6565b6040516102e59190613680565b60405180910390f35b6102f6610b89565b6040516103039190613598565b60405180910390f35b61032660048036038101906103219190612a7a565b610baf565b604051610333919061399b565b60405180910390f35b61035660048036038101906103519190612c21565b610c67565b6040516103639190613680565b60405180910390f35b610374610e8f565b604051610381919061399b565b60405180910390f35b610392610e95565b60405161039f919061369b565b60405180910390f35b6103c260048036038101906103bd9190612ba9565b610f27565b005b6103de60048036038101906103d99190612c21565b610f3d565b6040516103eb9190613680565b60405180910390f35b61040e60048036038101906104099190612b2e565b6111f8565b005b61042a60048036038101906104259190612d2b565b61125a565b604051610437919061369b565b60405180910390f35b61045a60048036038101906104559190612aa3565b6113ac565b6040516104679190613680565b60405180910390f35b61048a60048036038101906104859190612c4b565b611440565b6040516104979190613680565b60405180910390f35b6104ba60048036038101906104b59190612d2b565b6114fd565b6040516104c993929190613646565b60405180910390f35b60007f80ac58cd000000000000000000000000000000000000000000000000000000007bffffffffffffffffffffffffffffffffffffffffffffffffffffffff1916827bffffffffffffffffffffffffffffffffffffffffffffffffffffffff1916148061059d57507f5b5e139f000000000000000000000000000000000000000000000000000000007bffffffffffffffffffffffffffffffffffffffffffffffffffffffff1916827bffffffffffffffffffffffffffffffffffffffffffffffffffffffff1916145b806105ad57506105ac826116a1565b5b9050919050565b6060600080546105c390613d8d565b80601f01602080910402602001604051908101604052809291908181526020018280546105ef90613d8d565b801561063c5780601f106106115761010080835404028352916020019161063c565b820191906000526020600020905b81548152906001019060200180831161061f57829003601f168201915b5050505050905090565b60006106518261170b565b610690576040517f08c379a0000000000000000000000000000000000000000000000000000000008152600401610687906138bb565b60405180910390fd5b6004600083815260200190815260200160002060009054906101000a900473ffffffffffffffffffffffffffffffffffffffff169050919050565b60006106d682610a24565b90508073ffffffffffffffffffffffffffffffffffffffff168373ffffffffffffffffffffffffffffffffffffffff161415610747576040517f08c379a000000000000000000000000000000000000000000000000000000000815260040161073e906138fb565b60405180910390fd5b8073ffffffffffffffffffffffffffffffffffffffff16610766611777565b73ffffffffffffffffffffffffffffffffffffffff16148061079557506107948161078f611777565b6113ac565b5b6107d4576040517f08c379a00000000000000000000000000000000000000000000000000000000081526004016107cb906137fb565b60405180910390fd5b6107de838361177f565b505050565b6107f46107ee611777565b82611838565b610833576040517f08c379a000000000000000000000000000000000000000000000000000000000815260040161082a9061393b565b60405180910390fd5b61083e838383611916565b505050565b600061085185858585611440565b610890576040517f08c379a00000000000000000000000000000000000000000000000000000000081526004016108879061397b565b60405180910390fd5b61089982610c67565b156108d9576040517f08c379a00000000000000000000000000000000000000000000000000000000081526004016108d0906136fb565b60405180910390fd5b60019050949350505050565b610900838383604051806020016040528060008152506111f8565b505050565b6000610911600761167d565b905060006101ab6101ac60405160200161092c9291906134d8565b6040516020818303038152906040529050600061096f61094b83611b7d565b60405160200161095b9190613507565b604051602081830303815290604052611b7d565b9050600081604051602001610984919061354a565b604051602081830303815290604052905061099f8585611d07565b6109a98482611d25565b6109b3600761168b565b6109d6604051806060016040528060258152602001614651602591398587611d99565b5050505050565b60006109e9600861167d565b42446040516020016109fc92919061356c565b6040516020818303038152906040528051906020012060001c610a1f9190613e43565b905090565b6000806002600084815260200190815260200160002060009054906101000a900473ffffffffffffffffffffffffffffffffffffffff169050600073ffffffffffffffffffffffffffffffffffffffff168173ffffffffffffffffffffffffffffffffffffffff161415610acd576040517f08c379a0000000000000000000000000000000000000000000000000000000008152600401610ac49061383b565b60405180910390fd5b80915050919050565b6000610ae485858585611440565b610b23576040517f08c379a0000000000000000000000000000000000000000000000000000000008152600401610b1a9061397b565b60405180910390fd5b610b2c82610c67565b610b6b576040517f08c379a0000000000000000000000000000000000000000000000000000000008152600401610b629061395b565b60405180910390fd5b610b7482610f3d565b610b7d57600080fd5b60019050949350505050565b600960009054906101000a900473ffffffffffffffffffffffffffffffffffffffff1681565b60008073ffffffffffffffffffffffffffffffffffffffff168273ffffffffffffffffffffffffffffffffffffffff161415610c20576040517f08c379a0000000000000000000000000000000000000000000000000000000008152600401610c179061381b565b60405180910390fd5b600360008373ffffffffffffffffffffffffffffffffffffffff1673ffffffffffffffffffffffffffffffffffffffff168152602001908152602001600020549050919050565b600080610c74600861167d565b905060005b81811015610e835760006001905060005b6009811015610d6b57818015610d5657508581600d8110610cd4577f4e487b7100000000000000000000000000000000000000000000000000000000600052603260045260246000fd5b6020020151600b8460208110610d13577f4e487b7100000000000000000000000000000000000000000000000000000000600052603260045260246000fd5b600d02016000018260098110610d52577f4e487b7100000000000000000000000000000000000000000000000000000000600052603260045260246000fd5b0154145b91508080610d6390613df0565b915050610c8a565b5060005b6004811015610e5c57818015610e47575085816009610d8e9190613bc2565b600d8110610dc5577f4e487b7100000000000000000000000000000000000000000000000000000000600052603260045260246000fd5b6020020151600b8460208110610e04577f4e487b7100000000000000000000000000000000000000000000000000000000600052603260045260246000fd5b600d02016009018260048110610e43577f4e487b7100000000000000000000000000000000000000000000000000000000600052603260045260246000fd5b0154145b91508080610e5490613df0565b915050610d6f565b508015610e6f5760009350505050610e8a565b508080610e7b90613df0565b915050610c79565b5060019150505b919050565b600a5481565b606060018054610ea490613d8d565b80601f0160208091040260200160405190810160405280929190818152602001828054610ed090613d8d565b8015610f1d5780601f10610ef257610100808354040283529160200191610f1d565b820191906000526020600020905b815481529060010190602001808311610f0057829003601f168201915b5050505050905090565b610f39610f32611777565b8383611e38565b5050565b6000600a54610f4c600861167d565b10610f8c576040517f08c379a0000000000000000000000000000000000000000000000000000000008152600401610f83906137db565b60405180910390fd5b6000604051806040016040528060405180610120016040528060008152602001600081526020016000815260200160008152602001600081526020016000815260200160008152602001600081526020016000815250815260200160405180608001604052806000815260200160008152602001600081526020016000815250815250905060005b60098110156110b4578381600d8110611056577f4e487b7100000000000000000000000000000000000000000000000000000000600052603260045260246000fd5b602002015182600001518260098110611098577f4e487b7100000000000000000000000000000000000000000000000000000000600052603260045260246000fd5b60200201818152505080806110ac90613df0565b915050611014565b506000600990505b600d811015611168578381600d81106110fe577f4e487b7100000000000000000000000000000000000000000000000000000000600052603260045260246000fd5b602002015182602001516009836111159190613ca3565b6004811061114c577f4e487b7100000000000000000000000000000000000000000000000000000000600052603260045260246000fd5b602002018181525050808061116090613df0565b9150506110bc565b5080600b611176600861167d565b602081106111ad577f4e487b7100000000000000000000000000000000000000000000000000000000600052603260045260246000fd5b600d02016000820151816000019060096111c892919061268e565b506020820151816009019060046111e09291906126ce565b509050506111ee600861168b565b6001915050919050565b611209611203611777565b83611838565b611248576040517f08c379a000000000000000000000000000000000000000000000000000000000815260040161123f9061393b565b60405180910390fd5b61125484848484611fa5565b50505050565b60606112658261170b565b6112a4576040517f08c379a000000000000000000000000000000000000000000000000000000000815260040161129b9061389b565b60405180910390fd5b60006006600084815260200190815260200160002080546112c490613d8d565b80601f01602080910402602001604051908101604052809291908181526020018280546112f090613d8d565b801561133d5780601f106113125761010080835404028352916020019161133d565b820191906000526020600020905b81548152906001019060200180831161132057829003601f168201915b50505050509050600061134e612001565b90506000815114156113645781925050506113a7565b6000825111156113995780826040516020016113819291906134b4565b604051602081830303815290604052925050506113a7565b6113a284612018565b925050505b919050565b6000600560008473ffffffffffffffffffffffffffffffffffffffff1673ffffffffffffffffffffffffffffffffffffffff16815260200190815260200160002060008373ffffffffffffffffffffffffffffffffffffffff1673ffffffffffffffffffffffffffffffffffffffff16815260200190815260200160002060009054906101000a900460ff16905092915050565b6000600960009054906101000a900473ffffffffffffffffffffffffffffffffffffffff1673ffffffffffffffffffffffffffffffffffffffff1663f143a75e868686866040518563ffffffff1660e01b81526004016114a394939291906135ff565b60206040518083038186803b1580156114bb57600080fd5b505afa1580156114cf573d6000803e3d6000fd5b505050506040513d601f19601f820116820180604052508101906114f39190612cb0565b9050949350505050565b61150561270e565b61150d612731565b60008084101580156115275750611524600861167d565b84105b611566576040517f08c379a000000000000000000000000000000000000000000000000000000000815260040161155d9061391b565b60405180910390fd5b600b84602081106115a0577f4e487b7100000000000000000000000000000000000000000000000000000000600052603260045260246000fd5b600d0201600001600b85602081106115e1577f4e487b7100000000000000000000000000000000000000000000000000000000600052603260045260246000fd5b600d02016009016115f2600861167d565b8260098060200260405190810160405280929190826009801561162a576020028201915b815481526020019060010190808311611616575b5050505050925081600480602002604051908101604052809291908260048015611669576020028201915b815481526020019060010190808311611655575b505050505091509250925092509193909250565b600081600001549050919050565b6001816000016000828254019250508190555050565b60007f01ffc9a7000000000000000000000000000000000000000000000000000000007bffffffffffffffffffffffffffffffffffffffffffffffffffffffff1916827bffffffffffffffffffffffffffffffffffffffffffffffffffffffff1916149050919050565b60008073ffffffffffffffffffffffffffffffffffffffff166002600084815260200190815260200160002060009054906101000a900473ffffffffffffffffffffffffffffffffffffffff1673ffffffffffffffffffffffffffffffffffffffff1614159050919050565b600033905090565b816004600083815260200190815260200160002060006101000a81548173ffffffffffffffffffffffffffffffffffffffff021916908373ffffffffffffffffffffffffffffffffffffffff160217905550808273ffffffffffffffffffffffffffffffffffffffff166117f283610a24565b73ffffffffffffffffffffffffffffffffffffffff167f8c5be1e5ebec7d5bd14f71427d1e84f3dd0314c0f7b2291e5b200ac8c7c3b92560405160405180910390a45050565b60006118438261170b565b611882576040517f08c379a0000000000000000000000000000000000000000000000000000000008152600401611879906137bb565b60405180910390fd5b600061188d83610a24565b90508073ffffffffffffffffffffffffffffffffffffffff168473ffffffffffffffffffffffffffffffffffffffff1614806118fc57508373ffffffffffffffffffffffffffffffffffffffff166118e484610646565b73ffffffffffffffffffffffffffffffffffffffff16145b8061190d575061190c81856113ac565b5b91505092915050565b8273ffffffffffffffffffffffffffffffffffffffff1661193682610a24565b73ffffffffffffffffffffffffffffffffffffffff161461198c576040517f08c379a00000000000000000000000000000000000000000000000000000000081526004016119839061373b565b60405180910390fd5b600073ffffffffffffffffffffffffffffffffffffffff168273ffffffffffffffffffffffffffffffffffffffff1614156119fc576040517f08c379a00000000000000000000000000000000000000000000000000000000081526004016119f39061377b565b60405180910390fd5b611a078383836120bf565b611a1260008261177f565b6001600360008573ffffffffffffffffffffffffffffffffffffffff1673ffffffffffffffffffffffffffffffffffffffff1681526020019081526020016000206000828254611a629190613ca3565b925050819055506001600360008473ffffffffffffffffffffffffffffffffffffffff1673ffffffffffffffffffffffffffffffffffffffff1681526020019081526020016000206000828254611ab99190613bc2565b92505081905550816002600083815260200190815260200160002060006101000a81548173ffffffffffffffffffffffffffffffffffffffff021916908373ffffffffffffffffffffffffffffffffffffffff160217905550808273ffffffffffffffffffffffffffffffffffffffff168473ffffffffffffffffffffffffffffffffffffffff167fddf252ad1be2c89b69c2b068fc378daa952ba7f163c4a11628f55a4df523b3ef60405160405180910390a4611b788383836120c4565b505050565b6060600082511415611ba057604051806020016040528060008152509050611d02565b60006040518060600160405280604081526020016146766040913990506000600360028551611bcf9190613bc2565b611bd99190613c18565b6004611be59190613c49565b67ffffffffffffffff811115611c24577f4e487b7100000000000000000000000000000000000000000000000000000000600052604160045260246000fd5b6040519080825280601f01601f191660200182016040528015611c565781602001600182028036833780820191505090505b509050600182016020820185865187015b80821015611cc2576003820191508151603f8160121c168501518453600184019350603f81600c1c168501518453600184019350603f8160061c168501518453600184019350603f8116850151845360018401935050611c67565b5050600386510660018114611cde5760028114611cf157611cf9565b603d6001830353603d6002830353611cf9565b603d60018303535b50505080925050505b919050565b611d218282604051806020016040528060008152506120c9565b5050565b611d2e8261170b565b611d6d576040517f08c379a0000000000000000000000000000000000000000000000000000000008152600401611d649061385b565b60405180910390fd5b80600660008481526020019081526020016000209080519060200190611d94929190612753565b505050565b611e33838383604051602401611db1939291906136bd565b6040516020818303038152906040527fe3849f79000000000000000000000000000000000000000000000000000000007bffffffffffffffffffffffffffffffffffffffffffffffffffffffff19166020820180517bffffffffffffffffffffffffffffffffffffffffffffffffffffffff8381831617835250505050612124565b505050565b8173ffffffffffffffffffffffffffffffffffffffff168373ffffffffffffffffffffffffffffffffffffffff161415611ea7576040517f08c379a0000000000000000000000000000000000000000000000000000000008152600401611e9e9061379b565b60405180910390fd5b80600560008573ffffffffffffffffffffffffffffffffffffffff1673ffffffffffffffffffffffffffffffffffffffff16815260200190815260200160002060008473ffffffffffffffffffffffffffffffffffffffff1673ffffffffffffffffffffffffffffffffffffffff16815260200190815260200160002060006101000a81548160ff0219169083151502179055508173ffffffffffffffffffffffffffffffffffffffff168373ffffffffffffffffffffffffffffffffffffffff167f17307eab39ab6107e8899845ad3d59bd9653f200f220920489ca2b5937696c3183604051611f989190613680565b60405180910390a3505050565b611fb0848484611916565b611fbc8484848461214d565b611ffb576040517f08c379a0000000000000000000000000000000000000000000000000000000008152600401611ff29061371b565b60405180910390fd5b50505050565b606060405180602001604052806000815250905090565b60606120238261170b565b612062576040517f08c379a0000000000000000000000000000000000000000000000000000000008152600401612059906138db565b60405180910390fd5b600061206c612001565b9050600081511161208c57604051806020016040528060008152506120b7565b80612096846122e4565b6040516020016120a79291906134b4565b6040516020818303038152906040525b915050919050565b505050565b505050565b6120d38383612491565b6120e0600084848461214d565b61211f576040517f08c379a00000000000000000000000000000000000000000000000000000000081526004016121169061371b565b60405180910390fd5b505050565b60008151905060006a636f6e736f6c652e6c6f679050602083016000808483855afa5050505050565b600061216e8473ffffffffffffffffffffffffffffffffffffffff1661266b565b156122d7578373ffffffffffffffffffffffffffffffffffffffff1663150b7a02612197611777565b8786866040518563ffffffff1660e01b81526004016121b994939291906135b3565b602060405180830381600087803b1580156121d357600080fd5b505af192505050801561220457506040513d601f19601f820116820180604052508101906122019190612d02565b60015b612287573d8060008114612234576040519150601f19603f3d011682016040523d82523d6000602084013e612239565b606091505b5060008151141561227f576040517f08c379a00000000000000000000000000000000000000000000000000000000081526004016122769061371b565b60405180910390fd5b805181602001fd5b63150b7a0260e01b7bffffffffffffffffffffffffffffffffffffffffffffffffffffffff1916817bffffffffffffffffffffffffffffffffffffffffffffffffffffffff1916149150506122dc565b600190505b949350505050565b6060600082141561232c576040518060400160405280600181526020017f3000000000000000000000000000000000000000000000000000000000000000815250905061248c565b600082905060005b6000821461235e57808061234790613df0565b915050600a826123579190613c18565b9150612334565b60008167ffffffffffffffff8111156123a0577f4e487b7100000000000000000000000000000000000000000000000000000000600052604160045260246000fd5b6040519080825280601f01601f1916602001820160405280156123d25781602001600182028036833780820191505090505b5090505b60008514612485576001826123eb9190613ca3565b9150600a856123fa9190613e43565b60306124069190613bc2565b60f81b818381518110612442577f4e487b7100000000000000000000000000000000000000000000000000000000600052603260045260246000fd5b60200101907effffffffffffffffffffffffffffffffffffffffffffffffffffffffffffff1916908160001a905350600a8561247e9190613c18565b94506123d6565b8093505050505b919050565b600073ffffffffffffffffffffffffffffffffffffffff168273ffffffffffffffffffffffffffffffffffffffff161415612501576040517f08c379a00000000000000000000000000000000000000000000000000000000081526004016124f89061387b565b60405180910390fd5b61250a8161170b565b1561254a576040517f08c379a00000000000000000000000000000000000000000000000000000000081526004016125419061375b565b60405180910390fd5b612556600083836120bf565b6001600360008473ffffffffffffffffffffffffffffffffffffffff1673ffffffffffffffffffffffffffffffffffffffff16815260200190815260200160002060008282546125a69190613bc2565b92505081905550816002600083815260200190815260200160002060006101000a81548173ffffffffffffffffffffffffffffffffffffffff021916908373ffffffffffffffffffffffffffffffffffffffff160217905550808273ffffffffffffffffffffffffffffffffffffffff16600073ffffffffffffffffffffffffffffffffffffffff167fddf252ad1be2c89b69c2b068fc378daa952ba7f163c4a11628f55a4df523b3ef60405160405180910390a4612667600083836120c4565b5050565b6000808273ffffffffffffffffffffffffffffffffffffffff163b119050919050565b82600981019282156126bd579160200282015b828111156126bc5782518255916020019190600101906126a1565b5b5090506126ca91906127d9565b5090565b82600481019282156126fd579160200282015b828111156126fc5782518255916020019190600101906126e1565b5b50905061270a91906127d9565b5090565b604051806101200160405280600990602082028036833780820191505090505090565b6040518060800160405280600490602082028036833780820191505090505090565b82805461275f90613d8d565b90600052602060002090601f01602090048101928261278157600085556127c8565b82601f1061279a57805160ff19168380011785556127c8565b828001600101855582156127c8579182015b828111156127c75782518255916020019190600101906127ac565b5b5090506127d591906127d9565b5090565b5b808211156127f25760008160009055506001016127da565b5090565b6000612809612804846139db565b6139b6565b9050808285604086028201111561281f57600080fd5b60005b8581101561284f578161283588826129c0565b845260208401935060408301925050600181019050612822565b5050509392505050565b600061286c61286784613a01565b6139b6565b9050808285602086028201111561288257600080fd5b60005b858110156128b257816128988882612a65565b845260208401935060208301925050600181019050612885565b5050509392505050565b60006128cf6128ca84613a27565b6139b6565b905080828560208602820111156128e557600080fd5b60005b8581101561291557816128fb8882612a65565b8452602084019350602083019250506001810190506128e8565b5050509392505050565b600061293261292d84613a4d565b6139b6565b90508281526020810184848401111561294a57600080fd5b612955848285613d4b565b509392505050565b60008135905061296c816145f4565b92915050565b600082601f83011261298357600080fd5b60026129908482856127f6565b91505092915050565b600082601f8301126129aa57600080fd5b600d6129b7848285612859565b91505092915050565b600082601f8301126129d157600080fd5b60026129de8482856128bc565b91505092915050565b6000813590506129f68161460b565b92915050565b600081519050612a0b8161460b565b92915050565b600081359050612a2081614622565b92915050565b600081519050612a3581614622565b92915050565b600082601f830112612a4c57600080fd5b8135612a5c84826020860161291f565b91505092915050565b600081359050612a7481614639565b92915050565b600060208284031215612a8c57600080fd5b6000612a9a8482850161295d565b91505092915050565b60008060408385031215612ab657600080fd5b6000612ac48582860161295d565b9250506020612ad58582860161295d565b9150509250929050565b600080600060608486031215612af457600080fd5b6000612b028682870161295d565b9350506020612b138682870161295d565b9250506040612b2486828701612a65565b9150509250925092565b60008060008060808587031215612b4457600080fd5b6000612b528782880161295d565b9450506020612b638782880161295d565b9350506040612b7487828801612a65565b925050606085013567ffffffffffffffff811115612b9157600080fd5b612b9d87828801612a3b565b91505092959194509250565b60008060408385031215612bbc57600080fd5b6000612bca8582860161295d565b9250506020612bdb858286016129e7565b9150509250929050565b60008060408385031215612bf857600080fd5b6000612c068582860161295d565b9250506020612c1785828601612a65565b9150509250929050565b60006101a08284031215612c3457600080fd5b6000612c4284828501612999565b91505092915050565b6000806000806102a08587031215612c6257600080fd5b6000612c70878288016129c0565b9450506040612c8187828801612972565b93505060c0612c92878288016129c0565b925050610100612ca487828801612999565b91505092959194509250565b600060208284031215612cc257600080fd5b6000612cd0848285016129fc565b91505092915050565b600060208284031215612ceb57600080fd5b6000612cf984828501612a11565b91505092915050565b600060208284031215612d1457600080fd5b6000612d2284828501612a26565b91505092915050565b600060208284031215612d3d57600080fd5b6000612d4b84828501612a65565b91505092915050565b6000612d608383612e41565b60408301905092915050565b6000612d78838361347f565b60208301905092915050565b612d8d81613cd7565b82525050565b612d9c81613ac5565b612da68184613b53565b9250612db182613a7e565b8060005b83811015612de2578151612dc98782612d54565b9650612dd483613b12565b925050600181019050612db5565b505050505050565b612df381613ad0565b612dfd8184613b5e565b9250612e0882613a88565b8060005b83811015612e39578151612e208782612d6c565b9650612e2b83613b1f565b925050600181019050612e0c565b505050505050565b612e4a81613adb565b612e548184613b69565b9250612e5f82613a92565b8060005b83811015612e90578151612e778782612d6c565b9650612e8283613b2c565b925050600181019050612e63565b505050505050565b612ea181613adb565b612eab8184613b74565b9250612eb682613a92565b8060005b83811015612ee7578151612ece8782612d6c565b9650612ed983613b2c565b925050600181019050612eba565b505050505050565b612ef881613ae6565b612f028184613b7f565b9250612f0d82613a9c565b8060005b83811015612f3e578151612f258782612d6c565b9650612f3083613b39565b925050600181019050612f11565b505050505050565b612f4f81613af1565b612f598184613b8a565b9250612f6482613aa6565b8060005b83811015612f95578151612f7c8782612d6c565b9650612f8783613b46565b925050600181019050612f68565b505050505050565b612fa681613ce9565b82525050565b6000612fb782613afc565b612fc18185613b95565b9350612fd1818560208601613d5a565b612fda81613f30565b840191505092915050565b6000612ff082613b07565b612ffa8185613ba6565b935061300a818560208601613d5a565b61301381613f30565b840191505092915050565b600061302982613b07565b6130338185613bb7565b9350613043818560208601613d5a565b80840191505092915050565b6000815461305c81613d8d565b6130668186613bb7565b945060018216600081146130815760018114613092576130c5565b60ff198316865281860193506130c5565b61309b85613ab0565b60005b838110156130bd5781548189015260018201915060208101905061309e565b838801955050505b50505092915050565b60006130db601583613ba6565b91506130e682613f41565b602082019050919050565b60006130fe603283613ba6565b915061310982613f6a565b604082019050919050565b6000613121602583613ba6565b915061312c82613fb9565b604082019050919050565b6000613144601c83613ba6565b915061314f82614008565b602082019050919050565b6000613167601c83613bb7565b915061317282614031565b601c82019050919050565b600061318a602483613ba6565b91506131958261405a565b604082019050919050565b60006131ad601983613ba6565b91506131b8826140a9565b602082019050919050565b60006131d0607b83613bb7565b91506131db826140d2565b607b82019050919050565b60006131f3602c83613ba6565b91506131fe8261416d565b604082019050919050565b6000613216601f83613ba6565b9150613221826141bc565b602082019050919050565b6000613239603883613ba6565b9150613244826141e5565b604082019050919050565b600061325c602a83613ba6565b915061326782614234565b604082019050919050565b600061327f602983613ba6565b915061328a82614283565b604082019050919050565b60006132a2602e83613ba6565b91506132ad826142d2565b604082019050919050565b60006132c5600283613bb7565b91506132d082614321565b600282019050919050565b60006132e8602083613ba6565b91506132f38261434a565b602082019050919050565b600061330b603183613ba6565b915061331682614373565b604082019050919050565b600061332e602c83613ba6565b9150613339826143c2565b604082019050919050565b6000613351600d83613bb7565b915061335c82614411565b600d82019050919050565b6000613374602f83613ba6565b915061337f8261443a565b604082019050919050565b6000613397600a83613bb7565b91506133a282614489565b600a82019050919050565b60006133ba602183613ba6565b91506133c5826144b2565b604082019050919050565b60006133dd601d83613bb7565b91506133e882614501565b601d82019050919050565b6000613400601b83613ba6565b915061340b8261452a565b602082019050919050565b6000613423603183613ba6565b915061342e82614553565b604082019050919050565b6000613446601b83613ba6565b9150613451826145a2565b602082019050919050565b6000613469601583613ba6565b9150613474826145cb565b602082019050919050565b61348881613d41565b82525050565b61349781613d41565b82525050565b6134ae6134a982613d41565b613e39565b82525050565b60006134c0828561301e565b91506134cc828461301e565b91508190509392505050565b60006134e4828561304f565b91506134ef8261315a565b91506134fb828461304f565b91508190509392505050565b60006135128261338a565b915061351d82613344565b9150613528826131c3565b9150613534828461301e565b915061353f826132b8565b915081905092915050565b6000613555826133d0565b9150613561828461301e565b915081905092915050565b6000613578828561349d565b602082019150613588828461349d565b6020820191508190509392505050565b60006020820190506135ad6000830184612d84565b92915050565b60006080820190506135c86000830187612d84565b6135d56020830186612d84565b6135e2604083018561348e565b81810360608301526135f48184612fac565b905095945050505050565b60006102a0820190506136156000830187612e98565b6136226040830186612d93565b61362f60c0830185612e98565b61363d610100830184612dea565b95945050505050565b60006101c08201905061365c6000830186612f46565b61366a610120830185612eef565b6136786101a083018461348e565b949350505050565b60006020820190506136956000830184612f9d565b92915050565b600060208201905081810360008301526136b58184612fe5565b905092915050565b600060608201905081810360008301526136d78186612fe5565b90506136e6602083018561348e565b6136f36040830184612d84565b949350505050565b60006020820190508181036000830152613714816130ce565b9050919050565b60006020820190508181036000830152613734816130f1565b9050919050565b6000602082019050818103600083015261375481613114565b9050919050565b6000602082019050818103600083015261377481613137565b9050919050565b600060208201905081810360008301526137948161317d565b9050919050565b600060208201905081810360008301526137b4816131a0565b9050919050565b600060208201905081810360008301526137d4816131e6565b9050919050565b600060208201905081810360008301526137f481613209565b9050919050565b600060208201905081810360008301526138148161322c565b9050919050565b600060208201905081810360008301526138348161324f565b9050919050565b6000602082019050818103600083015261385481613272565b9050919050565b6000602082019050818103600083015261387481613295565b9050919050565b60006020820190508181036000830152613894816132db565b9050919050565b600060208201905081810360008301526138b4816132fe565b9050919050565b600060208201905081810360008301526138d481613321565b9050919050565b600060208201905081810360008301526138f481613367565b9050919050565b60006020820190508181036000830152613914816133ad565b9050919050565b60006020820190508181036000830152613934816133f3565b9050919050565b6000602082019050818103600083015261395481613416565b9050919050565b6000602082019050818103600083015261397481613439565b9050919050565b600060208201905081810360008301526139948161345c565b9050919050565b60006020820190506139b0600083018461348e565b92915050565b60006139c06139d1565b90506139cc8282613dbf565b919050565b6000604051905090565b600067ffffffffffffffff8211156139f6576139f5613f01565b5b602082029050919050565b600067ffffffffffffffff821115613a1c57613a1b613f01565b5b602082029050919050565b600067ffffffffffffffff821115613a4257613a41613f01565b5b602082029050919050565b600067ffffffffffffffff821115613a6857613a67613f01565b5b613a7182613f30565b9050602081019050919050565b6000819050919050565b6000819050919050565b6000819050919050565b6000819050919050565b6000819050919050565b60008190508160005260206000209050919050565b600060029050919050565b6000600d9050919050565b600060029050919050565b600060049050919050565b600060099050919050565b600081519050919050565b600081519050919050565b6000602082019050919050565b6000602082019050919050565b6000602082019050919050565b6000602082019050919050565b6000602082019050919050565b600081905092915050565b600081905092915050565b600081905092915050565b600081905092915050565b600081905092915050565b600081905092915050565b600082825260208201905092915050565b600082825260208201905092915050565b600081905092915050565b6000613bcd82613d41565b9150613bd883613d41565b9250827fffffffffffffffffffffffffffffffffffffffffffffffffffffffffffffffff03821115613c0d57613c0c613e74565b5b828201905092915050565b6000613c2382613d41565b9150613c2e83613d41565b925082613c3e57613c3d613ea3565b5b828204905092915050565b6000613c5482613d41565b9150613c5f83613d41565b9250817fffffffffffffffffffffffffffffffffffffffffffffffffffffffffffffffff0483118215151615613c9857613c97613e74565b5b828202905092915050565b6000613cae82613d41565b9150613cb983613d41565b925082821015613ccc57613ccb613e74565b5b828203905092915050565b6000613ce282613d21565b9050919050565b60008115159050919050565b60007fffffffff0000000000000000000000000000000000000000000000000000000082169050919050565b600073ffffffffffffffffffffffffffffffffffffffff82169050919050565b6000819050919050565b82818337600083830152505050565b60005b83811015613d78578082015181840152602081019050613d5d565b83811115613d87576000848401525b50505050565b60006002820490506001821680613da557607f821691505b60208210811415613db957613db8613ed2565b5b50919050565b613dc882613f30565b810181811067ffffffffffffffff82111715613de757613de6613f01565b5b80604052505050565b6000613dfb82613d41565b91507fffffffffffffffffffffffffffffffffffffffffffffffffffffffffffffffff821415613e2e57613e2d613e74565b5b600182019050919050565b6000819050919050565b6000613e4e82613d41565b9150613e5983613d41565b925082613e6957613e68613ea3565b5b828206905092915050565b7f4e487b7100000000000000000000000000000000000000000000000000000000600052601160045260246000fd5b7f4e487b7100000000000000000000000000000000000000000000000000000000600052601260045260246000fd5b7f4e487b7100000000000000000000000000000000000000000000000000000000600052602260045260246000fd5b7f4e487b7100000000000000000000000000000000000000000000000000000000600052604160045260246000fd5b6000601f19601f8301169050919050565b7f4572726f723a20556e6b6e6f776e2053756a696b6f0000000000000000000000600082015250565b7f4552433732313a207472616e7366657220746f206e6f6e20455243373231526560008201527f63656976657220696d706c656d656e7465720000000000000000000000000000602082015250565b7f4552433732313a207472616e736665722066726f6d20696e636f72726563742060008201527f6f776e6572000000000000000000000000000000000000000000000000000000602082015250565b7f4552433732313a20746f6b656e20616c7265616479206d696e74656400000000600082015250565b7f5468616e6b7320666f722074686520636f6e747269627574696f6e2100000000600082015250565b7f4552433732313a207472616e7366657220746f20746865207a65726f2061646460008201527f7265737300000000000000000000000000000000000000000000000000000000602082015250565b7f4552433732313a20617070726f766520746f2063616c6c657200000000000000600082015250565b7f222c20226465736372697074696f6e223a202254686973204e4654206365727460008201527f6966696573207468617420796f75206861766520636f6e74726962757465642060208201527f7769746820796f7572206f776e2053756a696b6f222c2022696d616765223a2060408201527f22646174613a696d6167652f7376672b786d6c3b6261736536342c0000000000606082015250565b7f4552433732313a206f70657261746f7220717565727920666f72206e6f6e657860008201527f697374656e7420746f6b656e0000000000000000000000000000000000000000602082015250565b7f4572726f723a2052656163686564206c696d6974206f662073756a696b6f7300600082015250565b7f4552433732313a20617070726f76652063616c6c6572206973206e6f74206f7760008201527f6e6572206e6f7220617070726f76656420666f7220616c6c0000000000000000602082015250565b7f4552433732313a2062616c616e636520717565727920666f7220746865207a6560008201527f726f206164647265737300000000000000000000000000000000000000000000602082015250565b7f4552433732313a206f776e657220717565727920666f72206e6f6e657869737460008201527f656e7420746f6b656e0000000000000000000000000000000000000000000000602082015250565b7f45524337323155524953746f726167653a2055524920736574206f66206e6f6e60008201527f6578697374656e7420746f6b656e000000000000000000000000000000000000602082015250565b7f227d000000000000000000000000000000000000000000000000000000000000600082015250565b7f4552433732313a206d696e7420746f20746865207a65726f2061646472657373600082015250565b7f45524337323155524953746f726167653a2055524920717565727920666f722060008201527f6e6f6e6578697374656e7420746f6b656e000000000000000000000000000000602082015250565b7f4552433732313a20617070726f76656420717565727920666f72206e6f6e657860008201527f697374656e7420746f6b656e0000000000000000000000000000000000000000602082015250565b7f53756a696b6f20536f6c76656400000000000000000000000000000000000000600082015250565b7f4552433732314d657461646174613a2055524920717565727920666f72206e6f60008201527f6e6578697374656e7420746f6b656e0000000000000000000000000000000000602082015250565b7f7b226e616d65223a202200000000000000000000000000000000000000000000600082015250565b7f4552433732313a20617070726f76616c20746f2063757272656e74206f776e6560008201527f7200000000000000000000000000000000000000000000000000000000000000602082015250565b7f646174613a6170706c69636174696f6e2f6a736f6e3b6261736536342c000000600082015250565b7f4572726f723a20496e76616c69642073756a696b6f20696e6465780000000000600082015250565b7f4552433732313a207472616e736665722063616c6c6572206973206e6f74206f60008201527f776e6572206e6f7220617070726f766564000000000000000000000000000000602082015250565b7f4572726f723a2053756a696b6f20616c72656164792065786973740000000000600082015250565b7f4572726f7220696e207665726966792070726f6f660000000000000000000000600082015250565b6145fd81613cd7565b811461460857600080fd5b50565b61461481613ce9565b811461461f57600080fd5b50565b61462b81613cf5565b811461463657600080fd5b50565b61464281613d41565b811461464d57600080fd5b5056fe416e204e465420772f20494420257320686173206265656e206d696e74656420746f2025734142434445464748494a4b4c4d4e4f505152535455565758595a6162636465666768696a6b6c6d6e6f707172737475767778797a303132333435363738392b2fa2646970667358221220b4c011300bb7b64b9491d0a98aeb9b252ba6f5bdaeda6f34106d5a3696305f1c64736f6c634300080400333c7376672077696474683d2234303022206865696768743d22343030222076696577426f783d2230203020343030203430302220786d6c6e733d22687474703a2f2f7777772e77332e6f72672f323030302f737667223e3c726563742077696474683d223130302522206865696768743d2231303025222f3e3c7465787420783d223530252220793d223530252220646f6d696e616e742d626173656c696e653d226d6964646c652220746578742d616e63686f723d226d6964646c6522207374796c653d2266696c6c3a236666663b666f6e742d66616d696c793a73616e733b666f6e742d73697a653a33307078223e",
  "linkReferences": {},
  "deployedLinkReferences": {}
}