{
  "_format": "hh-sol-artifact-1",
  "contractName": "Sujiko",
  "sourceName": "contracts/Sujiko.sol",
  "abi": [
    {
      "inputs": [
        {
          "internalType": "address",
          "name": "_verifierAddr",
          "type": "address"
        }
      ],
      "stateMutability": "nonpayable",
      "type": "constructor"
    },
    {
      "anonymous": false,
      "inputs": [
        {
          "indexed": true,
          "internalType": "address",
          "name": "owner",
          "type": "address"
        },
        {
          "indexed": true,
          "internalType": "address",
          "name": "approved",
          "type": "address"
        },
        {
          "indexed": true,
          "internalType": "uint256",
          "name": "tokenId",
          "type": "uint256"
        }
      ],
      "name": "Approval",
      "type": "event"
    },
    {
      "anonymous": false,
      "inputs": [
        {
          "indexed": true,
          "internalType": "address",
          "name": "owner",
          "type": "address"
        },
        {
          "indexed": true,
          "internalType": "address",
          "name": "operator",
          "type": "address"
        },
        {
          "indexed": false,
          "internalType": "bool",
          "name": "approved",
          "type": "bool"
        }
      ],
      "name": "ApprovalForAll",
      "type": "event"
    },
    {
      "anonymous": false,
      "inputs": [
        {
          "indexed": false,
          "internalType": "address",
          "name": "sender",
          "type": "address"
        },
        {
          "indexed": false,
          "internalType": "uint256",
          "name": "tokenId",
          "type": "uint256"
        }
      ],
      "name": "NewNFTMinted",
      "type": "event"
    },
    {
      "anonymous": false,
      "inputs": [
        {
          "indexed": true,
          "internalType": "address",
          "name": "from",
          "type": "address"
        },
        {
          "indexed": true,
          "internalType": "address",
          "name": "to",
          "type": "address"
        },
        {
          "indexed": true,
          "internalType": "uint256",
          "name": "tokenId",
          "type": "uint256"
        }
      ],
      "name": "Transfer",
      "type": "event"
    },
    {
      "inputs": [
        {
          "internalType": "address",
          "name": "to",
          "type": "address"
        },
        {
          "internalType": "uint256",
          "name": "tokenId",
          "type": "uint256"
        }
      ],
      "name": "approve",
      "outputs": [],
      "stateMutability": "nonpayable",
      "type": "function"
    },
    {
      "inputs": [
        {
          "internalType": "address",
          "name": "owner",
          "type": "address"
        }
      ],
      "name": "balanceOf",
      "outputs": [
        {
          "internalType": "uint256",
          "name": "",
          "type": "uint256"
        }
      ],
      "stateMutability": "view",
      "type": "function"
    },
    {
      "inputs": [
        {
          "internalType": "uint256[2]",
          "name": "a",
          "type": "uint256[2]"
        },
        {
          "internalType": "uint256[2][2]",
          "name": "b",
          "type": "uint256[2][2]"
        },
        {
          "internalType": "uint256[2]",
          "name": "c",
          "type": "uint256[2]"
        },
        {
          "internalType": "uint256[13]",
          "name": "input",
          "type": "uint256[13]"
        }
      ],
      "name": "contributeSujiko",
      "outputs": [
        {
          "internalType": "bool",
          "name": "",
          "type": "bool"
        }
      ],
      "stateMutability": "nonpayable",
      "type": "function"
    },
    {
      "inputs": [
        {
          "internalType": "uint256[13]",
          "name": "_sujiko",
          "type": "uint256[13]"
        }
      ],
      "name": "contributeWithBoard",
      "outputs": [
        {
          "internalType": "bool",
          "name": "",
          "type": "bool"
        }
      ],
      "stateMutability": "nonpayable",
      "type": "function"
    },
    {
      "inputs": [
        {
          "internalType": "uint256",
          "name": "tokenId",
          "type": "uint256"
        }
      ],
      "name": "getApproved",
      "outputs": [
        {
          "internalType": "address",
          "name": "",
          "type": "address"
        }
      ],
      "stateMutability": "view",
      "type": "function"
    },
    {
      "inputs": [
        {
          "internalType": "uint256",
          "name": "_i",
          "type": "uint256"
        }
      ],
      "name": "getNewBoard",
      "outputs": [
        {
          "internalType": "uint256[9]",
          "name": "",
          "type": "uint256[9]"
        },
        {
          "internalType": "uint256[4]",
          "name": "",
          "type": "uint256[4]"
        },
        {
          "internalType": "uint256",
          "name": "",
          "type": "uint256"
        }
      ],
      "stateMutability": "view",
      "type": "function"
    },
    {
      "inputs": [
        {
          "internalType": "address",
          "name": "owner",
          "type": "address"
        },
        {
          "internalType": "address",
          "name": "operator",
          "type": "address"
        }
      ],
      "name": "isApprovedForAll",
      "outputs": [
        {
          "internalType": "bool",
          "name": "",
          "type": "bool"
        }
      ],
      "stateMutability": "view",
      "type": "function"
    },
    {
      "inputs": [
        {
          "internalType": "uint256[13]",
          "name": "_sujiko",
          "type": "uint256[13]"
        }
      ],
      "name": "isNewSujiko",
      "outputs": [
        {
          "internalType": "bool",
          "name": "",
          "type": "bool"
        }
      ],
      "stateMutability": "view",
      "type": "function"
    },
    {
      "inputs": [],
      "name": "limitBoards",
      "outputs": [
        {
          "internalType": "uint256",
          "name": "",
          "type": "uint256"
        }
      ],
      "stateMutability": "view",
      "type": "function"
    },
    {
      "inputs": [
        {
          "internalType": "address",
          "name": "personAddress",
          "type": "address"
        }
      ],
      "name": "mintNFT",
      "outputs": [],
      "stateMutability": "nonpayable",
      "type": "function"
    },
    {
      "inputs": [],
      "name": "name",
      "outputs": [
        {
          "internalType": "string",
          "name": "",
          "type": "string"
        }
      ],
      "stateMutability": "view",
      "type": "function"
    },
    {
      "inputs": [
        {
          "internalType": "uint256",
          "name": "tokenId",
          "type": "uint256"
        }
      ],
      "name": "ownerOf",
      "outputs": [
        {
          "internalType": "address",
          "name": "",
          "type": "address"
        }
      ],
      "stateMutability": "view",
      "type": "function"
    },
    {
      "inputs": [],
      "name": "random",
      "outputs": [
        {
          "internalType": "uint256",
          "name": "",
          "type": "uint256"
        }
      ],
      "stateMutability": "view",
      "type": "function"
    },
    {
      "inputs": [
        {
          "internalType": "address",
          "name": "from",
          "type": "address"
        },
        {
          "internalType": "address",
          "name": "to",
          "type": "address"
        },
        {
          "internalType": "uint256",
          "name": "tokenId",
          "type": "uint256"
        }
      ],
      "name": "safeTransferFrom",
      "outputs": [],
      "stateMutability": "nonpayable",
      "type": "function"
    },
    {
      "inputs": [
        {
          "internalType": "address",
          "name": "from",
          "type": "address"
        },
        {
          "internalType": "address",
          "name": "to",
          "type": "address"
        },
        {
          "internalType": "uint256",
          "name": "tokenId",
          "type": "uint256"
        },
        {
          "internalType": "bytes",
          "name": "_data",
          "type": "bytes"
        }
      ],
      "name": "safeTransferFrom",
      "outputs": [],
      "stateMutability": "nonpayable",
      "type": "function"
    },
    {
      "inputs": [
        {
          "internalType": "address",
          "name": "operator",
          "type": "address"
        },
        {
          "internalType": "bool",
          "name": "approved",
          "type": "bool"
        }
      ],
      "name": "setApprovalForAll",
      "outputs": [],
      "stateMutability": "nonpayable",
      "type": "function"
    },
    {
      "inputs": [
        {
          "internalType": "bytes4",
          "name": "interfaceId",
          "type": "bytes4"
        }
      ],
      "name": "supportsInterface",
      "outputs": [
        {
          "internalType": "bool",
          "name": "",
          "type": "bool"
        }
      ],
      "stateMutability": "view",
      "type": "function"
    },
    {
      "inputs": [],
      "name": "symbol",
      "outputs": [
        {
          "internalType": "string",
          "name": "",
          "type": "string"
        }
      ],
      "stateMutability": "view",
      "type": "function"
    },
    {
      "inputs": [
        {
          "internalType": "uint256",
          "name": "tokenId",
          "type": "uint256"
        }
      ],
      "name": "tokenURI",
      "outputs": [
        {
          "internalType": "string",
          "name": "",
          "type": "string"
        }
      ],
      "stateMutability": "view",
      "type": "function"
    },
    {
      "inputs": [
        {
          "internalType": "address",
          "name": "from",
          "type": "address"
        },
        {
          "internalType": "address",
          "name": "to",
          "type": "address"
        },
        {
          "internalType": "uint256",
          "name": "tokenId",
          "type": "uint256"
        }
      ],
      "name": "transferFrom",
      "outputs": [],
      "stateMutability": "nonpayable",
      "type": "function"
    },
    {
      "inputs": [],
      "name": "verifierAddr",
      "outputs": [
        {
          "internalType": "address",
          "name": "",
          "type": "address"
        }
      ],
      "stateMutability": "view",
      "type": "function"
    },
    {
      "inputs": [
        {
          "internalType": "uint256[2]",
          "name": "a",
          "type": "uint256[2]"
        },
        {
          "internalType": "uint256[2][2]",
          "name": "b",
          "type": "uint256[2][2]"
        },
        {
          "internalType": "uint256[2]",
          "name": "c",
          "type": "uint256[2]"
        },
        {
          "internalType": "uint256[13]",
          "name": "input",
          "type": "uint256[13]"
        }
      ],
      "name": "verifyProof",
      "outputs": [
        {
          "internalType": "bool",
          "name": "",
          "type": "bool"
        }
      ],
      "stateMutability": "view",
      "type": "function"
    },
    {
      "inputs": [
        {
          "internalType": "uint256[2]",
          "name": "a",
          "type": "uint256[2]"
        },
        {
          "internalType": "uint256[2][2]",
          "name": "b",
          "type": "uint256[2][2]"
        },
        {
          "internalType": "uint256[2]",
          "name": "c",
          "type": "uint256[2]"
        },
        {
          "internalType": "uint256[13]",
          "name": "input",
          "type": "uint256[13]"
        }
      ],
      "name": "verifySujiko",
      "outputs": [
        {
          "internalType": "bool",
          "name": "",
          "type": "bool"
        }
      ],
      "stateMutability": "view",
      "type": "function"
    }
  ],
  "bytecode": "0x608060405260405180610120016040528060f1815260200162004d1760f191396101ab908051906020019062000037929190620002f2565b506040518060400160405280600d81526020017f3c2f746578743e3c2f7376673e000000000000000000000000000000000000008152506101ac908051906020019062000086929190620002f2565b503480156200009457600080fd5b5060405162004e0838038062004e088339818101604052810190620000ba919062000443565b6040518060400160405280600681526020017f53756a696b6f00000000000000000000000000000000000000000000000000008152506040518060400160405280600681526020017f53554a494b4f000000000000000000000000000000000000000000000000000081525081600090805190602001906200013e929190620002f2565b50806001908051906020019062000157929190620002f2565b50505080600960006101000a81548173ffffffffffffffffffffffffffffffffffffffff021916908373ffffffffffffffffffffffffffffffffffffffff1602179055506020600a8190555060405180604001604052806040518061012001604052806000815260200160008152602001600081526020016000815260200160008152602001600081526020016008815260200160008152602001600781525081526020016040518060800160405280600a815260200160158152602001601281526020016014815250815250600b6200023d6008620002ce60201b620016b61760201c565b6020811062000275577f4e487b7100000000000000000000000000000000000000000000000000000000600052603260045260246000fd5b600d02016000820151816000019060096200029292919062000383565b50602082015181600901906004620002ac929190620003c8565b50905050620002c76008620002dc60201b620016c41760201c565b5062000522565b600081600001549050919050565b6001816000016000828254019250508190555050565b8280546200030090620004a3565b90600052602060002090601f01602090048101928262000324576000855562000370565b82601f106200033f57805160ff191683800117855562000370565b8280016001018555821562000370579182015b828111156200036f57825182559160200191906001019062000352565b5b5090506200037f91906200040d565b5090565b8260098101928215620003b5579160200282015b82811115620003b457825182559160200191906001019062000397565b5b509050620003c491906200040d565b5090565b8260048101928215620003fa579160200282015b82811115620003f9578251825591602001919060010190620003dc565b5b5090506200040991906200040d565b5090565b5b80821115620004285760008160009055506001016200040e565b5090565b6000815190506200043d8162000508565b92915050565b6000602082840312156200045657600080fd5b600062000466848285016200042c565b91505092915050565b60006200047c8262000483565b9050919050565b600073ffffffffffffffffffffffffffffffffffffffff82169050919050565b60006002820490506001821680620004bc57607f821691505b60208210811415620004d357620004d2620004d9565b5b50919050565b7f4e487b7100000000000000000000000000000000000000000000000000000000600052602260045260246000fd5b62000513816200046f565b81146200051f57600080fd5b50565b6147e580620005326000396000f3fe608060405234801561001057600080fd5b506004361061014d5760003560e01c8063648ca8dd116100c3578063a22cb4651161007c578063a22cb465146103ec578063b88d4fde14610408578063c87b56dd14610424578063e985e9c514610454578063f143a75e14610484578063fde14d70146104b45761014d565b8063648ca8dd146102ee578063663ea2e21461031e57806370a082311461033c5780637d9715171461036c5780638bd3c9e11461039c57806395d89b41146103ce5761014d565b806338e7e8511161011557806338e7e851146102085780633f571ab41461023857806342842e0e1461026857806354ba0f27146102845780635ec01e4d146102a05780636352211e146102be5761014d565b806301ffc9a71461015257806306fdde0314610182578063081812fc146101a0578063095ea7b3146101d057806323b872dd146101ec575b600080fd5b61016c60048036038101906101679190612d12565b6104d2565b60405161017991906136e2565b60405180910390f35b61018a6105b4565b60405161019791906136fd565b60405180910390f35b6101ba60048036038101906101b59190612d64565b610646565b6040516101c791906135d1565b60405180910390f35b6101ea60048036038101906101e59190612c1e565b6106cb565b005b61020660048036038101906102019190612b18565b6107e3565b005b610222600480360381019061021d9190612c84565b610843565b60405161022f91906136e2565b60405180910390f35b610252600480360381019061024d9190612c5a565b6108e5565b60405161025f91906136e2565b60405180910390f35b610282600480360381019061027d9190612b18565b610ba0565b005b61029e60048036038101906102999190612ab3565b610bc0565b005b6102a8610cd1565b6040516102b591906139fd565b60405180910390f35b6102d860048036038101906102d39190612d64565b610d18565b6040516102e591906135d1565b60405180910390f35b61030860048036038101906103039190612c84565b610dca565b60405161031591906136e2565b60405180910390f35b610326610e7d565b60405161033391906135d1565b60405180910390f35b61035660048036038101906103519190612ab3565b610ea3565b60405161036391906139fd565b60405180910390f35b61038660048036038101906103819190612c5a565b610f5b565b60405161039391906136e2565b60405180910390f35b6103b660048036038101906103b19190612d64565b611183565b6040516103c5939291906136a8565b60405180910390f35b6103d6611303565b6040516103e391906136fd565b60405180910390f35b61040660048036038101906104019190612be2565b611395565b005b610422600480360381019061041d9190612b67565b6113ab565b005b61043e60048036038101906104399190612d64565b61140d565b60405161044b91906136fd565b60405180910390f35b61046e60048036038101906104699190612adc565b61155f565b60405161047b91906136e2565b60405180910390f35b61049e60048036038101906104999190612c84565b6115f3565b6040516104ab91906136e2565b60405180910390f35b6104bc6116b0565b6040516104c991906139fd565b60405180910390f35b60007f80ac58cd000000000000000000000000000000000000000000000000000000007bffffffffffffffffffffffffffffffffffffffffffffffffffffffff1916827bffffffffffffffffffffffffffffffffffffffffffffffffffffffff1916148061059d57507f5b5e139f000000000000000000000000000000000000000000000000000000007bffffffffffffffffffffffffffffffffffffffffffffffffffffffff1916827bffffffffffffffffffffffffffffffffffffffffffffffffffffffff1916145b806105ad57506105ac826116da565b5b9050919050565b6060600080546105c390613def565b80601f01602080910402602001604051908101604052809291908181526020018280546105ef90613def565b801561063c5780601f106106115761010080835404028352916020019161063c565b820191906000526020600020905b81548152906001019060200180831161061f57829003601f168201915b5050505050905090565b600061065182611744565b610690576040517f08c379a00000000000000000000000000000000000000000000000000000000081526004016106879061391d565b60405180910390fd5b6004600083815260200190815260200160002060009054906101000a900473ffffffffffffffffffffffffffffffffffffffff169050919050565b60006106d682610d18565b90508073ffffffffffffffffffffffffffffffffffffffff168373ffffffffffffffffffffffffffffffffffffffff161415610747576040517f08c379a000000000000000000000000000000000000000000000000000000000815260040161073e9061397d565b60405180910390fd5b8073ffffffffffffffffffffffffffffffffffffffff166107666117b0565b73ffffffffffffffffffffffffffffffffffffffff16148061079557506107948161078f6117b0565b61155f565b5b6107d4576040517f08c379a00000000000000000000000000000000000000000000000000000000081526004016107cb9061383d565b60405180910390fd5b6107de83836117b8565b505050565b6107f46107ee6117b0565b82611871565b610833576040517f08c379a000000000000000000000000000000000000000000000000000000000815260040161082a906139bd565b60405180910390fd5b61083e83838361194f565b505050565b6000610851858585856115f3565b610890576040517f08c379a0000000000000000000000000000000000000000000000000000000008152600401610887906139dd565b60405180910390fd5b61089982610f5b565b156108d9576040517f08c379a00000000000000000000000000000000000000000000000000000000081526004016108d09061399d565b60405180910390fd5b60019050949350505050565b6000600a546108f460086116b6565b10610934576040517f08c379a000000000000000000000000000000000000000000000000000000000815260040161092b906137bd565b60405180910390fd5b6000604051806040016040528060405180610120016040528060008152602001600081526020016000815260200160008152602001600081526020016000815260200160008152602001600081526020016000815250815260200160405180608001604052806000815260200160008152602001600081526020016000815250815250905060005b6009811015610a5c578381600d81106109fe577f4e487b7100000000000000000000000000000000000000000000000000000000600052603260045260246000fd5b602002015182600001518260098110610a40577f4e487b7100000000000000000000000000000000000000000000000000000000600052603260045260246000fd5b6020020181815250508080610a5490613e52565b9150506109bc565b506000600990505b600d811015610b10578381600d8110610aa6577f4e487b7100000000000000000000000000000000000000000000000000000000600052603260045260246000fd5b60200201518260200151600983610abd9190613d05565b60048110610af4577f4e487b7100000000000000000000000000000000000000000000000000000000600052603260045260246000fd5b6020020181815250508080610b0890613e52565b915050610a64565b5080600b610b1e60086116b6565b60208110610b55577f4e487b7100000000000000000000000000000000000000000000000000000000600052603260045260246000fd5b600d0201600082015181600001906009610b709291906126c7565b50602082015181600901906004610b88929190612707565b50905050610b9660086116c4565b6001915050919050565b610bbb838383604051806020016040528060008152506113ab565b505050565b6000610bcc60076116b6565b905060006101ab6101ac604051602001610be7929190613511565b60405160208183030381529060405290506000610c2a610c0683611bb6565b604051602001610c169190613540565b604051602081830303815290604052611bb6565b9050600081604051602001610c3f9190613583565b6040516020818303038152906040529050610c5a8585611d40565b610c648482611d5e565b610c6e60076116c4565b610c9160405180606001604052806025815260200161474b602591398587611dd2565b7f1c05098ed1ff38e6238d2b1b04b2c7977d4c94ce651bda6473f9dba8dbf01da03385604051610cc2929190613638565b60405180910390a15050505050565b6000610cdd60086116b6565b4244604051602001610cf09291906135a5565b6040516020818303038152906040528051906020012060001c610d139190613ea5565b905090565b6000806002600084815260200190815260200160002060009054906101000a900473ffffffffffffffffffffffffffffffffffffffff169050600073ffffffffffffffffffffffffffffffffffffffff168173ffffffffffffffffffffffffffffffffffffffff161415610dc1576040517f08c379a0000000000000000000000000000000000000000000000000000000008152600401610db89061389d565b60405180910390fd5b80915050919050565b6000610dd8858585856115f3565b610e17576040517f08c379a0000000000000000000000000000000000000000000000000000000008152600401610e0e906139dd565b60405180910390fd5b610e2082610f5b565b610e5f576040517f08c379a0000000000000000000000000000000000000000000000000000000008152600401610e569061385d565b60405180910390fd5b610e68826108e5565b610e7157600080fd5b60019050949350505050565b600960009054906101000a900473ffffffffffffffffffffffffffffffffffffffff1681565b60008073ffffffffffffffffffffffffffffffffffffffff168273ffffffffffffffffffffffffffffffffffffffff161415610f14576040517f08c379a0000000000000000000000000000000000000000000000000000000008152600401610f0b9061387d565b60405180910390fd5b600360008373ffffffffffffffffffffffffffffffffffffffff1673ffffffffffffffffffffffffffffffffffffffff168152602001908152602001600020549050919050565b600080610f6860086116b6565b905060005b818110156111775760006001905060005b600981101561105f5781801561104a57508581600d8110610fc8577f4e487b7100000000000000000000000000000000000000000000000000000000600052603260045260246000fd5b6020020151600b8460208110611007577f4e487b7100000000000000000000000000000000000000000000000000000000600052603260045260246000fd5b600d02016000018260098110611046577f4e487b7100000000000000000000000000000000000000000000000000000000600052603260045260246000fd5b0154145b9150808061105790613e52565b915050610f7e565b5060005b60048110156111505781801561113b5750858160096110829190613c24565b600d81106110b9577f4e487b7100000000000000000000000000000000000000000000000000000000600052603260045260246000fd5b6020020151600b84602081106110f8577f4e487b7100000000000000000000000000000000000000000000000000000000600052603260045260246000fd5b600d02016009018260048110611137577f4e487b7100000000000000000000000000000000000000000000000000000000600052603260045260246000fd5b0154145b9150808061114890613e52565b915050611063565b508015611163576000935050505061117e565b50808061116f90613e52565b915050610f6d565b5060019150505b919050565b61118b612747565b61119361276a565b60008084101580156111ad57506111aa60086116b6565b84105b6111ec576040517f08c379a00000000000000000000000000000000000000000000000000000000081526004016111e39061395d565b60405180910390fd5b600b8460208110611226577f4e487b7100000000000000000000000000000000000000000000000000000000600052603260045260246000fd5b600d0201600001600b8560208110611267577f4e487b7100000000000000000000000000000000000000000000000000000000600052603260045260246000fd5b600d020160090161127860086116b6565b826009806020026040519081016040528092919082600980156112b0576020028201915b81548152602001906001019080831161129c575b50505050509250816004806020026040519081016040528092919082600480156112ef576020028201915b8154815260200190600101908083116112db575b505050505091509250925092509193909250565b60606001805461131290613def565b80601f016020809104026020016040519081016040528092919081815260200182805461133e90613def565b801561138b5780601f106113605761010080835404028352916020019161138b565b820191906000526020600020905b81548152906001019060200180831161136e57829003601f168201915b5050505050905090565b6113a76113a06117b0565b8383611e71565b5050565b6113bc6113b66117b0565b83611871565b6113fb576040517f08c379a00000000000000000000000000000000000000000000000000000000081526004016113f2906139bd565b60405180910390fd5b61140784848484611fde565b50505050565b606061141882611744565b611457576040517f08c379a000000000000000000000000000000000000000000000000000000000815260040161144e906138fd565b60405180910390fd5b600060066000848152602001908152602001600020805461147790613def565b80601f01602080910402602001604051908101604052809291908181526020018280546114a390613def565b80156114f05780601f106114c5576101008083540402835291602001916114f0565b820191906000526020600020905b8154815290600101906020018083116114d357829003601f168201915b50505050509050600061150161203a565b905060008151141561151757819250505061155a565b60008251111561154c5780826040516020016115349291906134ed565b6040516020818303038152906040529250505061155a565b61155584612051565b925050505b919050565b6000600560008473ffffffffffffffffffffffffffffffffffffffff1673ffffffffffffffffffffffffffffffffffffffff16815260200190815260200160002060008373ffffffffffffffffffffffffffffffffffffffff1673ffffffffffffffffffffffffffffffffffffffff16815260200190815260200160002060009054906101000a900460ff16905092915050565b6000600960009054906101000a900473ffffffffffffffffffffffffffffffffffffffff1673ffffffffffffffffffffffffffffffffffffffff1663f143a75e868686866040518563ffffffff1660e01b81526004016116569493929190613661565b60206040518083038186803b15801561166e57600080fd5b505afa158015611682573d6000803e3d6000fd5b505050506040513d601f19601f820116820180604052508101906116a69190612ce9565b9050949350505050565b600a5481565b600081600001549050919050565b6001816000016000828254019250508190555050565b60007f01ffc9a7000000000000000000000000000000000000000000000000000000007bffffffffffffffffffffffffffffffffffffffffffffffffffffffff1916827bffffffffffffffffffffffffffffffffffffffffffffffffffffffff1916149050919050565b60008073ffffffffffffffffffffffffffffffffffffffff166002600084815260200190815260200160002060009054906101000a900473ffffffffffffffffffffffffffffffffffffffff1673ffffffffffffffffffffffffffffffffffffffff1614159050919050565b600033905090565b816004600083815260200190815260200160002060006101000a81548173ffffffffffffffffffffffffffffffffffffffff021916908373ffffffffffffffffffffffffffffffffffffffff160217905550808273ffffffffffffffffffffffffffffffffffffffff1661182b83610d18565b73ffffffffffffffffffffffffffffffffffffffff167f8c5be1e5ebec7d5bd14f71427d1e84f3dd0314c0f7b2291e5b200ac8c7c3b92560405160405180910390a45050565b600061187c82611744565b6118bb576040517f08c379a00000000000000000000000000000000000000000000000000000000081526004016118b29061381d565b60405180910390fd5b60006118c683610d18565b90508073ffffffffffffffffffffffffffffffffffffffff168473ffffffffffffffffffffffffffffffffffffffff16148061193557508373ffffffffffffffffffffffffffffffffffffffff1661191d84610646565b73ffffffffffffffffffffffffffffffffffffffff16145b806119465750611945818561155f565b5b91505092915050565b8273ffffffffffffffffffffffffffffffffffffffff1661196f82610d18565b73ffffffffffffffffffffffffffffffffffffffff16146119c5576040517f08c379a00000000000000000000000000000000000000000000000000000000081526004016119bc9061377d565b60405180910390fd5b600073ffffffffffffffffffffffffffffffffffffffff168273ffffffffffffffffffffffffffffffffffffffff161415611a35576040517f08c379a0000000000000000000000000000000000000000000000000000000008152600401611a2c906137dd565b60405180910390fd5b611a408383836120f8565b611a4b6000826117b8565b6001600360008573ffffffffffffffffffffffffffffffffffffffff1673ffffffffffffffffffffffffffffffffffffffff1681526020019081526020016000206000828254611a9b9190613d05565b925050819055506001600360008473ffffffffffffffffffffffffffffffffffffffff1673ffffffffffffffffffffffffffffffffffffffff1681526020019081526020016000206000828254611af29190613c24565b92505081905550816002600083815260200190815260200160002060006101000a81548173ffffffffffffffffffffffffffffffffffffffff021916908373ffffffffffffffffffffffffffffffffffffffff160217905550808273ffffffffffffffffffffffffffffffffffffffff168473ffffffffffffffffffffffffffffffffffffffff167fddf252ad1be2c89b69c2b068fc378daa952ba7f163c4a11628f55a4df523b3ef60405160405180910390a4611bb18383836120fd565b505050565b6060600082511415611bd957604051806020016040528060008152509050611d3b565b60006040518060600160405280604081526020016147706040913990506000600360028551611c089190613c24565b611c129190613c7a565b6004611c1e9190613cab565b67ffffffffffffffff811115611c5d577f4e487b7100000000000000000000000000000000000000000000000000000000600052604160045260246000fd5b6040519080825280601f01601f191660200182016040528015611c8f5781602001600182028036833780820191505090505b509050600182016020820185865187015b80821015611cfb576003820191508151603f8160121c168501518453600184019350603f81600c1c168501518453600184019350603f8160061c168501518453600184019350603f8116850151845360018401935050611ca0565b5050600386510660018114611d175760028114611d2a57611d32565b603d6001830353603d6002830353611d32565b603d60018303535b50505080925050505b919050565b611d5a828260405180602001604052806000815250612102565b5050565b611d6782611744565b611da6576040517f08c379a0000000000000000000000000000000000000000000000000000000008152600401611d9d906138bd565b60405180910390fd5b80600660008481526020019081526020016000209080519060200190611dcd92919061278c565b505050565b611e6c838383604051602401611dea9392919061371f565b6040516020818303038152906040527fe3849f79000000000000000000000000000000000000000000000000000000007bffffffffffffffffffffffffffffffffffffffffffffffffffffffff19166020820180517bffffffffffffffffffffffffffffffffffffffffffffffffffffffff838183161783525050505061215d565b505050565b8173ffffffffffffffffffffffffffffffffffffffff168373ffffffffffffffffffffffffffffffffffffffff161415611ee0576040517f08c379a0000000000000000000000000000000000000000000000000000000008152600401611ed7906137fd565b60405180910390fd5b80600560008573ffffffffffffffffffffffffffffffffffffffff1673ffffffffffffffffffffffffffffffffffffffff16815260200190815260200160002060008473ffffffffffffffffffffffffffffffffffffffff1673ffffffffffffffffffffffffffffffffffffffff16815260200190815260200160002060006101000a81548160ff0219169083151502179055508173ffffffffffffffffffffffffffffffffffffffff168373ffffffffffffffffffffffffffffffffffffffff167f17307eab39ab6107e8899845ad3d59bd9653f200f220920489ca2b5937696c3183604051611fd191906136e2565b60405180910390a3505050565b611fe984848461194f565b611ff584848484612186565b612034576040517f08c379a000000000000000000000000000000000000000000000000000000000815260040161202b9061375d565b60405180910390fd5b50505050565b606060405180602001604052806000815250905090565b606061205c82611744565b61209b576040517f08c379a00000000000000000000000000000000000000000000000000000000081526004016120929061393d565b60405180910390fd5b60006120a561203a565b905060008151116120c557604051806020016040528060008152506120f0565b806120cf8461231d565b6040516020016120e09291906134ed565b6040516020818303038152906040525b915050919050565b505050565b505050565b61210c83836124ca565b6121196000848484612186565b612158576040517f08c379a000000000000000000000000000000000000000000000000000000000815260040161214f9061375d565b60405180910390fd5b505050565b60008151905060006a636f6e736f6c652e6c6f679050602083016000808483855afa5050505050565b60006121a78473ffffffffffffffffffffffffffffffffffffffff166126a4565b15612310578373ffffffffffffffffffffffffffffffffffffffff1663150b7a026121d06117b0565b8786866040518563ffffffff1660e01b81526004016121f294939291906135ec565b602060405180830381600087803b15801561220c57600080fd5b505af192505050801561223d57506040513d601f19601f8201168201806040525081019061223a9190612d3b565b60015b6122c0573d806000811461226d576040519150601f19603f3d011682016040523d82523d6000602084013e612272565b606091505b506000815114156122b8576040517f08c379a00000000000000000000000000000000000000000000000000000000081526004016122af9061375d565b60405180910390fd5b805181602001fd5b63150b7a0260e01b7bffffffffffffffffffffffffffffffffffffffffffffffffffffffff1916817bffffffffffffffffffffffffffffffffffffffffffffffffffffffff191614915050612315565b600190505b949350505050565b60606000821415612365576040518060400160405280600181526020017f300000000000000000000000000000000000000000000000000000000000000081525090506124c5565b600082905060005b6000821461239757808061238090613e52565b915050600a826123909190613c7a565b915061236d565b60008167ffffffffffffffff8111156123d9577f4e487b7100000000000000000000000000000000000000000000000000000000600052604160045260246000fd5b6040519080825280601f01601f19166020018201604052801561240b5781602001600182028036833780820191505090505b5090505b600085146124be576001826124249190613d05565b9150600a856124339190613ea5565b603061243f9190613c24565b60f81b81838151811061247b577f4e487b7100000000000000000000000000000000000000000000000000000000600052603260045260246000fd5b60200101907effffffffffffffffffffffffffffffffffffffffffffffffffffffffffffff1916908160001a905350600a856124b79190613c7a565b945061240f565b8093505050505b919050565b600073ffffffffffffffffffffffffffffffffffffffff168273ffffffffffffffffffffffffffffffffffffffff16141561253a576040517f08c379a0000000000000000000000000000000000000000000000000000000008152600401612531906138dd565b60405180910390fd5b61254381611744565b15612583576040517f08c379a000000000000000000000000000000000000000000000000000000000815260040161257a9061379d565b60405180910390fd5b61258f600083836120f8565b6001600360008473ffffffffffffffffffffffffffffffffffffffff1673ffffffffffffffffffffffffffffffffffffffff16815260200190815260200160002060008282546125df9190613c24565b92505081905550816002600083815260200190815260200160002060006101000a81548173ffffffffffffffffffffffffffffffffffffffff021916908373ffffffffffffffffffffffffffffffffffffffff160217905550808273ffffffffffffffffffffffffffffffffffffffff16600073ffffffffffffffffffffffffffffffffffffffff167fddf252ad1be2c89b69c2b068fc378daa952ba7f163c4a11628f55a4df523b3ef60405160405180910390a46126a0600083836120fd565b5050565b6000808273ffffffffffffffffffffffffffffffffffffffff163b119050919050565b82600981019282156126f6579160200282015b828111156126f55782518255916020019190600101906126da565b5b5090506127039190612812565b5090565b8260048101928215612736579160200282015b8281111561273557825182559160200191906001019061271a565b5b5090506127439190612812565b5090565b604051806101200160405280600990602082028036833780820191505090505090565b6040518060800160405280600490602082028036833780820191505090505090565b82805461279890613def565b90600052602060002090601f0160209004810192826127ba5760008555612801565b82601f106127d357805160ff1916838001178555612801565b82800160010185558215612801579182015b828111156128005782518255916020019190600101906127e5565b5b50905061280e9190612812565b5090565b5b8082111561282b576000816000905550600101612813565b5090565b600061284261283d84613a3d565b613a18565b9050808285604086028201111561285857600080fd5b60005b85811015612888578161286e88826129f9565b84526020840193506040830192505060018101905061285b565b5050509392505050565b60006128a56128a084613a63565b613a18565b905080828560208602820111156128bb57600080fd5b60005b858110156128eb57816128d18882612a9e565b8452602084019350602083019250506001810190506128be565b5050509392505050565b600061290861290384613a89565b613a18565b9050808285602086028201111561291e57600080fd5b60005b8581101561294e57816129348882612a9e565b845260208401935060208301925050600181019050612921565b5050509392505050565b600061296b61296684613aaf565b613a18565b90508281526020810184848401111561298357600080fd5b61298e848285613dad565b509392505050565b6000813590506129a5816146ee565b92915050565b600082601f8301126129bc57600080fd5b60026129c984828561282f565b91505092915050565b600082601f8301126129e357600080fd5b600d6129f0848285612892565b91505092915050565b600082601f830112612a0a57600080fd5b6002612a178482856128f5565b91505092915050565b600081359050612a2f81614705565b92915050565b600081519050612a4481614705565b92915050565b600081359050612a598161471c565b92915050565b600081519050612a6e8161471c565b92915050565b600082601f830112612a8557600080fd5b8135612a95848260208601612958565b91505092915050565b600081359050612aad81614733565b92915050565b600060208284031215612ac557600080fd5b6000612ad384828501612996565b91505092915050565b60008060408385031215612aef57600080fd5b6000612afd85828601612996565b9250506020612b0e85828601612996565b9150509250929050565b600080600060608486031215612b2d57600080fd5b6000612b3b86828701612996565b9350506020612b4c86828701612996565b9250506040612b5d86828701612a9e565b9150509250925092565b60008060008060808587031215612b7d57600080fd5b6000612b8b87828801612996565b9450506020612b9c87828801612996565b9350506040612bad87828801612a9e565b925050606085013567ffffffffffffffff811115612bca57600080fd5b612bd687828801612a74565b91505092959194509250565b60008060408385031215612bf557600080fd5b6000612c0385828601612996565b9250506020612c1485828601612a20565b9150509250929050565b60008060408385031215612c3157600080fd5b6000612c3f85828601612996565b9250506020612c5085828601612a9e565b9150509250929050565b60006101a08284031215612c6d57600080fd5b6000612c7b848285016129d2565b91505092915050565b6000806000806102a08587031215612c9b57600080fd5b6000612ca9878288016129f9565b9450506040612cba878288016129ab565b93505060c0612ccb878288016129f9565b925050610100612cdd878288016129d2565b91505092959194509250565b600060208284031215612cfb57600080fd5b6000612d0984828501612a35565b91505092915050565b600060208284031215612d2457600080fd5b6000612d3284828501612a4a565b91505092915050565b600060208284031215612d4d57600080fd5b6000612d5b84828501612a5f565b91505092915050565b600060208284031215612d7657600080fd5b6000612d8484828501612a9e565b91505092915050565b6000612d998383612e7a565b60408301905092915050565b6000612db183836134b8565b60208301905092915050565b612dc681613d39565b82525050565b612dd581613b27565b612ddf8184613bb5565b9250612dea82613ae0565b8060005b83811015612e1b578151612e028782612d8d565b9650612e0d83613b74565b925050600181019050612dee565b505050505050565b612e2c81613b32565b612e368184613bc0565b9250612e4182613aea565b8060005b83811015612e72578151612e598782612da5565b9650612e6483613b81565b925050600181019050612e45565b505050505050565b612e8381613b3d565b612e8d8184613bcb565b9250612e9882613af4565b8060005b83811015612ec9578151612eb08782612da5565b9650612ebb83613b8e565b925050600181019050612e9c565b505050505050565b612eda81613b3d565b612ee48184613bd6565b9250612eef82613af4565b8060005b83811015612f20578151612f078782612da5565b9650612f1283613b8e565b925050600181019050612ef3565b505050505050565b612f3181613b48565b612f3b8184613be1565b9250612f4682613afe565b8060005b83811015612f77578151612f5e8782612da5565b9650612f6983613b9b565b925050600181019050612f4a565b505050505050565b612f8881613b53565b612f928184613bec565b9250612f9d82613b08565b8060005b83811015612fce578151612fb58782612da5565b9650612fc083613ba8565b925050600181019050612fa1565b505050505050565b612fdf81613d4b565b82525050565b6000612ff082613b5e565b612ffa8185613bf7565b935061300a818560208601613dbc565b61301381613f92565b840191505092915050565b600061302982613b69565b6130338185613c08565b9350613043818560208601613dbc565b61304c81613f92565b840191505092915050565b600061306282613b69565b61306c8185613c19565b935061307c818560208601613dbc565b80840191505092915050565b6000815461309581613def565b61309f8186613c19565b945060018216600081146130ba57600181146130cb576130fe565b60ff198316865281860193506130fe565b6130d485613b12565b60005b838110156130f6578154818901526001820191506020810190506130d7565b838801955050505b50505092915050565b6000613114603283613c08565b915061311f82613fa3565b604082019050919050565b6000613137602583613c08565b915061314282613ff2565b604082019050919050565b600061315a601c83613c08565b915061316582614041565b602082019050919050565b600061317d603f83613c08565b91506131888261406a565b604082019050919050565b60006131a0602483613c08565b91506131ab826140b9565b604082019050919050565b60006131c3601983613c08565b91506131ce82614108565b602082019050919050565b60006131e6602c83613c08565b91506131f182614131565b604082019050919050565b6000613209606b83613c19565b915061321482614180565b606b82019050919050565b600061322c603883613c08565b91506132378261421b565b604082019050919050565b600061324f602f83613c08565b915061325a8261426a565b604082019050919050565b6000613272602a83613c08565b915061327d826142b9565b604082019050919050565b6000613295602983613c08565b91506132a082614308565b604082019050919050565b60006132b8602e83613c08565b91506132c382614357565b604082019050919050565b60006132db603583613c19565b91506132e6826143a6565b603582019050919050565b60006132fe600283613c19565b9150613309826143f5565b600282019050919050565b6000613321602083613c08565b915061332c8261441e565b602082019050919050565b6000613344603183613c08565b915061334f82614447565b604082019050919050565b6000613367602c83613c08565b915061337282614496565b604082019050919050565b600061338a600d83613c19565b9150613395826144e5565b600d82019050919050565b60006133ad602f83613c08565b91506133b88261450e565b604082019050919050565b60006133d0601383613c08565b91506133db8261455d565b602082019050919050565b60006133f3600a83613c19565b91506133fe82614586565b600a82019050919050565b6000613416602183613c08565b9150613421826145af565b604082019050919050565b6000613439603483613c08565b9150613444826145fe565b604082019050919050565b600061345c601d83613c19565b91506134678261464d565b601d82019050919050565b600061347f603183613c08565b915061348a82614676565b604082019050919050565b60006134a2601583613c08565b91506134ad826146c5565b602082019050919050565b6134c181613da3565b82525050565b6134d081613da3565b82525050565b6134e76134e282613da3565b613e9b565b82525050565b60006134f98285613057565b91506135058284613057565b91508190509392505050565b600061351d8285613088565b9150613528826132ce565b91506135348284613088565b91508190509392505050565b600061354b826133e6565b91506135568261337d565b9150613561826131fc565b915061356d8284613057565b9150613578826132f1565b915081905092915050565b600061358e8261344f565b915061359a8284613057565b915081905092915050565b60006135b182856134d6565b6020820191506135c182846134d6565b6020820191508190509392505050565b60006020820190506135e66000830184612dbd565b92915050565b60006080820190506136016000830187612dbd565b61360e6020830186612dbd565b61361b60408301856134c7565b818103606083015261362d8184612fe5565b905095945050505050565b600060408201905061364d6000830185612dbd565b61365a60208301846134c7565b9392505050565b60006102a0820190506136776000830187612ed1565b6136846040830186612dcc565b61369160c0830185612ed1565b61369f610100830184612e23565b95945050505050565b60006101c0820190506136be6000830186612f7f565b6136cc610120830185612f28565b6136da6101a08301846134c7565b949350505050565b60006020820190506136f76000830184612fd6565b92915050565b60006020820190508181036000830152613717818461301e565b905092915050565b60006060820190508181036000830152613739818661301e565b905061374860208301856134c7565b6137556040830184612dbd565b949350505050565b6000602082019050818103600083015261377681613107565b9050919050565b600060208201905081810360008301526137968161312a565b9050919050565b600060208201905081810360008301526137b68161314d565b9050919050565b600060208201905081810360008301526137d681613170565b9050919050565b600060208201905081810360008301526137f681613193565b9050919050565b60006020820190508181036000830152613816816131b6565b9050919050565b60006020820190508181036000830152613836816131d9565b9050919050565b600060208201905081810360008301526138568161321f565b9050919050565b6000602082019050818103600083015261387681613242565b9050919050565b6000602082019050818103600083015261389681613265565b9050919050565b600060208201905081810360008301526138b681613288565b9050919050565b600060208201905081810360008301526138d6816132ab565b9050919050565b600060208201905081810360008301526138f681613314565b9050919050565b6000602082019050818103600083015261391681613337565b9050919050565b600060208201905081810360008301526139368161335a565b9050919050565b60006020820190508181036000830152613956816133a0565b9050919050565b60006020820190508181036000830152613976816133c3565b9050919050565b6000602082019050818103600083015261399681613409565b9050919050565b600060208201905081810360008301526139b68161342c565b9050919050565b600060208201905081810360008301526139d681613472565b9050919050565b600060208201905081810360008301526139f681613495565b9050919050565b6000602082019050613a1260008301846134c7565b92915050565b6000613a22613a33565b9050613a2e8282613e21565b919050565b6000604051905090565b600067ffffffffffffffff821115613a5857613a57613f63565b5b602082029050919050565b600067ffffffffffffffff821115613a7e57613a7d613f63565b5b602082029050919050565b600067ffffffffffffffff821115613aa457613aa3613f63565b5b602082029050919050565b600067ffffffffffffffff821115613aca57613ac9613f63565b5b613ad382613f92565b9050602081019050919050565b6000819050919050565b6000819050919050565b6000819050919050565b6000819050919050565b6000819050919050565b60008190508160005260206000209050919050565b600060029050919050565b6000600d9050919050565b600060029050919050565b600060049050919050565b600060099050919050565b600081519050919050565b600081519050919050565b6000602082019050919050565b6000602082019050919050565b6000602082019050919050565b6000602082019050919050565b6000602082019050919050565b600081905092915050565b600081905092915050565b600081905092915050565b600081905092915050565b600081905092915050565b600081905092915050565b600082825260208201905092915050565b600082825260208201905092915050565b600081905092915050565b6000613c2f82613da3565b9150613c3a83613da3565b9250827fffffffffffffffffffffffffffffffffffffffffffffffffffffffffffffffff03821115613c6f57613c6e613ed6565b5b828201905092915050565b6000613c8582613da3565b9150613c9083613da3565b925082613ca057613c9f613f05565b5b828204905092915050565b6000613cb682613da3565b9150613cc183613da3565b9250817fffffffffffffffffffffffffffffffffffffffffffffffffffffffffffffffff0483118215151615613cfa57613cf9613ed6565b5b828202905092915050565b6000613d1082613da3565b9150613d1b83613da3565b925082821015613d2e57613d2d613ed6565b5b828203905092915050565b6000613d4482613d83565b9050919050565b60008115159050919050565b60007fffffffff0000000000000000000000000000000000000000000000000000000082169050919050565b600073ffffffffffffffffffffffffffffffffffffffff82169050919050565b6000819050919050565b82818337600083830152505050565b60005b83811015613dda578082015181840152602081019050613dbf565b83811115613de9576000848401525b50505050565b60006002820490506001821680613e0757607f821691505b60208210811415613e1b57613e1a613f34565b5b50919050565b613e2a82613f92565b810181811067ffffffffffffffff82111715613e4957613e48613f63565b5b80604052505050565b6000613e5d82613da3565b91507fffffffffffffffffffffffffffffffffffffffffffffffffffffffffffffffff821415613e9057613e8f613ed6565b5b600182019050919050565b6000819050919050565b6000613eb082613da3565b9150613ebb83613da3565b925082613ecb57613eca613f05565b5b828206905092915050565b7f4e487b7100000000000000000000000000000000000000000000000000000000600052601160045260246000fd5b7f4e487b7100000000000000000000000000000000000000000000000000000000600052601260045260246000fd5b7f4e487b7100000000000000000000000000000000000000000000000000000000600052602260045260246000fd5b7f4e487b7100000000000000000000000000000000000000000000000000000000600052604160045260246000fd5b6000601f19601f8301169050919050565b7f4552433732313a207472616e7366657220746f206e6f6e20455243373231526560008201527f63656976657220696d706c656d656e7465720000000000000000000000000000602082015250565b7f4552433732313a207472616e736665722066726f6d20696e636f72726563742060008201527f6f776e6572000000000000000000000000000000000000000000000000000000602082015250565b7f4552433732313a20746f6b656e20616c7265616479206d696e74656400000000600082015250565b7f5468616e6b732c2062757420776527766520616c72656164792072656163686560008201527f6420746865206d6178696d756e206e756d626572206f662073756a696b6f7300602082015250565b7f4552433732313a207472616e7366657220746f20746865207a65726f2061646460008201527f7265737300000000000000000000000000000000000000000000000000000000602082015250565b7f4552433732313a20617070726f766520746f2063616c6c657200000000000000600082015250565b7f4552433732313a206f70657261746f7220717565727920666f72206e6f6e657860008201527f697374656e7420746f6b656e0000000000000000000000000000000000000000602082015250565b7f222c20226465736372697074696f6e223a202254686973204e4654206365727460008201527f6969657320796f75206861766520736f6c76656420612053756a696b6f20707560208201527f7a7a6c65222c2022696d616765223a2022646174613a696d6167652f7376672b60408201527f786d6c3b6261736536342c000000000000000000000000000000000000000000606082015250565b7f4552433732313a20617070726f76652063616c6c6572206973206e6f74206f7760008201527f6e6572206e6f7220617070726f76656420666f7220616c6c0000000000000000602082015250565b7f5468616e6b732c2062757420746861742073756a696b6f20686173206265656e60008201527f20616c72656164792061646465642e0000000000000000000000000000000000602082015250565b7f4552433732313a2062616c616e636520717565727920666f7220746865207a6560008201527f726f206164647265737300000000000000000000000000000000000000000000602082015250565b7f4552433732313a206f776e657220717565727920666f72206e6f6e657869737460008201527f656e7420746f6b656e0000000000000000000000000000000000000000000000602082015250565b7f45524337323155524953746f726167653a2055524920736574206f66206e6f6e60008201527f6578697374656e7420746f6b656e000000000000000000000000000000000000602082015250565b7f436f6e67726174756c6174696f6e732c20796f7520617265206120636572746960008201527f666965642053756a696b6f204368616d70696f6e210000000000000000000000602082015250565b7f227d000000000000000000000000000000000000000000000000000000000000600082015250565b7f4552433732313a206d696e7420746f20746865207a65726f2061646472657373600082015250565b7f45524337323155524953746f726167653a2055524920717565727920666f722060008201527f6e6f6e6578697374656e7420746f6b656e000000000000000000000000000000602082015250565b7f4552433732313a20617070726f76656420717565727920666f72206e6f6e657860008201527f697374656e7420746f6b656e0000000000000000000000000000000000000000602082015250565b7f53756a696b6f20536f6c76656400000000000000000000000000000000000000600082015250565b7f4552433732314d657461646174613a2055524920717565727920666f72206e6f60008201527f6e6578697374656e7420746f6b656e0000000000000000000000000000000000602082015250565b7f496e76616c696420626f61726420696e64657800000000000000000000000000600082015250565b7f7b226e616d65223a202200000000000000000000000000000000000000000000600082015250565b7f4552433732313a20617070726f76616c20746f2063757272656e74206f776e6560008201527f7200000000000000000000000000000000000000000000000000000000000000602082015250565b7f536f7272792c2062757420746869732073756a696b6f20646f6e742062656c6f60008201527f6e6720746f206f757220636f6c6c656374696f6e000000000000000000000000602082015250565b7f646174613a6170706c69636174696f6e2f6a736f6e3b6261736536342c000000600082015250565b7f4552433732313a207472616e736665722063616c6c6572206973206e6f74206f60008201527f776e6572206e6f7220617070726f766564000000000000000000000000000000602082015250565b7f4572726f7220696e207665726966792070726f6f660000000000000000000000600082015250565b6146f781613d39565b811461470257600080fd5b50565b61470e81613d4b565b811461471957600080fd5b50565b61472581613d57565b811461473057600080fd5b50565b61473c81613da3565b811461474757600080fd5b5056fe416e204e465420772f20494420257320686173206265656e206d696e74656420746f2025734142434445464748494a4b4c4d4e4f505152535455565758595a6162636465666768696a6b6c6d6e6f707172737475767778797a303132333435363738392b2fa2646970667358221220a2a19a78929f58809c66578d000e2795acdd72b08818bc97b2e7bbc2b38c6ef464736f6c634300080400333c7376672077696474683d2234303022206865696768743d22343030222076696577426f783d2230203020343030203430302220786d6c6e733d22687474703a2f2f7777772e77332e6f72672f323030302f737667223e3c726563742077696474683d223130302522206865696768743d2231303025222f3e3c7465787420783d223530252220793d223530252220646f6d696e616e742d626173656c696e653d226d6964646c652220746578742d616e63686f723d226d6964646c6522207374796c653d2266696c6c3a236666663b666f6e742d66616d696c793a73616e733b666f6e742d73697a653a33307078223e",
  "linkReferences": {},
  "deployedLinkReferences": {}
}