{
  "_format": "hh-sol-artifact-1",
  "contractName": "Sujiko62",
  "sourceName": "contracts/Sujiko62.sol",
  "abi": [
    {
      "inputs": [
        {
          "internalType": "address",
          "name": "_verifierAddr",
          "type": "address"
        }
      ],
      "stateMutability": "nonpayable",
      "type": "constructor"
    },
    {
      "anonymous": false,
      "inputs": [
        {
          "indexed": true,
          "internalType": "address",
          "name": "owner",
          "type": "address"
        },
        {
          "indexed": true,
          "internalType": "address",
          "name": "approved",
          "type": "address"
        },
        {
          "indexed": true,
          "internalType": "uint256",
          "name": "tokenId",
          "type": "uint256"
        }
      ],
      "name": "Approval",
      "type": "event"
    },
    {
      "anonymous": false,
      "inputs": [
        {
          "indexed": true,
          "internalType": "address",
          "name": "owner",
          "type": "address"
        },
        {
          "indexed": true,
          "internalType": "address",
          "name": "operator",
          "type": "address"
        },
        {
          "indexed": false,
          "internalType": "bool",
          "name": "approved",
          "type": "bool"
        }
      ],
      "name": "ApprovalForAll",
      "type": "event"
    },
    {
      "anonymous": false,
      "inputs": [
        {
          "indexed": true,
          "internalType": "address",
          "name": "from",
          "type": "address"
        },
        {
          "indexed": true,
          "internalType": "address",
          "name": "to",
          "type": "address"
        },
        {
          "indexed": true,
          "internalType": "uint256",
          "name": "tokenId",
          "type": "uint256"
        }
      ],
      "name": "Transfer",
      "type": "event"
    },
    {
      "inputs": [
        {
          "internalType": "address",
          "name": "to",
          "type": "address"
        },
        {
          "internalType": "uint256",
          "name": "tokenId",
          "type": "uint256"
        }
      ],
      "name": "approve",
      "outputs": [],
      "stateMutability": "nonpayable",
      "type": "function"
    },
    {
      "inputs": [
        {
          "internalType": "address",
          "name": "owner",
          "type": "address"
        }
      ],
      "name": "balanceOf",
      "outputs": [
        {
          "internalType": "uint256",
          "name": "",
          "type": "uint256"
        }
      ],
      "stateMutability": "view",
      "type": "function"
    },
    {
      "inputs": [
        {
          "internalType": "uint256[2]",
          "name": "a",
          "type": "uint256[2]"
        },
        {
          "internalType": "uint256[2][2]",
          "name": "b",
          "type": "uint256[2][2]"
        },
        {
          "internalType": "uint256[2]",
          "name": "c",
          "type": "uint256[2]"
        },
        {
          "internalType": "uint256[20]",
          "name": "input",
          "type": "uint256[20]"
        }
      ],
      "name": "contributeSujiko62",
      "outputs": [
        {
          "internalType": "bool",
          "name": "",
          "type": "bool"
        }
      ],
      "stateMutability": "nonpayable",
      "type": "function"
    },
    {
      "inputs": [
        {
          "internalType": "uint256[20]",
          "name": "_sujiko",
          "type": "uint256[20]"
        }
      ],
      "name": "contributeWithSujiko62",
      "outputs": [
        {
          "internalType": "bool",
          "name": "",
          "type": "bool"
        }
      ],
      "stateMutability": "nonpayable",
      "type": "function"
    },
    {
      "inputs": [
        {
          "internalType": "uint256",
          "name": "tokenId",
          "type": "uint256"
        }
      ],
      "name": "getApproved",
      "outputs": [
        {
          "internalType": "address",
          "name": "",
          "type": "address"
        }
      ],
      "stateMutability": "view",
      "type": "function"
    },
    {
      "inputs": [
        {
          "internalType": "uint256",
          "name": "_i",
          "type": "uint256"
        }
      ],
      "name": "getNewSujiko62",
      "outputs": [
        {
          "internalType": "uint256[6]",
          "name": "",
          "type": "uint256[6]"
        },
        {
          "internalType": "uint256[2]",
          "name": "",
          "type": "uint256[2]"
        },
        {
          "internalType": "uint256[6][2]",
          "name": "",
          "type": "uint256[6][2]"
        },
        {
          "internalType": "uint256",
          "name": "",
          "type": "uint256"
        }
      ],
      "stateMutability": "view",
      "type": "function"
    },
    {
      "inputs": [
        {
          "internalType": "address",
          "name": "owner",
          "type": "address"
        },
        {
          "internalType": "address",
          "name": "operator",
          "type": "address"
        }
      ],
      "name": "isApprovedForAll",
      "outputs": [
        {
          "internalType": "bool",
          "name": "",
          "type": "bool"
        }
      ],
      "stateMutability": "view",
      "type": "function"
    },
    {
      "inputs": [
        {
          "internalType": "uint256[20]",
          "name": "_sujiko",
          "type": "uint256[20]"
        }
      ],
      "name": "isNewSujiko62",
      "outputs": [
        {
          "internalType": "bool",
          "name": "",
          "type": "bool"
        }
      ],
      "stateMutability": "view",
      "type": "function"
    },
    {
      "inputs": [],
      "name": "limitSujikos",
      "outputs": [
        {
          "internalType": "uint256",
          "name": "",
          "type": "uint256"
        }
      ],
      "stateMutability": "view",
      "type": "function"
    },
    {
      "inputs": [],
      "name": "name",
      "outputs": [
        {
          "internalType": "string",
          "name": "",
          "type": "string"
        }
      ],
      "stateMutability": "view",
      "type": "function"
    },
    {
      "inputs": [
        {
          "internalType": "uint256",
          "name": "tokenId",
          "type": "uint256"
        }
      ],
      "name": "ownerOf",
      "outputs": [
        {
          "internalType": "address",
          "name": "",
          "type": "address"
        }
      ],
      "stateMutability": "view",
      "type": "function"
    },
    {
      "inputs": [],
      "name": "random",
      "outputs": [
        {
          "internalType": "uint256",
          "name": "",
          "type": "uint256"
        }
      ],
      "stateMutability": "view",
      "type": "function"
    },
    {
      "inputs": [
        {
          "internalType": "address",
          "name": "from",
          "type": "address"
        },
        {
          "internalType": "address",
          "name": "to",
          "type": "address"
        },
        {
          "internalType": "uint256",
          "name": "tokenId",
          "type": "uint256"
        }
      ],
      "name": "safeTransferFrom",
      "outputs": [],
      "stateMutability": "nonpayable",
      "type": "function"
    },
    {
      "inputs": [
        {
          "internalType": "address",
          "name": "from",
          "type": "address"
        },
        {
          "internalType": "address",
          "name": "to",
          "type": "address"
        },
        {
          "internalType": "uint256",
          "name": "tokenId",
          "type": "uint256"
        },
        {
          "internalType": "bytes",
          "name": "_data",
          "type": "bytes"
        }
      ],
      "name": "safeTransferFrom",
      "outputs": [],
      "stateMutability": "nonpayable",
      "type": "function"
    },
    {
      "inputs": [
        {
          "internalType": "address",
          "name": "operator",
          "type": "address"
        },
        {
          "internalType": "bool",
          "name": "approved",
          "type": "bool"
        }
      ],
      "name": "setApprovalForAll",
      "outputs": [],
      "stateMutability": "nonpayable",
      "type": "function"
    },
    {
      "inputs": [
        {
          "internalType": "bytes4",
          "name": "interfaceId",
          "type": "bytes4"
        }
      ],
      "name": "supportsInterface",
      "outputs": [
        {
          "internalType": "bool",
          "name": "",
          "type": "bool"
        }
      ],
      "stateMutability": "view",
      "type": "function"
    },
    {
      "inputs": [],
      "name": "symbol",
      "outputs": [
        {
          "internalType": "string",
          "name": "",
          "type": "string"
        }
      ],
      "stateMutability": "view",
      "type": "function"
    },
    {
      "inputs": [
        {
          "internalType": "uint256",
          "name": "tokenId",
          "type": "uint256"
        }
      ],
      "name": "tokenURI",
      "outputs": [
        {
          "internalType": "string",
          "name": "",
          "type": "string"
        }
      ],
      "stateMutability": "view",
      "type": "function"
    },
    {
      "inputs": [
        {
          "internalType": "address",
          "name": "from",
          "type": "address"
        },
        {
          "internalType": "address",
          "name": "to",
          "type": "address"
        },
        {
          "internalType": "uint256",
          "name": "tokenId",
          "type": "uint256"
        }
      ],
      "name": "transferFrom",
      "outputs": [],
      "stateMutability": "nonpayable",
      "type": "function"
    },
    {
      "inputs": [],
      "name": "verifierAddr",
      "outputs": [
        {
          "internalType": "address",
          "name": "",
          "type": "address"
        }
      ],
      "stateMutability": "view",
      "type": "function"
    },
    {
      "inputs": [
        {
          "internalType": "uint256[2]",
          "name": "a",
          "type": "uint256[2]"
        },
        {
          "internalType": "uint256[2][2]",
          "name": "b",
          "type": "uint256[2][2]"
        },
        {
          "internalType": "uint256[2]",
          "name": "c",
          "type": "uint256[2]"
        },
        {
          "internalType": "uint256[20]",
          "name": "input",
          "type": "uint256[20]"
        }
      ],
      "name": "verifyProof",
      "outputs": [
        {
          "internalType": "bool",
          "name": "",
          "type": "bool"
        }
      ],
      "stateMutability": "view",
      "type": "function"
    },
    {
      "inputs": [
        {
          "internalType": "uint256[2]",
          "name": "a",
          "type": "uint256[2]"
        },
        {
          "internalType": "uint256[2][2]",
          "name": "b",
          "type": "uint256[2][2]"
        },
        {
          "internalType": "uint256[2]",
          "name": "c",
          "type": "uint256[2]"
        },
        {
          "internalType": "uint256[20]",
          "name": "input",
          "type": "uint256[20]"
        }
      ],
      "name": "verifySujiko62",
      "outputs": [
        {
          "internalType": "bool",
          "name": "",
          "type": "bool"
        }
      ],
      "stateMutability": "view",
      "type": "function"
    }
  ],
  "bytecode": "0x608060405260405180610120016040528060f18152602001620052ff60f1913961028b90805190602001906200003792919062000366565b506040518060400160405280600d81526020017f3c2f746578743e3c2f7376673e0000000000000000000000000000000000000081525061028c90805190602001906200008692919062000366565b503480156200009457600080fd5b50604051620053f0380380620053f08339818101604052810190620000ba91906200054c565b6040518060400160405280600881526020017f53756a696b6f36320000000000000000000000000000000000000000000000008152506040518060400160405280600a81526020017f5a4b53554a494b4f36320000000000000000000000000000000000000000000081525081600090805190602001906200013e92919062000366565b5080600190805190602001906200015792919062000366565b50505080600960006101000a81548173ffffffffffffffffffffffffffffffffffffffff021916908373ffffffffffffffffffffffffffffffffffffffff1602179055506020600a8190555060405180606001604052806040518060c001604052806001815260200160008152602001600081526020016000815260200160058152602001600081525081526020016040518060400160405280600a8152602001600f815250815260200160405180604001604052806040518060c001604052806001815260200160018152602001600181526020016001815260200160008152602001600081525081526020016040518060c0016040528060008152602001600081526020016000815260200160018152602001600181526020016001815250815250815250600b6200029760086200034260201b62001b071760201c565b60208110620002cf577f4e487b7100000000000000000000000000000000000000000000000000000000600052603260045260246000fd5b60140201600082015181600001906006620002ec929190620003f7565b50602082015181600601906002620003069291906200043c565b506040820151816008019060026200032092919062000481565b509050506200033b60086200035060201b62001b151760201c565b506200062b565b600081600001549050919050565b6001816000016000828254019250508190555050565b8280546200037490620005ac565b90600052602060002090601f016020900481019282620003985760008555620003e4565b82601f10620003b357805160ff1916838001178555620003e4565b82800160010185558215620003e4579182015b82811115620003e3578251825591602001919060010190620003c6565b5b509050620003f39190620004d9565b5090565b826006810192821562000429579160200282015b82811115620004285782518255916020019190600101906200040b565b5b509050620004389190620004d9565b5090565b82600281019282156200046e579160200282015b828111156200046d57825182559160200191906001019062000450565b5b5090506200047d9190620004d9565b5090565b8260026006028101928215620004c6579160200282015b82811115620004c557825182906006620004b4929190620003f7565b509160200191906006019062000498565b5b509050620004d59190620004f8565b5090565b5b80821115620004f4576000816000905550600101620004da565b5090565b5b808211156200051c576000818162000512919062000520565b50600601620004f9565b5090565b508060060190620005329190620004d9565b50565b600081519050620005468162000611565b92915050565b6000602082840312156200055f57600080fd5b60006200056f8482850162000535565b91505092915050565b600062000585826200058c565b9050919050565b600073ffffffffffffffffffffffffffffffffffffffff82169050919050565b60006002820490506001821680620005c557607f821691505b60208210811415620005dc57620005db620005e2565b5b50919050565b7f4e487b7100000000000000000000000000000000000000000000000000000000600052602260045260246000fd5b6200061c8162000578565b81146200062857600080fd5b50565b614cc4806200063b6000396000f3fe608060405234801561001057600080fd5b50600436106101425760003560e01c8063663ea2e2116100b8578063b8736bfc1161007c578063b8736bfc146103a0578063b88d4fde146103d0578063c87b56dd146103ec578063d45a13121461041c578063e56ac42f1461044c578063e985e9c51461047c57610142565b8063663ea2e2146102fa57806370a08231146103185780638f476f0a1461034857806395d89b4114610366578063a22cb4651461038457610142565b806323b872dd1161010a57806323b872dd146102145780632e9c8a5d1461023057806342842e0e146102605780634a8322ba1461027c5780635ec01e4d146102ac5780636352211e146102ca57610142565b806301ffc9a714610147578063021e74d71461017757806306fdde03146101aa578063081812fc146101c8578063095ea7b3146101f8575b600080fd5b610161600480360381019061015c9190613203565b6104ac565b60405161016e9190613c62565b60405180910390f35b610191600480360381019061018c9190613255565b61058e565b6040516101a19493929190613c1a565b60405180910390f35b6101b26107d0565b6040516101bf9190613c7d565b60405180910390f35b6101e260048036038101906101dd9190613255565b610862565b6040516101ef9190613b6c565b60405180910390f35b610212600480360381019061020d919061310f565b6108e7565b005b61022e60048036038101906102299190613009565b6109ff565b005b61024a60048036038101906102459190613175565b610a5f565b6040516102579190613c62565b60405180910390f35b61027a60048036038101906102759190613009565b610b01565b005b61029660048036038101906102919190613175565b610b21565b6040516102a39190613c62565b60405180910390f35b6102b4610bdc565b6040516102c19190613f3f565b60405180910390f35b6102e460048036038101906102df9190613255565b610c23565b6040516102f19190613b6c565b60405180910390f35b610302610cd5565b60405161030f9190613b6c565b60405180910390f35b610332600480360381019061032d9190612fa4565b610cfb565b60405161033f9190613f3f565b60405180910390f35b610350610db3565b60405161035d9190613f3f565b60405180910390f35b61036e610db9565b60405161037b9190613c7d565b60405180910390f35b61039e600480360381019061039991906130d3565b610e4b565b005b6103ba60048036038101906103b5919061314b565b610e61565b6040516103c79190613c62565b60405180910390f35b6103ea60048036038101906103e59190613058565b6112f1565b005b61040660048036038101906104019190613255565b611353565b6040516104139190613c7d565b60405180910390f35b6104366004803603810190610431919061314b565b6114a5565b6040516104439190613c62565b60405180910390f35b61046660048036038101906104619190613175565b6119b6565b6040516104739190613c62565b60405180910390f35b61049660048036038101906104919190612fcd565b611a73565b6040516104a39190613c62565b60405180910390f35b60007f80ac58cd000000000000000000000000000000000000000000000000000000007bffffffffffffffffffffffffffffffffffffffffffffffffffffffff1916827bffffffffffffffffffffffffffffffffffffffffffffffffffffffff1916148061057757507f5b5e139f000000000000000000000000000000000000000000000000000000007bffffffffffffffffffffffffffffffffffffffffffffffffffffffff1916827bffffffffffffffffffffffffffffffffffffffffffffffffffffffff1916145b80610587575061058682611b2b565b5b9050919050565b610596612b04565b61059e612b26565b6105a6612b48565b60008085101580156105c057506105bd6008611b07565b85105b6105ff576040517f08c379a00000000000000000000000000000000000000000000000000000000081526004016105f690613dbf565b60405180910390fd5b600b8560208110610639577f4e487b7100000000000000000000000000000000000000000000000000000000600052603260045260246000fd5b60140201600001600b866020811061067a577f4e487b7100000000000000000000000000000000000000000000000000000000600052603260045260246000fd5b60140201600601600b87602081106106bb577f4e487b7100000000000000000000000000000000000000000000000000000000600052603260045260246000fd5b601402016008016106cc6008611b07565b83600680602002604051908101604052809291908260068015610704576020028201915b8154815260200190600101908083116106f0575b5050505050935082600280602002604051908101604052809291908260028015610743576020028201915b81548152602001906001019080831161072f575b5050505050925081600280602002604051908101604052809291906000905b828210156107bb578382600602016006806020026040519081016040528092919082600680156107a7576020028201915b815481526020019060010190808311610793575b505050505081526020019060010190610762565b50505050915093509350935093509193509193565b6060600080546107df9061433c565b80601f016020809104026020016040519081016040528092919081815260200182805461080b9061433c565b80156108585780601f1061082d57610100808354040283529160200191610858565b820191906000526020600020905b81548152906001019060200180831161083b57829003601f168201915b5050505050905090565b600061086d82611b95565b6108ac576040517f08c379a00000000000000000000000000000000000000000000000000000000081526004016108a390613e7f565b60405180910390fd5b6004600083815260200190815260200160002060009054906101000a900473ffffffffffffffffffffffffffffffffffffffff169050919050565b60006108f282610c23565b90508073ffffffffffffffffffffffffffffffffffffffff168373ffffffffffffffffffffffffffffffffffffffff161415610963576040517f08c379a000000000000000000000000000000000000000000000000000000000815260040161095a90613ebf565b60405180910390fd5b8073ffffffffffffffffffffffffffffffffffffffff16610982611c01565b73ffffffffffffffffffffffffffffffffffffffff1614806109b157506109b0816109ab611c01565b611a73565b5b6109f0576040517f08c379a00000000000000000000000000000000000000000000000000000000081526004016109e790613d9f565b60405180910390fd5b6109fa8383611c09565b505050565b610a10610a0a611c01565b82611cc2565b610a4f576040517f08c379a0000000000000000000000000000000000000000000000000000000008152600401610a4690613edf565b60405180910390fd5b610a5a838383611da0565b505050565b6000610a6d858585856119b6565b610aac576040517f08c379a0000000000000000000000000000000000000000000000000000000008152600401610aa390613eff565b60405180910390fd5b610ab582610e61565b15610af5576040517f08c379a0000000000000000000000000000000000000000000000000000000008152600401610aec90613f1f565b60405180910390fd5b60019050949350505050565b610b1c838383604051806020016040528060008152506112f1565b505050565b6000610b2f858585856119b6565b610b6e576040517f08c379a0000000000000000000000000000000000000000000000000000000008152600401610b6590613eff565b60405180910390fd5b610b7782610e61565b610bb6576040517f08c379a0000000000000000000000000000000000000000000000000000000008152600401610bad90613cbf565b60405180910390fd5b610bbf826114a5565b610bc857600080fd5b610bd0612007565b60019050949350505050565b6000610be86008611b07565b4244604051602001610bfb929190613b40565b6040516020818303038152906040528051906020012060001c610c1e91906143f2565b905090565b6000806002600084815260200190815260200160002060009054906101000a900473ffffffffffffffffffffffffffffffffffffffff169050600073ffffffffffffffffffffffffffffffffffffffff168173ffffffffffffffffffffffffffffffffffffffff161415610ccc576040517f08c379a0000000000000000000000000000000000000000000000000000000008152600401610cc390613dff565b60405180910390fd5b80915050919050565b600960009054906101000a900473ffffffffffffffffffffffffffffffffffffffff1681565b60008073ffffffffffffffffffffffffffffffffffffffff168273ffffffffffffffffffffffffffffffffffffffff161415610d6c576040517f08c379a0000000000000000000000000000000000000000000000000000000008152600401610d6390613ddf565b60405180910390fd5b600360008373ffffffffffffffffffffffffffffffffffffffff1673ffffffffffffffffffffffffffffffffffffffff168152602001908152602001600020549050919050565b600a5481565b606060018054610dc89061433c565b80601f0160208091040260200160405190810160405280929190818152602001828054610df49061433c565b8015610e415780601f10610e1657610100808354040283529160200191610e41565b820191906000526020600020905b815481529060010190602001808311610e2457829003601f168201915b5050505050905090565b610e5d610e56611c01565b83836120bb565b5050565b600080610e6e6008611b07565b905060005b818110156112e55760006001905060005b6006811015610f6557818015610f505750858160148110610ece577f4e487b7100000000000000000000000000000000000000000000000000000000600052603260045260246000fd5b6020020151600b8460208110610f0d577f4e487b7100000000000000000000000000000000000000000000000000000000600052603260045260246000fd5b601402016000018260068110610f4c577f4e487b7100000000000000000000000000000000000000000000000000000000600052603260045260246000fd5b0154145b91508080610f5d9061439f565b915050610e84565b506000600690505b600881101561105a578180156110455750858160148110610fb7577f4e487b7100000000000000000000000000000000000000000000000000000000600052603260045260246000fd5b6020020151600b8460208110610ff6577f4e487b7100000000000000000000000000000000000000000000000000000000600052603260045260246000fd5b6014020160060160068361100a9190614252565b60028110611041577f4e487b7100000000000000000000000000000000000000000000000000000000600052603260045260246000fd5b0154145b915080806110529061439f565b915050610f6d565b506000600890505b600e81101561118c5781801561117757508581601481106110ac577f4e487b7100000000000000000000000000000000000000000000000000000000600052603260045260246000fd5b6020020151600b84602081106110eb577f4e487b7100000000000000000000000000000000000000000000000000000000600052603260045260246000fd5b6014020160080160006002811061112b577f4e487b7100000000000000000000000000000000000000000000000000000000600052603260045260246000fd5b6006020160088361113c9190614252565b60068110611173577f4e487b7100000000000000000000000000000000000000000000000000000000600052603260045260246000fd5b0154145b915080806111849061439f565b915050611062565b506000600e90505b60148110156112be578180156112a957508581601481106111de577f4e487b7100000000000000000000000000000000000000000000000000000000600052603260045260246000fd5b6020020151600b846020811061121d577f4e487b7100000000000000000000000000000000000000000000000000000000600052603260045260246000fd5b6014020160080160016002811061125d577f4e487b7100000000000000000000000000000000000000000000000000000000600052603260045260246000fd5b60060201600e8361126e9190614252565b600681106112a5577f4e487b7100000000000000000000000000000000000000000000000000000000600052603260045260246000fd5b0154145b915080806112b69061439f565b915050611194565b5080156112d157600093505050506112ec565b5080806112dd9061439f565b915050610e73565b5060019150505b919050565b6113026112fc611c01565b83611cc2565b611341576040517f08c379a000000000000000000000000000000000000000000000000000000000815260040161133890613edf565b60405180910390fd5b61134d84848484612228565b50505050565b606061135e82611b95565b61139d576040517f08c379a000000000000000000000000000000000000000000000000000000000815260040161139490613e5f565b60405180910390fd5b60006006600084815260200190815260200160002080546113bd9061433c565b80601f01602080910402602001604051908101604052809291908181526020018280546113e99061433c565b80156114365780601f1061140b57610100808354040283529160200191611436565b820191906000526020600020905b81548152906001019060200180831161141957829003601f168201915b505050505090506000611447612284565b905060008151141561145d5781925050506114a0565b60008251111561149257808260405160200161147a929190613a70565b604051602081830303815290604052925050506114a0565b61149b8461229b565b925050505b919050565b6000600a546114b46008611b07565b106114f4576040517f08c379a00000000000000000000000000000000000000000000000000000000081526004016114eb90613d7f565b60405180910390fd5b600060405180606001604052806040518060c001604052806000815260200160008152602001600081526020016000815260200160008152602001600081525081526020016040518060400160405280600081526020016000815250815260200160405180604001604052806040518060c001604052806000815260200160008152602001600081526020016000815260200160008152602001600081525081526020016040518060c0016040528060008152602001600081526020016000815260200160008152602001600081526020016000815250815250815250905060005b600681101561167657838160148110611618577f4e487b7100000000000000000000000000000000000000000000000000000000600052603260045260246000fd5b60200201518260000151826006811061165a577f4e487b7100000000000000000000000000000000000000000000000000000000600052603260045260246000fd5b602002018181525050808061166e9061439f565b9150506115d6565b506000600690505b600881101561172a578381601481106116c0577f4e487b7100000000000000000000000000000000000000000000000000000000600052603260045260246000fd5b602002015182602001516006836116d79190614252565b6002811061170e577f4e487b7100000000000000000000000000000000000000000000000000000000600052603260045260246000fd5b60200201818152505080806117229061439f565b91505061167e565b506000600890505b600e81101561181c57838160148110611774577f4e487b7100000000000000000000000000000000000000000000000000000000600052603260045260246000fd5b602002015182604001516000600281106117b7577f4e487b7100000000000000000000000000000000000000000000000000000000600052603260045260246000fd5b60200201516008836117c99190614252565b60068110611800577f4e487b7100000000000000000000000000000000000000000000000000000000600052603260045260246000fd5b60200201818152505080806118149061439f565b915050611732565b506000600e90505b601481101561190e57838160148110611866577f4e487b7100000000000000000000000000000000000000000000000000000000600052603260045260246000fd5b602002015182604001516001600281106118a9577f4e487b7100000000000000000000000000000000000000000000000000000000600052603260045260246000fd5b6020020151600e836118bb9190614252565b600681106118f2577f4e487b7100000000000000000000000000000000000000000000000000000000600052603260045260246000fd5b60200201818152505080806119069061439f565b915050611824565b5080600b61191c6008611b07565b60208110611953577f4e487b7100000000000000000000000000000000000000000000000000000000600052603260045260246000fd5b6014020160008201518160000190600661196e929190612b75565b50602082015181600601906002611986929190612bb5565b5060408201518160080190600261199e929190612bf5565b509050506119ac6008611b15565b6001915050919050565b6000600960009054906101000a900473ffffffffffffffffffffffffffffffffffffffff1673ffffffffffffffffffffffffffffffffffffffff1663e56ac42f868686866040518563ffffffff1660e01b8152600401611a199493929190613bd3565b60206040518083038186803b158015611a3157600080fd5b505afa158015611a45573d6000803e3d6000fd5b505050506040513d601f19601f82011682018060405250810190611a6991906131da565b9050949350505050565b6000600560008473ffffffffffffffffffffffffffffffffffffffff1673ffffffffffffffffffffffffffffffffffffffff16815260200190815260200160002060008373ffffffffffffffffffffffffffffffffffffffff1673ffffffffffffffffffffffffffffffffffffffff16815260200190815260200160002060009054906101000a900460ff16905092915050565b600081600001549050919050565b6001816000016000828254019250508190555050565b60007f01ffc9a7000000000000000000000000000000000000000000000000000000007bffffffffffffffffffffffffffffffffffffffffffffffffffffffff1916827bffffffffffffffffffffffffffffffffffffffffffffffffffffffff1916149050919050565b60008073ffffffffffffffffffffffffffffffffffffffff166002600084815260200190815260200160002060009054906101000a900473ffffffffffffffffffffffffffffffffffffffff1673ffffffffffffffffffffffffffffffffffffffff1614159050919050565b600033905090565b816004600083815260200190815260200160002060006101000a81548173ffffffffffffffffffffffffffffffffffffffff021916908373ffffffffffffffffffffffffffffffffffffffff160217905550808273ffffffffffffffffffffffffffffffffffffffff16611c7c83610c23565b73ffffffffffffffffffffffffffffffffffffffff167f8c5be1e5ebec7d5bd14f71427d1e84f3dd0314c0f7b2291e5b200ac8c7c3b92560405160405180910390a45050565b6000611ccd82611b95565b611d0c576040517f08c379a0000000000000000000000000000000000000000000000000000000008152600401611d0390613d5f565b60405180910390fd5b6000611d1783610c23565b90508073ffffffffffffffffffffffffffffffffffffffff168473ffffffffffffffffffffffffffffffffffffffff161480611d8657508373ffffffffffffffffffffffffffffffffffffffff16611d6e84610862565b73ffffffffffffffffffffffffffffffffffffffff16145b80611d975750611d968185611a73565b5b91505092915050565b8273ffffffffffffffffffffffffffffffffffffffff16611dc082610c23565b73ffffffffffffffffffffffffffffffffffffffff1614611e16576040517f08c379a0000000000000000000000000000000000000000000000000000000008152600401611e0d90613cdf565b60405180910390fd5b600073ffffffffffffffffffffffffffffffffffffffff168273ffffffffffffffffffffffffffffffffffffffff161415611e86576040517f08c379a0000000000000000000000000000000000000000000000000000000008152600401611e7d90613d1f565b60405180910390fd5b611e91838383612342565b611e9c600082611c09565b6001600360008573ffffffffffffffffffffffffffffffffffffffff1673ffffffffffffffffffffffffffffffffffffffff1681526020019081526020016000206000828254611eec9190614252565b925050819055506001600360008473ffffffffffffffffffffffffffffffffffffffff1673ffffffffffffffffffffffffffffffffffffffff1681526020019081526020016000206000828254611f439190614171565b92505081905550816002600083815260200190815260200160002060006101000a81548173ffffffffffffffffffffffffffffffffffffffff021916908373ffffffffffffffffffffffffffffffffffffffff160217905550808273ffffffffffffffffffffffffffffffffffffffff168473ffffffffffffffffffffffffffffffffffffffff167fddf252ad1be2c89b69c2b068fc378daa952ba7f163c4a11628f55a4df523b3ef60405160405180910390a4612002838383612347565b505050565b60006120136008611b07565b9050600061028b6120238361234c565b61028c60405160200161203893929190613a94565b6040516020818303038152906040529050600061207b612057836124f9565b6040516020016120679190613adb565b6040516020818303038152906040526124f9565b90506000816040516020016120909190613b1e565b60405160208183030381529060405290506120ab3385612683565b6120b584826126a1565b50505050565b8173ffffffffffffffffffffffffffffffffffffffff168373ffffffffffffffffffffffffffffffffffffffff16141561212a576040517f08c379a000000000000000000000000000000000000000000000000000000000815260040161212190613d3f565b60405180910390fd5b80600560008573ffffffffffffffffffffffffffffffffffffffff1673ffffffffffffffffffffffffffffffffffffffff16815260200190815260200160002060008473ffffffffffffffffffffffffffffffffffffffff1673ffffffffffffffffffffffffffffffffffffffff16815260200190815260200160002060006101000a81548160ff0219169083151502179055508173ffffffffffffffffffffffffffffffffffffffff168373ffffffffffffffffffffffffffffffffffffffff167f17307eab39ab6107e8899845ad3d59bd9653f200f220920489ca2b5937696c318360405161221b9190613c62565b60405180910390a3505050565b612233848484611da0565b61223f84848484612715565b61227e576040517f08c379a000000000000000000000000000000000000000000000000000000000815260040161227590613c9f565b60405180910390fd5b50505050565b606060405180602001604052806000815250905090565b60606122a682611b95565b6122e5576040517f08c379a00000000000000000000000000000000000000000000000000000000081526004016122dc90613e9f565b60405180910390fd5b60006122ef612284565b9050600081511161230f576040518060200160405280600081525061233a565b806123198461234c565b60405160200161232a929190613a70565b6040516020818303038152906040525b915050919050565b505050565b505050565b60606000821415612394576040518060400160405280600181526020017f300000000000000000000000000000000000000000000000000000000000000081525090506124f4565b600082905060005b600082146123c65780806123af9061439f565b915050600a826123bf91906141c7565b915061239c565b60008167ffffffffffffffff811115612408577f4e487b7100000000000000000000000000000000000000000000000000000000600052604160045260246000fd5b6040519080825280601f01601f19166020018201604052801561243a5781602001600182028036833780820191505090505b5090505b600085146124ed576001826124539190614252565b9150600a8561246291906143f2565b603061246e9190614171565b60f81b8183815181106124aa577f4e487b7100000000000000000000000000000000000000000000000000000000600052603260045260246000fd5b60200101907effffffffffffffffffffffffffffffffffffffffffffffffffffffffffffff1916908160001a905350600a856124e691906141c7565b945061243e565b8093505050505b919050565b606060008251141561251c5760405180602001604052806000815250905061267e565b6000604051806060016040528060408152602001614c4f604091399050600060036002855161254b9190614171565b61255591906141c7565b600461256191906141f8565b67ffffffffffffffff8111156125a0577f4e487b7100000000000000000000000000000000000000000000000000000000600052604160045260246000fd5b6040519080825280601f01601f1916602001820160405280156125d25781602001600182028036833780820191505090505b509050600182016020820185865187015b8082101561263e576003820191508151603f8160121c168501518453600184019350603f81600c1c168501518453600184019350603f8160061c168501518453600184019350603f81168501518453600184019350506125e3565b505060038651066001811461265a576002811461266d57612675565b603d6001830353603d6002830353612675565b603d60018303535b50505080925050505b919050565b61269d8282604051806020016040528060008152506128ac565b5050565b6126aa82611b95565b6126e9576040517f08c379a00000000000000000000000000000000000000000000000000000000081526004016126e090613e1f565b60405180910390fd5b80600660008481526020019081526020016000209080519060200190612710929190612c46565b505050565b60006127368473ffffffffffffffffffffffffffffffffffffffff16612907565b1561289f578373ffffffffffffffffffffffffffffffffffffffff1663150b7a0261275f611c01565b8786866040518563ffffffff1660e01b81526004016127819493929190613b87565b602060405180830381600087803b15801561279b57600080fd5b505af19250505080156127cc57506040513d601f19601f820116820180604052508101906127c9919061322c565b60015b61284f573d80600081146127fc576040519150601f19603f3d011682016040523d82523d6000602084013e612801565b606091505b50600081511415612847576040517f08c379a000000000000000000000000000000000000000000000000000000000815260040161283e90613c9f565b60405180910390fd5b805181602001fd5b63150b7a0260e01b7bffffffffffffffffffffffffffffffffffffffffffffffffffffffff1916817bffffffffffffffffffffffffffffffffffffffffffffffffffffffff1916149150506128a4565b600190505b949350505050565b6128b6838361292a565b6128c36000848484612715565b612902576040517f08c379a00000000000000000000000000000000000000000000000000000000081526004016128f990613c9f565b60405180910390fd5b505050565b6000808273ffffffffffffffffffffffffffffffffffffffff163b119050919050565b600073ffffffffffffffffffffffffffffffffffffffff168273ffffffffffffffffffffffffffffffffffffffff16141561299a576040517f08c379a000000000000000000000000000000000000000000000000000000000815260040161299190613e3f565b60405180910390fd5b6129a381611b95565b156129e3576040517f08c379a00000000000000000000000000000000000000000000000000000000081526004016129da90613cff565b60405180910390fd5b6129ef60008383612342565b6001600360008473ffffffffffffffffffffffffffffffffffffffff1673ffffffffffffffffffffffffffffffffffffffff1681526020019081526020016000206000828254612a3f9190614171565b92505081905550816002600083815260200190815260200160002060006101000a81548173ffffffffffffffffffffffffffffffffffffffff021916908373ffffffffffffffffffffffffffffffffffffffff160217905550808273ffffffffffffffffffffffffffffffffffffffff16600073ffffffffffffffffffffffffffffffffffffffff167fddf252ad1be2c89b69c2b068fc378daa952ba7f163c4a11628f55a4df523b3ef60405160405180910390a4612b0060008383612347565b5050565b6040518060c00160405280600690602082028036833780820191505090505090565b6040518060400160405280600290602082028036833780820191505090505090565b60405180604001604052806002905b612b5f612b04565b815260200190600190039081612b575790505090565b8260068101928215612ba4579160200282015b82811115612ba3578251825591602001919060010190612b88565b5b509050612bb19190612ccc565b5090565b8260028101928215612be4579160200282015b82811115612be3578251825591602001919060010190612bc8565b5b509050612bf19190612ccc565b5090565b8260026006028101928215612c35579160200282015b82811115612c3457825182906006612c24929190612b75565b5091602001919060060190612c0b565b5b509050612c429190612ce9565b5090565b828054612c529061433c565b90600052602060002090601f016020900481019282612c745760008555612cbb565b82601f10612c8d57805160ff1916838001178555612cbb565b82800160010185558215612cbb579182015b82811115612cba578251825591602001919060010190612c9f565b5b509050612cc89190612ccc565b5090565b5b80821115612ce5576000816000905550600101612ccd565b5090565b5b80821115612d095760008181612d009190612d0d565b50600601612cea565b5090565b508060060190612d1d9190612ccc565b50565b6000612d33612d2e84613f7f565b613f5a565b90508082856040860282011115612d4957600080fd5b60005b85811015612d795781612d5f8882612eea565b845260208401935060408301925050600181019050612d4c565b5050509392505050565b6000612d96612d9184613fa5565b613f5a565b90508082856020860282011115612dac57600080fd5b60005b85811015612ddc5781612dc28882612f8f565b845260208401935060208301925050600181019050612daf565b5050509392505050565b6000612df9612df484613fcb565b613f5a565b90508082856020860282011115612e0f57600080fd5b60005b85811015612e3f5781612e258882612f8f565b845260208401935060208301925050600181019050612e12565b5050509392505050565b6000612e5c612e5784613ff1565b613f5a565b905082815260208101848484011115612e7457600080fd5b612e7f8482856142fa565b509392505050565b600081359050612e9681614bf2565b92915050565b600082601f830112612ead57600080fd5b6002612eba848285612d20565b91505092915050565b600082601f830112612ed457600080fd5b6014612ee1848285612d83565b91505092915050565b600082601f830112612efb57600080fd5b6002612f08848285612de6565b91505092915050565b600081359050612f2081614c09565b92915050565b600081519050612f3581614c09565b92915050565b600081359050612f4a81614c20565b92915050565b600081519050612f5f81614c20565b92915050565b600082601f830112612f7657600080fd5b8135612f86848260208601612e49565b91505092915050565b600081359050612f9e81614c37565b92915050565b600060208284031215612fb657600080fd5b6000612fc484828501612e87565b91505092915050565b60008060408385031215612fe057600080fd5b6000612fee85828601612e87565b9250506020612fff85828601612e87565b9150509250929050565b60008060006060848603121561301e57600080fd5b600061302c86828701612e87565b935050602061303d86828701612e87565b925050604061304e86828701612f8f565b9150509250925092565b6000806000806080858703121561306e57600080fd5b600061307c87828801612e87565b945050602061308d87828801612e87565b935050604061309e87828801612f8f565b925050606085013567ffffffffffffffff8111156130bb57600080fd5b6130c787828801612f65565b91505092959194509250565b600080604083850312156130e657600080fd5b60006130f485828601612e87565b925050602061310585828601612f11565b9150509250929050565b6000806040838503121561312257600080fd5b600061313085828601612e87565b925050602061314185828601612f8f565b9150509250929050565b6000610280828403121561315e57600080fd5b600061316c84828501612ec3565b91505092915050565b600080600080610380858703121561318c57600080fd5b600061319a87828801612eea565b94505060406131ab87828801612e9c565b93505060c06131bc87828801612eea565b9250506101006131ce87828801612ec3565b91505092959194509250565b6000602082840312156131ec57600080fd5b60006131fa84828501612f26565b91505092915050565b60006020828403121561321557600080fd5b600061322384828501612f3b565b91505092915050565b60006020828403121561323e57600080fd5b600061324c84828501612f50565b91505092915050565b60006020828403121561326757600080fd5b600061327584828501612f8f565b91505092915050565b600061328a83836133da565b60408301905092915050565b60006132a28383613488565b60c08301905092915050565b60006132ba8383613a3b565b60208301905092915050565b6132cf81614286565b82525050565b6132de81614069565b6132e881846140f7565b92506132f382614022565b8060005b8381101561332457815161330b878261327e565b9650613316836140b6565b9250506001810190506132f7565b505050505050565b61333581614074565b61333f8184614102565b925061334a8261402c565b8060005b8381101561337b5781516133628782613296565b965061336d836140c3565b92505060018101905061334e565b505050505050565b61338c8161407f565b613396818461410d565b92506133a182614036565b8060005b838110156133d25781516133b987826132ae565b96506133c4836140d0565b9250506001810190506133a5565b505050505050565b6133e38161408a565b6133ed8184614118565b92506133f882614040565b8060005b8381101561342957815161341087826132ae565b965061341b836140dd565b9250506001810190506133fc565b505050505050565b61343a8161408a565b6134448184614123565b925061344f82614040565b8060005b8381101561348057815161346787826132ae565b9650613472836140dd565b925050600181019050613453565b505050505050565b61349181614095565b61349b818461412e565b92506134a68261404a565b8060005b838110156134d75781516134be87826132ae565b96506134c9836140ea565b9250506001810190506134aa565b505050505050565b6134e881614095565b6134f28184614139565b92506134fd8261404a565b8060005b8381101561352e57815161351587826132ae565b9650613520836140ea565b925050600181019050613501565b505050505050565b61353f81614298565b82525050565b6000613550826140a0565b61355a8185614144565b935061356a818560208601614309565b613573816144df565b840191505092915050565b6000613589826140ab565b6135938185614155565b93506135a3818560208601614309565b6135ac816144df565b840191505092915050565b60006135c2826140ab565b6135cc8185614166565b93506135dc818560208601614309565b80840191505092915050565b600081546135f58161433c565b6135ff8186614166565b9450600182166000811461361a576001811461362b5761365e565b60ff1983168652818601935061365e565b61363485614054565b60005b8381101561365657815481890152600182019150602081019050613637565b838801955050505b50505092915050565b6000613674601583614166565b915061367f826144f0565b601582019050919050565b6000613697603283614155565b91506136a282614519565b604082019050919050565b60006136ba601d83614155565b91506136c582614568565b602082019050919050565b60006136dd602583614155565b91506136e882614591565b604082019050919050565b6000613700601c83614155565b915061370b826145e0565b602082019050919050565b6000613723602483614155565b915061372e82614609565b604082019050919050565b6000613746601983614155565b915061375182614658565b602082019050919050565b6000613769602c83614155565b915061377482614681565b604082019050919050565b600061378c601f83614155565b9150613797826146d0565b602082019050919050565b60006137af600183614166565b91506137ba826146f9565b600182019050919050565b60006137d2603883614155565b91506137dd82614722565b604082019050919050565b60006137f5601c83614155565b915061380082614771565b602082019050919050565b6000613818602a83614155565b91506138238261479a565b604082019050919050565b600061383b602983614155565b9150613846826147e9565b604082019050919050565b600061385e602e83614155565b915061386982614838565b604082019050919050565b6000613881600283614166565b915061388c82614887565b600282019050919050565b60006138a4602083614155565b91506138af826148b0565b602082019050919050565b60006138c7603183614155565b91506138d2826148d9565b604082019050919050565b60006138ea602c83614155565b91506138f582614928565b604082019050919050565b600061390d602f83614155565b915061391882614977565b604082019050919050565b6000613930600a83614166565b915061393b826149c6565b600a82019050919050565b6000613953602183614155565b915061395e826149ef565b604082019050919050565b6000613976601d83614166565b915061398182614a3e565b601d82019050919050565b6000613999603183614155565b91506139a482614a67565b604082019050919050565b60006139bc602883614166565b91506139c782614ab6565b602882019050919050565b60006139df601583614155565b91506139ea82614b05565b602082019050919050565b6000613a02601783614155565b9150613a0d82614b2e565b602082019050919050565b6000613a25607d83614166565b9150613a3082614b57565b607d82019050919050565b613a44816142f0565b82525050565b613a53816142f0565b82525050565b613a6a613a65826142f0565b6143e8565b82525050565b6000613a7c82856135b7565b9150613a8882846135b7565b91508190509392505050565b6000613aa082866135e8565b9150613aab826139af565b9150613ab782856135b7565b9150613ac2826137a2565b9150613ace82846135e8565b9150819050949350505050565b6000613ae682613923565b9150613af182613667565b9150613afc82613a18565b9150613b0882846135b7565b9150613b1382613874565b915081905092915050565b6000613b2982613969565b9150613b3582846135b7565b915081905092915050565b6000613b4c8285613a59565b602082019150613b5c8284613a59565b6020820191508190509392505050565b6000602082019050613b8160008301846132c6565b92915050565b6000608082019050613b9c60008301876132c6565b613ba960208301866132c6565b613bb66040830185613a4a565b8181036060830152613bc88184613545565b905095945050505050565b600061038082019050613be96000830187613431565b613bf660408301866132d5565b613c0360c0830185613431565b613c11610100830184613383565b95945050505050565b60006102a082019050613c3060008301876134df565b613c3d60c0830186613431565b613c4b61010083018561332c565b613c59610280830184613a4a565b95945050505050565b6000602082019050613c776000830184613536565b92915050565b60006020820190508181036000830152613c97818461357e565b905092915050565b60006020820190508181036000830152613cb88161368a565b9050919050565b60006020820190508181036000830152613cd8816136ad565b9050919050565b60006020820190508181036000830152613cf8816136d0565b9050919050565b60006020820190508181036000830152613d18816136f3565b9050919050565b60006020820190508181036000830152613d3881613716565b9050919050565b60006020820190508181036000830152613d5881613739565b9050919050565b60006020820190508181036000830152613d788161375c565b9050919050565b60006020820190508181036000830152613d988161377f565b9050919050565b60006020820190508181036000830152613db8816137c5565b9050919050565b60006020820190508181036000830152613dd8816137e8565b9050919050565b60006020820190508181036000830152613df88161380b565b9050919050565b60006020820190508181036000830152613e188161382e565b9050919050565b60006020820190508181036000830152613e3881613851565b9050919050565b60006020820190508181036000830152613e5881613897565b9050919050565b60006020820190508181036000830152613e78816138ba565b9050919050565b60006020820190508181036000830152613e98816138dd565b9050919050565b60006020820190508181036000830152613eb881613900565b9050919050565b60006020820190508181036000830152613ed881613946565b9050919050565b60006020820190508181036000830152613ef88161398c565b9050919050565b60006020820190508181036000830152613f18816139d2565b9050919050565b60006020820190508181036000830152613f38816139f5565b9050919050565b6000602082019050613f546000830184613a4a565b92915050565b6000613f64613f75565b9050613f70828261436e565b919050565b6000604051905090565b600067ffffffffffffffff821115613f9a57613f996144b0565b5b602082029050919050565b600067ffffffffffffffff821115613fc057613fbf6144b0565b5b602082029050919050565b600067ffffffffffffffff821115613fe657613fe56144b0565b5b602082029050919050565b600067ffffffffffffffff82111561400c5761400b6144b0565b5b614015826144df565b9050602081019050919050565b6000819050919050565b6000819050919050565b6000819050919050565b6000819050919050565b6000819050919050565b60008190508160005260206000209050919050565b600060029050919050565b600060029050919050565b600060149050919050565b600060029050919050565b600060069050919050565b600081519050919050565b600081519050919050565b6000602082019050919050565b6000602082019050919050565b6000602082019050919050565b6000602082019050919050565b6000602082019050919050565b600081905092915050565b600081905092915050565b600081905092915050565b600081905092915050565b600081905092915050565b600081905092915050565b600081905092915050565b600082825260208201905092915050565b600082825260208201905092915050565b600081905092915050565b600061417c826142f0565b9150614187836142f0565b9250827fffffffffffffffffffffffffffffffffffffffffffffffffffffffffffffffff038211156141bc576141bb614423565b5b828201905092915050565b60006141d2826142f0565b91506141dd836142f0565b9250826141ed576141ec614452565b5b828204905092915050565b6000614203826142f0565b915061420e836142f0565b9250817fffffffffffffffffffffffffffffffffffffffffffffffffffffffffffffffff048311821515161561424757614246614423565b5b828202905092915050565b600061425d826142f0565b9150614268836142f0565b92508282101561427b5761427a614423565b5b828203905092915050565b6000614291826142d0565b9050919050565b60008115159050919050565b60007fffffffff0000000000000000000000000000000000000000000000000000000082169050919050565b600073ffffffffffffffffffffffffffffffffffffffff82169050919050565b6000819050919050565b82818337600083830152505050565b60005b8381101561432757808201518184015260208101905061430c565b83811115614336576000848401525b50505050565b6000600282049050600182168061435457607f821691505b6020821081141561436857614367614481565b5b50919050565b614377826144df565b810181811067ffffffffffffffff82111715614396576143956144b0565b5b80604052505050565b60006143aa826142f0565b91507fffffffffffffffffffffffffffffffffffffffffffffffffffffffffffffffff8214156143dd576143dc614423565b5b600182019050919050565b6000819050919050565b60006143fd826142f0565b9150614408836142f0565b92508261441857614417614452565b5b828206905092915050565b7f4e487b7100000000000000000000000000000000000000000000000000000000600052601160045260246000fd5b7f4e487b7100000000000000000000000000000000000000000000000000000000600052601260045260246000fd5b7f4e487b7100000000000000000000000000000000000000000000000000000000600052602260045260246000fd5b7f4e487b7100000000000000000000000000000000000000000000000000000000600052604160045260246000fd5b6000601f19601f8301169050919050565b7f53756a696b6f363220436f6e747269627574696f6e0000000000000000000000600082015250565b7f4552433732313a207472616e7366657220746f206e6f6e20455243373231526560008201527f63656976657220696d706c656d656e7465720000000000000000000000000000602082015250565b7f4572726f723a2053756a696b6f363220616c7265616479206578697374000000600082015250565b7f4552433732313a207472616e736665722066726f6d20696e636f72726563742060008201527f6f776e6572000000000000000000000000000000000000000000000000000000602082015250565b7f4552433732313a20746f6b656e20616c7265616479206d696e74656400000000600082015250565b7f4552433732313a207472616e7366657220746f20746865207a65726f2061646460008201527f7265737300000000000000000000000000000000000000000000000000000000602082015250565b7f4552433732313a20617070726f766520746f2063616c6c657200000000000000600082015250565b7f4552433732313a206f70657261746f7220717565727920666f72206e6f6e657860008201527f697374656e7420746f6b656e0000000000000000000000000000000000000000602082015250565b7f4572726f723a2052656163686564206c696d6974206f662073756a696b6f7300600082015250565b7f2900000000000000000000000000000000000000000000000000000000000000600082015250565b7f4552433732313a20617070726f76652063616c6c6572206973206e6f74206f7760008201527f6e6572206e6f7220617070726f76656420666f7220616c6c0000000000000000602082015250565b7f4572726f723a20496e76616c69642073756a696b6f7320696e64657800000000600082015250565b7f4552433732313a2062616c616e636520717565727920666f7220746865207a6560008201527f726f206164647265737300000000000000000000000000000000000000000000602082015250565b7f4552433732313a206f776e657220717565727920666f72206e6f6e657869737460008201527f656e7420746f6b656e0000000000000000000000000000000000000000000000602082015250565b7f45524337323155524953746f726167653a2055524920736574206f66206e6f6e60008201527f6578697374656e7420746f6b656e000000000000000000000000000000000000602082015250565b7f227d000000000000000000000000000000000000000000000000000000000000600082015250565b7f4552433732313a206d696e7420746f20746865207a65726f2061646472657373600082015250565b7f45524337323155524953746f726167653a2055524920717565727920666f722060008201527f6e6f6e6578697374656e7420746f6b656e000000000000000000000000000000602082015250565b7f4552433732313a20617070726f76656420717565727920666f72206e6f6e657860008201527f697374656e7420746f6b656e0000000000000000000000000000000000000000602082015250565b7f4552433732314d657461646174613a2055524920717565727920666f72206e6f60008201527f6e6578697374656e7420746f6b656e0000000000000000000000000000000000602082015250565b7f7b226e616d65223a202200000000000000000000000000000000000000000000600082015250565b7f4552433732313a20617070726f76616c20746f2063757272656e74206f776e6560008201527f7200000000000000000000000000000000000000000000000000000000000000602082015250565b7f646174613a6170706c69636174696f6e2f6a736f6e3b6261736536342c000000600082015250565b7f4552433732313a207472616e736665722063616c6c6572206973206e6f74206f60008201527f776e6572206e6f7220617070726f766564000000000000000000000000000000602082015250565b7f5468616e6b7320666f722074686520636f6e747269627574696f6e212028537560008201527f6a696b6f36322023000000000000000000000000000000000000000000000000602082015250565b7f4572726f7220696e207665726966792070726f6f660000000000000000000000600082015250565b7f4572726f723a20556e6b6e6f776e2053756a696b6f3632000000000000000000600082015250565b7f222c20226465736372697074696f6e223a202254686973204e4654206365727460008201527f6966696573207468617420796f75206861766520636f6e74726962757465642060208201527f7769746820796f7572206f776e2053756a696b6f3632222c2022696d6167652260408201527f3a2022646174613a696d6167652f7376672b786d6c3b6261736536342c000000606082015250565b614bfb81614286565b8114614c0657600080fd5b50565b614c1281614298565b8114614c1d57600080fd5b50565b614c29816142a4565b8114614c3457600080fd5b50565b614c40816142f0565b8114614c4b57600080fd5b5056fe4142434445464748494a4b4c4d4e4f505152535455565758595a6162636465666768696a6b6c6d6e6f707172737475767778797a303132333435363738392b2fa26469706673582212208b7a3a7dc9c4b2e64bafc5c3abb74d8c91ec1a36a6e8dc6d714a91bf42e6ce6a64736f6c634300080400333c7376672077696474683d2234303022206865696768743d22343030222076696577426f783d2230203020343030203430302220786d6c6e733d22687474703a2f2f7777772e77332e6f72672f323030302f737667223e3c726563742077696474683d223130302522206865696768743d2231303025222f3e3c7465787420783d223530252220793d223530252220646f6d696e616e742d626173656c696e653d226d6964646c652220746578742d616e63686f723d226d6964646c6522207374796c653d2266696c6c3a236666663b666f6e742d66616d696c793a73616e733b666f6e742d73697a653a32307078223e",
  "linkReferences": {},
  "deployedLinkReferences": {}
}