{
  "_format": "hh-sol-artifact-1",
  "contractName": "Sujiko",
  "sourceName": "contracts/Sujiko.sol",
  "abi": [
    {
      "inputs": [
        {
          "internalType": "address",
          "name": "_verifierAddr",
          "type": "address"
        }
      ],
      "stateMutability": "nonpayable",
      "type": "constructor"
    },
    {
      "anonymous": false,
      "inputs": [
        {
          "indexed": true,
          "internalType": "address",
          "name": "owner",
          "type": "address"
        },
        {
          "indexed": true,
          "internalType": "address",
          "name": "approved",
          "type": "address"
        },
        {
          "indexed": true,
          "internalType": "uint256",
          "name": "tokenId",
          "type": "uint256"
        }
      ],
      "name": "Approval",
      "type": "event"
    },
    {
      "anonymous": false,
      "inputs": [
        {
          "indexed": true,
          "internalType": "address",
          "name": "owner",
          "type": "address"
        },
        {
          "indexed": true,
          "internalType": "address",
          "name": "operator",
          "type": "address"
        },
        {
          "indexed": false,
          "internalType": "bool",
          "name": "approved",
          "type": "bool"
        }
      ],
      "name": "ApprovalForAll",
      "type": "event"
    },
    {
      "anonymous": false,
      "inputs": [
        {
          "indexed": true,
          "internalType": "address",
          "name": "from",
          "type": "address"
        },
        {
          "indexed": true,
          "internalType": "address",
          "name": "to",
          "type": "address"
        },
        {
          "indexed": true,
          "internalType": "uint256",
          "name": "tokenId",
          "type": "uint256"
        }
      ],
      "name": "Transfer",
      "type": "event"
    },
    {
      "inputs": [
        {
          "internalType": "address",
          "name": "to",
          "type": "address"
        },
        {
          "internalType": "uint256",
          "name": "tokenId",
          "type": "uint256"
        }
      ],
      "name": "approve",
      "outputs": [],
      "stateMutability": "nonpayable",
      "type": "function"
    },
    {
      "inputs": [
        {
          "internalType": "address",
          "name": "owner",
          "type": "address"
        }
      ],
      "name": "balanceOf",
      "outputs": [
        {
          "internalType": "uint256",
          "name": "",
          "type": "uint256"
        }
      ],
      "stateMutability": "view",
      "type": "function"
    },
    {
      "inputs": [
        {
          "internalType": "uint256[2]",
          "name": "a",
          "type": "uint256[2]"
        },
        {
          "internalType": "uint256[2][2]",
          "name": "b",
          "type": "uint256[2][2]"
        },
        {
          "internalType": "uint256[2]",
          "name": "c",
          "type": "uint256[2]"
        },
        {
          "internalType": "uint256[13]",
          "name": "input",
          "type": "uint256[13]"
        }
      ],
      "name": "contributeSujiko",
      "outputs": [
        {
          "internalType": "bool",
          "name": "",
          "type": "bool"
        }
      ],
      "stateMutability": "nonpayable",
      "type": "function"
    },
    {
      "inputs": [
        {
          "internalType": "uint256[13]",
          "name": "_sujiko",
          "type": "uint256[13]"
        }
      ],
      "name": "contributeWithSujiko",
      "outputs": [
        {
          "internalType": "bool",
          "name": "",
          "type": "bool"
        }
      ],
      "stateMutability": "nonpayable",
      "type": "function"
    },
    {
      "inputs": [
        {
          "internalType": "uint256",
          "name": "tokenId",
          "type": "uint256"
        }
      ],
      "name": "getApproved",
      "outputs": [
        {
          "internalType": "address",
          "name": "",
          "type": "address"
        }
      ],
      "stateMutability": "view",
      "type": "function"
    },
    {
      "inputs": [
        {
          "internalType": "uint256",
          "name": "_i",
          "type": "uint256"
        }
      ],
      "name": "getNewSujiko",
      "outputs": [
        {
          "internalType": "uint256[9]",
          "name": "",
          "type": "uint256[9]"
        },
        {
          "internalType": "uint256[4]",
          "name": "",
          "type": "uint256[4]"
        },
        {
          "internalType": "uint256",
          "name": "",
          "type": "uint256"
        }
      ],
      "stateMutability": "view",
      "type": "function"
    },
    {
      "inputs": [
        {
          "internalType": "address",
          "name": "owner",
          "type": "address"
        },
        {
          "internalType": "address",
          "name": "operator",
          "type": "address"
        }
      ],
      "name": "isApprovedForAll",
      "outputs": [
        {
          "internalType": "bool",
          "name": "",
          "type": "bool"
        }
      ],
      "stateMutability": "view",
      "type": "function"
    },
    {
      "inputs": [
        {
          "internalType": "uint256[13]",
          "name": "_sujiko",
          "type": "uint256[13]"
        }
      ],
      "name": "isNewSujiko",
      "outputs": [
        {
          "internalType": "bool",
          "name": "",
          "type": "bool"
        }
      ],
      "stateMutability": "view",
      "type": "function"
    },
    {
      "inputs": [],
      "name": "limitSujikos",
      "outputs": [
        {
          "internalType": "uint256",
          "name": "",
          "type": "uint256"
        }
      ],
      "stateMutability": "view",
      "type": "function"
    },
    {
      "inputs": [],
      "name": "name",
      "outputs": [
        {
          "internalType": "string",
          "name": "",
          "type": "string"
        }
      ],
      "stateMutability": "view",
      "type": "function"
    },
    {
      "inputs": [
        {
          "internalType": "uint256",
          "name": "tokenId",
          "type": "uint256"
        }
      ],
      "name": "ownerOf",
      "outputs": [
        {
          "internalType": "address",
          "name": "",
          "type": "address"
        }
      ],
      "stateMutability": "view",
      "type": "function"
    },
    {
      "inputs": [],
      "name": "random",
      "outputs": [
        {
          "internalType": "uint256",
          "name": "",
          "type": "uint256"
        }
      ],
      "stateMutability": "view",
      "type": "function"
    },
    {
      "inputs": [
        {
          "internalType": "address",
          "name": "from",
          "type": "address"
        },
        {
          "internalType": "address",
          "name": "to",
          "type": "address"
        },
        {
          "internalType": "uint256",
          "name": "tokenId",
          "type": "uint256"
        }
      ],
      "name": "safeTransferFrom",
      "outputs": [],
      "stateMutability": "nonpayable",
      "type": "function"
    },
    {
      "inputs": [
        {
          "internalType": "address",
          "name": "from",
          "type": "address"
        },
        {
          "internalType": "address",
          "name": "to",
          "type": "address"
        },
        {
          "internalType": "uint256",
          "name": "tokenId",
          "type": "uint256"
        },
        {
          "internalType": "bytes",
          "name": "_data",
          "type": "bytes"
        }
      ],
      "name": "safeTransferFrom",
      "outputs": [],
      "stateMutability": "nonpayable",
      "type": "function"
    },
    {
      "inputs": [
        {
          "internalType": "address",
          "name": "operator",
          "type": "address"
        },
        {
          "internalType": "bool",
          "name": "approved",
          "type": "bool"
        }
      ],
      "name": "setApprovalForAll",
      "outputs": [],
      "stateMutability": "nonpayable",
      "type": "function"
    },
    {
      "inputs": [
        {
          "internalType": "bytes4",
          "name": "interfaceId",
          "type": "bytes4"
        }
      ],
      "name": "supportsInterface",
      "outputs": [
        {
          "internalType": "bool",
          "name": "",
          "type": "bool"
        }
      ],
      "stateMutability": "view",
      "type": "function"
    },
    {
      "inputs": [],
      "name": "symbol",
      "outputs": [
        {
          "internalType": "string",
          "name": "",
          "type": "string"
        }
      ],
      "stateMutability": "view",
      "type": "function"
    },
    {
      "inputs": [
        {
          "internalType": "uint256",
          "name": "tokenId",
          "type": "uint256"
        }
      ],
      "name": "tokenURI",
      "outputs": [
        {
          "internalType": "string",
          "name": "",
          "type": "string"
        }
      ],
      "stateMutability": "view",
      "type": "function"
    },
    {
      "inputs": [
        {
          "internalType": "address",
          "name": "from",
          "type": "address"
        },
        {
          "internalType": "address",
          "name": "to",
          "type": "address"
        },
        {
          "internalType": "uint256",
          "name": "tokenId",
          "type": "uint256"
        }
      ],
      "name": "transferFrom",
      "outputs": [],
      "stateMutability": "nonpayable",
      "type": "function"
    },
    {
      "inputs": [],
      "name": "verifierAddr",
      "outputs": [
        {
          "internalType": "address",
          "name": "",
          "type": "address"
        }
      ],
      "stateMutability": "view",
      "type": "function"
    },
    {
      "inputs": [
        {
          "internalType": "uint256[2]",
          "name": "a",
          "type": "uint256[2]"
        },
        {
          "internalType": "uint256[2][2]",
          "name": "b",
          "type": "uint256[2][2]"
        },
        {
          "internalType": "uint256[2]",
          "name": "c",
          "type": "uint256[2]"
        },
        {
          "internalType": "uint256[13]",
          "name": "input",
          "type": "uint256[13]"
        }
      ],
      "name": "verifyProof",
      "outputs": [
        {
          "internalType": "bool",
          "name": "",
          "type": "bool"
        }
      ],
      "stateMutability": "view",
      "type": "function"
    },
    {
      "inputs": [
        {
          "internalType": "uint256[2]",
          "name": "a",
          "type": "uint256[2]"
        },
        {
          "internalType": "uint256[2][2]",
          "name": "b",
          "type": "uint256[2][2]"
        },
        {
          "internalType": "uint256[2]",
          "name": "c",
          "type": "uint256[2]"
        },
        {
          "internalType": "uint256[13]",
          "name": "input",
          "type": "uint256[13]"
        }
      ],
      "name": "verifySujiko",
      "outputs": [
        {
          "internalType": "bool",
          "name": "",
          "type": "bool"
        }
      ],
      "stateMutability": "view",
      "type": "function"
    }
  ],
  "bytecode": "0x608060405260405180610120016040528060f1815260200162004b3960f191396101ab908051906020019062000037929190620002f2565b506040518060400160405280600d81526020017f3c2f746578743e3c2f7376673e000000000000000000000000000000000000008152506101ac908051906020019062000086929190620002f2565b503480156200009457600080fd5b5060405162004c2a38038062004c2a8339818101604052810190620000ba919062000443565b6040518060400160405280600681526020017f53756a696b6f00000000000000000000000000000000000000000000000000008152506040518060400160405280600881526020017f5a4b53554a494b4f00000000000000000000000000000000000000000000000081525081600090805190602001906200013e929190620002f2565b50806001908051906020019062000157929190620002f2565b50505080600960006101000a81548173ffffffffffffffffffffffffffffffffffffffff021916908373ffffffffffffffffffffffffffffffffffffffff1602179055506020600a8190555060405180604001604052806040518061012001604052806000815260200160008152602001600081526020016000815260200160008152602001600081526020016008815260200160008152602001600781525081526020016040518060800160405280600a815260200160158152602001601281526020016014815250815250600b6200023d6008620002ce60201b620015861760201c565b6020811062000275577f4e487b7100000000000000000000000000000000000000000000000000000000600052603260045260246000fd5b600d02016000820151816000019060096200029292919062000383565b50602082015181600901906004620002ac929190620003c8565b50905050620002c76008620002dc60201b620015941760201c565b5062000522565b600081600001549050919050565b6001816000016000828254019250508190555050565b8280546200030090620004a3565b90600052602060002090601f01602090048101928262000324576000855562000370565b82601f106200033f57805160ff191683800117855562000370565b8280016001018555821562000370579182015b828111156200036f57825182559160200191906001019062000352565b5b5090506200037f91906200040d565b5090565b8260098101928215620003b5579160200282015b82811115620003b457825182559160200191906001019062000397565b5b509050620003c491906200040d565b5090565b8260048101928215620003fa579160200282015b82811115620003f9578251825591602001919060010190620003dc565b5b5090506200040991906200040d565b5090565b5b80821115620004285760008160009055506001016200040e565b5090565b6000815190506200043d8162000508565b92915050565b6000602082840312156200045657600080fd5b600062000466848285016200042c565b91505092915050565b60006200047c8262000483565b9050919050565b600073ffffffffffffffffffffffffffffffffffffffff82169050919050565b60006002820490506001821680620004bc57607f821691505b60208210811415620004d357620004d2620004d9565b5b50919050565b7f4e487b7100000000000000000000000000000000000000000000000000000000600052602260045260246000fd5b62000513816200046f565b81146200051f57600080fd5b50565b61460780620005326000396000f3fe608060405234801561001057600080fd5b50600436106101425760003560e01c806370a08231116100b8578063abdc18b81161007c578063abdc18b81461039d578063b88d4fde146103cd578063c87b56dd146103e9578063e985e9c514610419578063f143a75e14610449578063fc79a9f51461047957610142565b806370a08231146102e55780637d971517146103155780638f476f0a1461034557806395d89b4114610363578063a22cb4651461038157610142565b806338e7e8511161010a57806338e7e851146101fd57806342842e0e1461022d5780635ec01e4d146102495780636352211e14610267578063648ca8dd14610297578063663ea2e2146102c757610142565b806301ffc9a71461014757806306fdde0314610177578063081812fc14610195578063095ea7b3146101c557806323b872dd146101e1575b600080fd5b610161600480360381019061015c9190612bce565b6104ab565b60405161016e91906135b0565b60405180910390f35b61017f61058d565b60405161018c91906135cb565b60405180910390f35b6101af60048036038101906101aa9190612c20565b61061f565b6040516101bc91906134c8565b60405180910390f35b6101df60048036038101906101da9190612ada565b6106a4565b005b6101fb60048036038101906101f691906129d4565b6107bc565b005b61021760048036038101906102129190612b40565b61081c565b60405161022491906135b0565b60405180910390f35b610247600480360381019061024291906129d4565b6108be565b005b6102516108de565b60405161025e919061388d565b60405180910390f35b610281600480360381019061027c9190612c20565b610925565b60405161028e91906134c8565b60405180910390f35b6102b160048036038101906102ac9190612b40565b6109d7565b6040516102be91906135b0565b60405180910390f35b6102cf610a92565b6040516102dc91906134c8565b60405180910390f35b6102ff60048036038101906102fa919061296f565b610ab8565b60405161030c919061388d565b60405180910390f35b61032f600480360381019061032a9190612b16565b610b70565b60405161033c91906135b0565b60405180910390f35b61034d610d98565b60405161035a919061388d565b60405180910390f35b61036b610d9e565b60405161037891906135cb565b60405180910390f35b61039b60048036038101906103969190612a9e565b610e30565b005b6103b760048036038101906103b29190612b16565b610e46565b6040516103c491906135b0565b60405180910390f35b6103e760048036038101906103e29190612a23565b611101565b005b61040360048036038101906103fe9190612c20565b611163565b60405161041091906135cb565b60405180910390f35b610433600480360381019061042e9190612998565b6112b5565b60405161044091906135b0565b60405180910390f35b610463600480360381019061045e9190612b40565b611349565b60405161047091906135b0565b60405180910390f35b610493600480360381019061048e9190612c20565b611406565b6040516104a293929190613576565b60405180910390f35b60007f80ac58cd000000000000000000000000000000000000000000000000000000007bffffffffffffffffffffffffffffffffffffffffffffffffffffffff1916827bffffffffffffffffffffffffffffffffffffffffffffffffffffffff1916148061057657507f5b5e139f000000000000000000000000000000000000000000000000000000007bffffffffffffffffffffffffffffffffffffffffffffffffffffffff1916827bffffffffffffffffffffffffffffffffffffffffffffffffffffffff1916145b806105865750610585826115aa565b5b9050919050565b60606000805461059c90613c7f565b80601f01602080910402602001604051908101604052809291908181526020018280546105c890613c7f565b80156106155780601f106105ea57610100808354040283529160200191610615565b820191906000526020600020905b8154815290600101906020018083116105f857829003601f168201915b5050505050905090565b600061062a82611614565b610669576040517f08c379a0000000000000000000000000000000000000000000000000000000008152600401610660906137ad565b60405180910390fd5b6004600083815260200190815260200160002060009054906101000a900473ffffffffffffffffffffffffffffffffffffffff169050919050565b60006106af82610925565b90508073ffffffffffffffffffffffffffffffffffffffff168373ffffffffffffffffffffffffffffffffffffffff161415610720576040517f08c379a0000000000000000000000000000000000000000000000000000000008152600401610717906137ed565b60405180910390fd5b8073ffffffffffffffffffffffffffffffffffffffff1661073f611680565b73ffffffffffffffffffffffffffffffffffffffff16148061076e575061076d81610768611680565b6112b5565b5b6107ad576040517f08c379a00000000000000000000000000000000000000000000000000000000081526004016107a4906136ed565b60405180910390fd5b6107b78383611688565b505050565b6107cd6107c7611680565b82611741565b61080c576040517f08c379a00000000000000000000000000000000000000000000000000000000081526004016108039061382d565b60405180910390fd5b61081783838361181f565b505050565b600061082a85858585611349565b610869576040517f08c379a00000000000000000000000000000000000000000000000000000000081526004016108609061386d565b60405180910390fd5b61087282610b70565b156108b2576040517f08c379a00000000000000000000000000000000000000000000000000000000081526004016108a9906135ed565b60405180910390fd5b60019050949350505050565b6108d983838360405180602001604052806000815250611101565b505050565b60006108ea6008611586565b42446040516020016108fd92919061349c565b6040516020818303038152906040528051906020012060001c6109209190613d35565b905090565b6000806002600084815260200190815260200160002060009054906101000a900473ffffffffffffffffffffffffffffffffffffffff169050600073ffffffffffffffffffffffffffffffffffffffff168173ffffffffffffffffffffffffffffffffffffffff1614156109ce576040517f08c379a00000000000000000000000000000000000000000000000000000000081526004016109c59061372d565b60405180910390fd5b80915050919050565b60006109e585858585611349565b610a24576040517f08c379a0000000000000000000000000000000000000000000000000000000008152600401610a1b9061386d565b60405180910390fd5b610a2d82610b70565b610a6c576040517f08c379a0000000000000000000000000000000000000000000000000000000008152600401610a639061384d565b60405180910390fd5b610a7582610e46565b610a7e57600080fd5b610a86611a86565b60019050949350505050565b600960009054906101000a900473ffffffffffffffffffffffffffffffffffffffff1681565b60008073ffffffffffffffffffffffffffffffffffffffff168273ffffffffffffffffffffffffffffffffffffffff161415610b29576040517f08c379a0000000000000000000000000000000000000000000000000000000008152600401610b209061370d565b60405180910390fd5b600360008373ffffffffffffffffffffffffffffffffffffffff1673ffffffffffffffffffffffffffffffffffffffff168152602001908152602001600020549050919050565b600080610b7d6008611586565b905060005b81811015610d8c5760006001905060005b6009811015610c7457818015610c5f57508581600d8110610bdd577f4e487b7100000000000000000000000000000000000000000000000000000000600052603260045260246000fd5b6020020151600b8460208110610c1c577f4e487b7100000000000000000000000000000000000000000000000000000000600052603260045260246000fd5b600d02016000018260098110610c5b577f4e487b7100000000000000000000000000000000000000000000000000000000600052603260045260246000fd5b0154145b91508080610c6c90613ce2565b915050610b93565b5060005b6004811015610d6557818015610d50575085816009610c979190613ab4565b600d8110610cce577f4e487b7100000000000000000000000000000000000000000000000000000000600052603260045260246000fd5b6020020151600b8460208110610d0d577f4e487b7100000000000000000000000000000000000000000000000000000000600052603260045260246000fd5b600d02016009018260048110610d4c577f4e487b7100000000000000000000000000000000000000000000000000000000600052603260045260246000fd5b0154145b91508080610d5d90613ce2565b915050610c78565b508015610d785760009350505050610d93565b508080610d8490613ce2565b915050610b82565b5060019150505b919050565b600a5481565b606060018054610dad90613c7f565b80601f0160208091040260200160405190810160405280929190818152602001828054610dd990613c7f565b8015610e265780601f10610dfb57610100808354040283529160200191610e26565b820191906000526020600020905b815481529060010190602001808311610e0957829003601f168201915b5050505050905090565b610e42610e3b611680565b8383611b3a565b5050565b6000600a54610e556008611586565b10610e95576040517f08c379a0000000000000000000000000000000000000000000000000000000008152600401610e8c906136cd565b60405180910390fd5b6000604051806040016040528060405180610120016040528060008152602001600081526020016000815260200160008152602001600081526020016000815260200160008152602001600081526020016000815250815260200160405180608001604052806000815260200160008152602001600081526020016000815250815250905060005b6009811015610fbd578381600d8110610f5f577f4e487b7100000000000000000000000000000000000000000000000000000000600052603260045260246000fd5b602002015182600001518260098110610fa1577f4e487b7100000000000000000000000000000000000000000000000000000000600052603260045260246000fd5b6020020181815250508080610fb590613ce2565b915050610f1d565b506000600990505b600d811015611071578381600d8110611007577f4e487b7100000000000000000000000000000000000000000000000000000000600052603260045260246000fd5b6020020151826020015160098361101e9190613b95565b60048110611055577f4e487b7100000000000000000000000000000000000000000000000000000000600052603260045260246000fd5b602002018181525050808061106990613ce2565b915050610fc5565b5080600b61107f6008611586565b602081106110b6577f4e487b7100000000000000000000000000000000000000000000000000000000600052603260045260246000fd5b600d02016000820151816000019060096110d1929190612583565b506020820151816009019060046110e99291906125c3565b509050506110f76008611594565b6001915050919050565b61111261110c611680565b83611741565b611151576040517f08c379a00000000000000000000000000000000000000000000000000000000081526004016111489061382d565b60405180910390fd5b61115d84848484611ca7565b50505050565b606061116e82611614565b6111ad576040517f08c379a00000000000000000000000000000000000000000000000000000000081526004016111a49061378d565b60405180910390fd5b60006006600084815260200190815260200160002080546111cd90613c7f565b80601f01602080910402602001604051908101604052809291908181526020018280546111f990613c7f565b80156112465780601f1061121b57610100808354040283529160200191611246565b820191906000526020600020905b81548152906001019060200180831161122957829003601f168201915b505050505090506000611257611d03565b905060008151141561126d5781925050506112b0565b6000825111156112a257808260405160200161128a9291906133cc565b604051602081830303815290604052925050506112b0565b6112ab84611d1a565b925050505b919050565b6000600560008473ffffffffffffffffffffffffffffffffffffffff1673ffffffffffffffffffffffffffffffffffffffff16815260200190815260200160002060008373ffffffffffffffffffffffffffffffffffffffff1673ffffffffffffffffffffffffffffffffffffffff16815260200190815260200160002060009054906101000a900460ff16905092915050565b6000600960009054906101000a900473ffffffffffffffffffffffffffffffffffffffff1673ffffffffffffffffffffffffffffffffffffffff1663f143a75e868686866040518563ffffffff1660e01b81526004016113ac949392919061352f565b60206040518083038186803b1580156113c457600080fd5b505afa1580156113d8573d6000803e3d6000fd5b505050506040513d601f19601f820116820180604052508101906113fc9190612ba5565b9050949350505050565b61140e612603565b611416612626565b6000808410158015611430575061142d6008611586565b84105b61146f576040517f08c379a00000000000000000000000000000000000000000000000000000000081526004016114669061380d565b60405180910390fd5b600b84602081106114a9577f4e487b7100000000000000000000000000000000000000000000000000000000600052603260045260246000fd5b600d0201600001600b85602081106114ea577f4e487b7100000000000000000000000000000000000000000000000000000000600052603260045260246000fd5b600d02016009016114fb6008611586565b82600980602002604051908101604052809291908260098015611533576020028201915b81548152602001906001019080831161151f575b5050505050925081600480602002604051908101604052809291908260048015611572576020028201915b81548152602001906001019080831161155e575b505050505091509250925092509193909250565b600081600001549050919050565b6001816000016000828254019250508190555050565b60007f01ffc9a7000000000000000000000000000000000000000000000000000000007bffffffffffffffffffffffffffffffffffffffffffffffffffffffff1916827bffffffffffffffffffffffffffffffffffffffffffffffffffffffff1916149050919050565b60008073ffffffffffffffffffffffffffffffffffffffff166002600084815260200190815260200160002060009054906101000a900473ffffffffffffffffffffffffffffffffffffffff1673ffffffffffffffffffffffffffffffffffffffff1614159050919050565b600033905090565b816004600083815260200190815260200160002060006101000a81548173ffffffffffffffffffffffffffffffffffffffff021916908373ffffffffffffffffffffffffffffffffffffffff160217905550808273ffffffffffffffffffffffffffffffffffffffff166116fb83610925565b73ffffffffffffffffffffffffffffffffffffffff167f8c5be1e5ebec7d5bd14f71427d1e84f3dd0314c0f7b2291e5b200ac8c7c3b92560405160405180910390a45050565b600061174c82611614565b61178b576040517f08c379a0000000000000000000000000000000000000000000000000000000008152600401611782906136ad565b60405180910390fd5b600061179683610925565b90508073ffffffffffffffffffffffffffffffffffffffff168473ffffffffffffffffffffffffffffffffffffffff16148061180557508373ffffffffffffffffffffffffffffffffffffffff166117ed8461061f565b73ffffffffffffffffffffffffffffffffffffffff16145b80611816575061181581856112b5565b5b91505092915050565b8273ffffffffffffffffffffffffffffffffffffffff1661183f82610925565b73ffffffffffffffffffffffffffffffffffffffff1614611895576040517f08c379a000000000000000000000000000000000000000000000000000000000815260040161188c9061362d565b60405180910390fd5b600073ffffffffffffffffffffffffffffffffffffffff168273ffffffffffffffffffffffffffffffffffffffff161415611905576040517f08c379a00000000000000000000000000000000000000000000000000000000081526004016118fc9061366d565b60405180910390fd5b611910838383611dc1565b61191b600082611688565b6001600360008573ffffffffffffffffffffffffffffffffffffffff1673ffffffffffffffffffffffffffffffffffffffff168152602001908152602001600020600082825461196b9190613b95565b925050819055506001600360008473ffffffffffffffffffffffffffffffffffffffff1673ffffffffffffffffffffffffffffffffffffffff16815260200190815260200160002060008282546119c29190613ab4565b92505081905550816002600083815260200190815260200160002060006101000a81548173ffffffffffffffffffffffffffffffffffffffff021916908373ffffffffffffffffffffffffffffffffffffffff160217905550808273ffffffffffffffffffffffffffffffffffffffff168473ffffffffffffffffffffffffffffffffffffffff167fddf252ad1be2c89b69c2b068fc378daa952ba7f163c4a11628f55a4df523b3ef60405160405180910390a4611a81838383611dc6565b505050565b6000611a926008611586565b905060006101ab611aa283611dcb565b6101ac604051602001611ab7939291906133f0565b60405160208183030381529060405290506000611afa611ad683611f78565b604051602001611ae69190613437565b604051602081830303815290604052611f78565b9050600081604051602001611b0f919061347a565b6040516020818303038152906040529050611b2a3385612102565b611b348482612120565b50505050565b8173ffffffffffffffffffffffffffffffffffffffff168373ffffffffffffffffffffffffffffffffffffffff161415611ba9576040517f08c379a0000000000000000000000000000000000000000000000000000000008152600401611ba09061368d565b60405180910390fd5b80600560008573ffffffffffffffffffffffffffffffffffffffff1673ffffffffffffffffffffffffffffffffffffffff16815260200190815260200160002060008473ffffffffffffffffffffffffffffffffffffffff1673ffffffffffffffffffffffffffffffffffffffff16815260200190815260200160002060006101000a81548160ff0219169083151502179055508173ffffffffffffffffffffffffffffffffffffffff168373ffffffffffffffffffffffffffffffffffffffff167f17307eab39ab6107e8899845ad3d59bd9653f200f220920489ca2b5937696c3183604051611c9a91906135b0565b60405180910390a3505050565b611cb284848461181f565b611cbe84848484612194565b611cfd576040517f08c379a0000000000000000000000000000000000000000000000000000000008152600401611cf49061360d565b60405180910390fd5b50505050565b606060405180602001604052806000815250905090565b6060611d2582611614565b611d64576040517f08c379a0000000000000000000000000000000000000000000000000000000008152600401611d5b906137cd565b60405180910390fd5b6000611d6e611d03565b90506000815111611d8e5760405180602001604052806000815250611db9565b80611d9884611dcb565b604051602001611da99291906133cc565b6040516020818303038152906040525b915050919050565b505050565b505050565b60606000821415611e13576040518060400160405280600181526020017f30000000000000000000000000000000000000000000000000000000000000008152509050611f73565b600082905060005b60008214611e45578080611e2e90613ce2565b915050600a82611e3e9190613b0a565b9150611e1b565b60008167ffffffffffffffff811115611e87577f4e487b7100000000000000000000000000000000000000000000000000000000600052604160045260246000fd5b6040519080825280601f01601f191660200182016040528015611eb95781602001600182028036833780820191505090505b5090505b60008514611f6c57600182611ed29190613b95565b9150600a85611ee19190613d35565b6030611eed9190613ab4565b60f81b818381518110611f29577f4e487b7100000000000000000000000000000000000000000000000000000000600052603260045260246000fd5b60200101907effffffffffffffffffffffffffffffffffffffffffffffffffffffffffffff1916908160001a905350600a85611f659190613b0a565b9450611ebd565b8093505050505b919050565b6060600082511415611f9b576040518060200160405280600081525090506120fd565b60006040518060600160405280604081526020016145926040913990506000600360028551611fca9190613ab4565b611fd49190613b0a565b6004611fe09190613b3b565b67ffffffffffffffff81111561201f577f4e487b7100000000000000000000000000000000000000000000000000000000600052604160045260246000fd5b6040519080825280601f01601f1916602001820160405280156120515781602001600182028036833780820191505090505b509050600182016020820185865187015b808210156120bd576003820191508151603f8160121c168501518453600184019350603f81600c1c168501518453600184019350603f8160061c168501518453600184019350603f8116850151845360018401935050612062565b50506003865106600181146120d957600281146120ec576120f4565b603d6001830353603d60028303536120f4565b603d60018303535b50505080925050505b919050565b61211c82826040518060200160405280600081525061232b565b5050565b61212982611614565b612168576040517f08c379a000000000000000000000000000000000000000000000000000000000815260040161215f9061374d565b60405180910390fd5b8060066000848152602001908152602001600020908051906020019061218f929190612648565b505050565b60006121b58473ffffffffffffffffffffffffffffffffffffffff16612386565b1561231e578373ffffffffffffffffffffffffffffffffffffffff1663150b7a026121de611680565b8786866040518563ffffffff1660e01b815260040161220094939291906134e3565b602060405180830381600087803b15801561221a57600080fd5b505af192505050801561224b57506040513d601f19601f820116820180604052508101906122489190612bf7565b60015b6122ce573d806000811461227b576040519150601f19603f3d011682016040523d82523d6000602084013e612280565b606091505b506000815114156122c6576040517f08c379a00000000000000000000000000000000000000000000000000000000081526004016122bd9061360d565b60405180910390fd5b805181602001fd5b63150b7a0260e01b7bffffffffffffffffffffffffffffffffffffffffffffffffffffffff1916817bffffffffffffffffffffffffffffffffffffffffffffffffffffffff191614915050612323565b600190505b949350505050565b61233583836123a9565b6123426000848484612194565b612381576040517f08c379a00000000000000000000000000000000000000000000000000000000081526004016123789061360d565b60405180910390fd5b505050565b6000808273ffffffffffffffffffffffffffffffffffffffff163b119050919050565b600073ffffffffffffffffffffffffffffffffffffffff168273ffffffffffffffffffffffffffffffffffffffff161415612419576040517f08c379a00000000000000000000000000000000000000000000000000000000081526004016124109061376d565b60405180910390fd5b61242281611614565b15612462576040517f08c379a00000000000000000000000000000000000000000000000000000000081526004016124599061364d565b60405180910390fd5b61246e60008383611dc1565b6001600360008473ffffffffffffffffffffffffffffffffffffffff1673ffffffffffffffffffffffffffffffffffffffff16815260200190815260200160002060008282546124be9190613ab4565b92505081905550816002600083815260200190815260200160002060006101000a81548173ffffffffffffffffffffffffffffffffffffffff021916908373ffffffffffffffffffffffffffffffffffffffff160217905550808273ffffffffffffffffffffffffffffffffffffffff16600073ffffffffffffffffffffffffffffffffffffffff167fddf252ad1be2c89b69c2b068fc378daa952ba7f163c4a11628f55a4df523b3ef60405160405180910390a461257f60008383611dc6565b5050565b82600981019282156125b2579160200282015b828111156125b1578251825591602001919060010190612596565b5b5090506125bf91906126ce565b5090565b82600481019282156125f2579160200282015b828111156125f15782518255916020019190600101906125d6565b5b5090506125ff91906126ce565b5090565b604051806101200160405280600990602082028036833780820191505090505090565b6040518060800160405280600490602082028036833780820191505090505090565b82805461265490613c7f565b90600052602060002090601f01602090048101928261267657600085556126bd565b82601f1061268f57805160ff19168380011785556126bd565b828001600101855582156126bd579182015b828111156126bc5782518255916020019190600101906126a1565b5b5090506126ca91906126ce565b5090565b5b808211156126e75760008160009055506001016126cf565b5090565b60006126fe6126f9846138cd565b6138a8565b9050808285604086028201111561271457600080fd5b60005b85811015612744578161272a88826128b5565b845260208401935060408301925050600181019050612717565b5050509392505050565b600061276161275c846138f3565b6138a8565b9050808285602086028201111561277757600080fd5b60005b858110156127a7578161278d888261295a565b84526020840193506020830192505060018101905061277a565b5050509392505050565b60006127c46127bf84613919565b6138a8565b905080828560208602820111156127da57600080fd5b60005b8581101561280a57816127f0888261295a565b8452602084019350602083019250506001810190506127dd565b5050509392505050565b60006128276128228461393f565b6138a8565b90508281526020810184848401111561283f57600080fd5b61284a848285613c3d565b509392505050565b60008135905061286181614535565b92915050565b600082601f83011261287857600080fd5b60026128858482856126eb565b91505092915050565b600082601f83011261289f57600080fd5b600d6128ac84828561274e565b91505092915050565b600082601f8301126128c657600080fd5b60026128d38482856127b1565b91505092915050565b6000813590506128eb8161454c565b92915050565b6000815190506129008161454c565b92915050565b60008135905061291581614563565b92915050565b60008151905061292a81614563565b92915050565b600082601f83011261294157600080fd5b8135612951848260208601612814565b91505092915050565b6000813590506129698161457a565b92915050565b60006020828403121561298157600080fd5b600061298f84828501612852565b91505092915050565b600080604083850312156129ab57600080fd5b60006129b985828601612852565b92505060206129ca85828601612852565b9150509250929050565b6000806000606084860312156129e957600080fd5b60006129f786828701612852565b9350506020612a0886828701612852565b9250506040612a198682870161295a565b9150509250925092565b60008060008060808587031215612a3957600080fd5b6000612a4787828801612852565b9450506020612a5887828801612852565b9350506040612a698782880161295a565b925050606085013567ffffffffffffffff811115612a8657600080fd5b612a9287828801612930565b91505092959194509250565b60008060408385031215612ab157600080fd5b6000612abf85828601612852565b9250506020612ad0858286016128dc565b9150509250929050565b60008060408385031215612aed57600080fd5b6000612afb85828601612852565b9250506020612b0c8582860161295a565b9150509250929050565b60006101a08284031215612b2957600080fd5b6000612b378482850161288e565b91505092915050565b6000806000806102a08587031215612b5757600080fd5b6000612b65878288016128b5565b9450506040612b7687828801612867565b93505060c0612b87878288016128b5565b925050610100612b998782880161288e565b91505092959194509250565b600060208284031215612bb757600080fd5b6000612bc5848285016128f1565b91505092915050565b600060208284031215612be057600080fd5b6000612bee84828501612906565b91505092915050565b600060208284031215612c0957600080fd5b6000612c178482850161291b565b91505092915050565b600060208284031215612c3257600080fd5b6000612c408482850161295a565b91505092915050565b6000612c558383612d36565b60408301905092915050565b6000612c6d8383613397565b60208301905092915050565b612c8281613bc9565b82525050565b612c91816139b7565b612c9b8184613a45565b9250612ca682613970565b8060005b83811015612cd7578151612cbe8782612c49565b9650612cc983613a04565b925050600181019050612caa565b505050505050565b612ce8816139c2565b612cf28184613a50565b9250612cfd8261397a565b8060005b83811015612d2e578151612d158782612c61565b9650612d2083613a11565b925050600181019050612d01565b505050505050565b612d3f816139cd565b612d498184613a5b565b9250612d5482613984565b8060005b83811015612d85578151612d6c8782612c61565b9650612d7783613a1e565b925050600181019050612d58565b505050505050565b612d96816139cd565b612da08184613a66565b9250612dab82613984565b8060005b83811015612ddc578151612dc38782612c61565b9650612dce83613a1e565b925050600181019050612daf565b505050505050565b612ded816139d8565b612df78184613a71565b9250612e028261398e565b8060005b83811015612e33578151612e1a8782612c61565b9650612e2583613a2b565b925050600181019050612e06565b505050505050565b612e44816139e3565b612e4e8184613a7c565b9250612e5982613998565b8060005b83811015612e8a578151612e718782612c61565b9650612e7c83613a38565b925050600181019050612e5d565b505050505050565b612e9b81613bdb565b82525050565b6000612eac826139ee565b612eb68185613a87565b9350612ec6818560208601613c4c565b612ecf81613e22565b840191505092915050565b6000612ee5826139f9565b612eef8185613a98565b9350612eff818560208601613c4c565b612f0881613e22565b840191505092915050565b6000612f1e826139f9565b612f288185613aa9565b9350612f38818560208601613c4c565b80840191505092915050565b60008154612f5181613c7f565b612f5b8186613aa9565b94506001821660008114612f765760018114612f8757612fba565b60ff19831686528186019350612fba565b612f90856139a2565b60005b83811015612fb257815481890152600182019150602081019050612f93565b838801955050505b50505092915050565b6000612fd0601583613a98565b9150612fdb82613e33565b602082019050919050565b6000612ff3603283613a98565b9150612ffe82613e5c565b604082019050919050565b6000613016602583613a98565b915061302182613eab565b604082019050919050565b6000613039601c83613a98565b915061304482613efa565b602082019050919050565b600061305c602483613a98565b915061306782613f23565b604082019050919050565b600061307f601983613a98565b915061308a82613f72565b602082019050919050565b60006130a2607b83613aa9565b91506130ad82613f9b565b607b82019050919050565b60006130c5602c83613a98565b91506130d082614036565b604082019050919050565b60006130e8601f83613a98565b91506130f382614085565b602082019050919050565b600061310b600183613aa9565b9150613116826140ae565b600182019050919050565b600061312e603883613a98565b9150613139826140d7565b604082019050919050565b6000613151602a83613a98565b915061315c82614126565b604082019050919050565b6000613174602983613a98565b915061317f82614175565b604082019050919050565b6000613197602e83613a98565b91506131a2826141c4565b604082019050919050565b60006131ba601383613aa9565b91506131c582614213565b601382019050919050565b60006131dd602683613aa9565b91506131e88261423c565b602682019050919050565b6000613200600283613aa9565b915061320b8261428b565b600282019050919050565b6000613223602083613a98565b915061322e826142b4565b602082019050919050565b6000613246603183613a98565b9150613251826142dd565b604082019050919050565b6000613269602c83613a98565b91506132748261432c565b604082019050919050565b600061328c602f83613a98565b91506132978261437b565b604082019050919050565b60006132af600a83613aa9565b91506132ba826143ca565b600a82019050919050565b60006132d2602183613a98565b91506132dd826143f3565b604082019050919050565b60006132f5601d83613aa9565b915061330082614442565b601d82019050919050565b6000613318601b83613a98565b91506133238261446b565b602082019050919050565b600061333b603183613a98565b915061334682614494565b604082019050919050565b600061335e601b83613a98565b9150613369826144e3565b602082019050919050565b6000613381601583613a98565b915061338c8261450c565b602082019050919050565b6133a081613c33565b82525050565b6133af81613c33565b82525050565b6133c66133c182613c33565b613d2b565b82525050565b60006133d88285612f13565b91506133e48284612f13565b91508190509392505050565b60006133fc8286612f44565b9150613407826131d0565b91506134138285612f13565b915061341e826130fe565b915061342a8284612f44565b9150819050949350505050565b6000613442826132a2565b915061344d826131ad565b915061345882613095565b91506134648284612f13565b915061346f826131f3565b915081905092915050565b6000613485826132e8565b91506134918284612f13565b915081905092915050565b60006134a882856133b5565b6020820191506134b882846133b5565b6020820191508190509392505050565b60006020820190506134dd6000830184612c79565b92915050565b60006080820190506134f86000830187612c79565b6135056020830186612c79565b61351260408301856133a6565b81810360608301526135248184612ea1565b905095945050505050565b60006102a0820190506135456000830187612d8d565b6135526040830186612c88565b61355f60c0830185612d8d565b61356d610100830184612cdf565b95945050505050565b60006101c08201905061358c6000830186612e3b565b61359a610120830185612de4565b6135a86101a08301846133a6565b949350505050565b60006020820190506135c56000830184612e92565b92915050565b600060208201905081810360008301526135e58184612eda565b905092915050565b6000602082019050818103600083015261360681612fc3565b9050919050565b6000602082019050818103600083015261362681612fe6565b9050919050565b6000602082019050818103600083015261364681613009565b9050919050565b600060208201905081810360008301526136668161302c565b9050919050565b600060208201905081810360008301526136868161304f565b9050919050565b600060208201905081810360008301526136a681613072565b9050919050565b600060208201905081810360008301526136c6816130b8565b9050919050565b600060208201905081810360008301526136e6816130db565b9050919050565b6000602082019050818103600083015261370681613121565b9050919050565b6000602082019050818103600083015261372681613144565b9050919050565b6000602082019050818103600083015261374681613167565b9050919050565b600060208201905081810360008301526137668161318a565b9050919050565b6000602082019050818103600083015261378681613216565b9050919050565b600060208201905081810360008301526137a681613239565b9050919050565b600060208201905081810360008301526137c68161325c565b9050919050565b600060208201905081810360008301526137e68161327f565b9050919050565b60006020820190508181036000830152613806816132c5565b9050919050565b600060208201905081810360008301526138268161330b565b9050919050565b600060208201905081810360008301526138468161332e565b9050919050565b6000602082019050818103600083015261386681613351565b9050919050565b6000602082019050818103600083015261388681613374565b9050919050565b60006020820190506138a260008301846133a6565b92915050565b60006138b26138c3565b90506138be8282613cb1565b919050565b6000604051905090565b600067ffffffffffffffff8211156138e8576138e7613df3565b5b602082029050919050565b600067ffffffffffffffff82111561390e5761390d613df3565b5b602082029050919050565b600067ffffffffffffffff82111561393457613933613df3565b5b602082029050919050565b600067ffffffffffffffff82111561395a57613959613df3565b5b61396382613e22565b9050602081019050919050565b6000819050919050565b6000819050919050565b6000819050919050565b6000819050919050565b6000819050919050565b60008190508160005260206000209050919050565b600060029050919050565b6000600d9050919050565b600060029050919050565b600060049050919050565b600060099050919050565b600081519050919050565b600081519050919050565b6000602082019050919050565b6000602082019050919050565b6000602082019050919050565b6000602082019050919050565b6000602082019050919050565b600081905092915050565b600081905092915050565b600081905092915050565b600081905092915050565b600081905092915050565b600081905092915050565b600082825260208201905092915050565b600082825260208201905092915050565b600081905092915050565b6000613abf82613c33565b9150613aca83613c33565b9250827fffffffffffffffffffffffffffffffffffffffffffffffffffffffffffffffff03821115613aff57613afe613d66565b5b828201905092915050565b6000613b1582613c33565b9150613b2083613c33565b925082613b3057613b2f613d95565b5b828204905092915050565b6000613b4682613c33565b9150613b5183613c33565b9250817fffffffffffffffffffffffffffffffffffffffffffffffffffffffffffffffff0483118215151615613b8a57613b89613d66565b5b828202905092915050565b6000613ba082613c33565b9150613bab83613c33565b925082821015613bbe57613bbd613d66565b5b828203905092915050565b6000613bd482613c13565b9050919050565b60008115159050919050565b60007fffffffff0000000000000000000000000000000000000000000000000000000082169050919050565b600073ffffffffffffffffffffffffffffffffffffffff82169050919050565b6000819050919050565b82818337600083830152505050565b60005b83811015613c6a578082015181840152602081019050613c4f565b83811115613c79576000848401525b50505050565b60006002820490506001821680613c9757607f821691505b60208210811415613cab57613caa613dc4565b5b50919050565b613cba82613e22565b810181811067ffffffffffffffff82111715613cd957613cd8613df3565b5b80604052505050565b6000613ced82613c33565b91507fffffffffffffffffffffffffffffffffffffffffffffffffffffffffffffffff821415613d2057613d1f613d66565b5b600182019050919050565b6000819050919050565b6000613d4082613c33565b9150613d4b83613c33565b925082613d5b57613d5a613d95565b5b828206905092915050565b7f4e487b7100000000000000000000000000000000000000000000000000000000600052601160045260246000fd5b7f4e487b7100000000000000000000000000000000000000000000000000000000600052601260045260246000fd5b7f4e487b7100000000000000000000000000000000000000000000000000000000600052602260045260246000fd5b7f4e487b7100000000000000000000000000000000000000000000000000000000600052604160045260246000fd5b6000601f19601f8301169050919050565b7f4572726f723a20556e6b6e6f776e2053756a696b6f0000000000000000000000600082015250565b7f4552433732313a207472616e7366657220746f206e6f6e20455243373231526560008201527f63656976657220696d706c656d656e7465720000000000000000000000000000602082015250565b7f4552433732313a207472616e736665722066726f6d20696e636f72726563742060008201527f6f776e6572000000000000000000000000000000000000000000000000000000602082015250565b7f4552433732313a20746f6b656e20616c7265616479206d696e74656400000000600082015250565b7f4552433732313a207472616e7366657220746f20746865207a65726f2061646460008201527f7265737300000000000000000000000000000000000000000000000000000000602082015250565b7f4552433732313a20617070726f766520746f2063616c6c657200000000000000600082015250565b7f222c20226465736372697074696f6e223a202254686973204e4654206365727460008201527f6966696573207468617420796f75206861766520636f6e74726962757465642060208201527f7769746820796f7572206f776e2053756a696b6f222c2022696d616765223a2060408201527f22646174613a696d6167652f7376672b786d6c3b6261736536342c0000000000606082015250565b7f4552433732313a206f70657261746f7220717565727920666f72206e6f6e657860008201527f697374656e7420746f6b656e0000000000000000000000000000000000000000602082015250565b7f4572726f723a2052656163686564206c696d6974206f662073756a696b6f7300600082015250565b7f2900000000000000000000000000000000000000000000000000000000000000600082015250565b7f4552433732313a20617070726f76652063616c6c6572206973206e6f74206f7760008201527f6e6572206e6f7220617070726f76656420666f7220616c6c0000000000000000602082015250565b7f4552433732313a2062616c616e636520717565727920666f7220746865207a6560008201527f726f206164647265737300000000000000000000000000000000000000000000602082015250565b7f4552433732313a206f776e657220717565727920666f72206e6f6e657869737460008201527f656e7420746f6b656e0000000000000000000000000000000000000000000000602082015250565b7f45524337323155524953746f726167653a2055524920736574206f66206e6f6e60008201527f6578697374656e7420746f6b656e000000000000000000000000000000000000602082015250565b7f53756a696b6f20436f6e747269627574696f6e00000000000000000000000000600082015250565b7f5468616e6b7320666f722074686520636f6e747269627574696f6e212028537560008201527f6a696b6f20230000000000000000000000000000000000000000000000000000602082015250565b7f227d000000000000000000000000000000000000000000000000000000000000600082015250565b7f4552433732313a206d696e7420746f20746865207a65726f2061646472657373600082015250565b7f45524337323155524953746f726167653a2055524920717565727920666f722060008201527f6e6f6e6578697374656e7420746f6b656e000000000000000000000000000000602082015250565b7f4552433732313a20617070726f76656420717565727920666f72206e6f6e657860008201527f697374656e7420746f6b656e0000000000000000000000000000000000000000602082015250565b7f4552433732314d657461646174613a2055524920717565727920666f72206e6f60008201527f6e6578697374656e7420746f6b656e0000000000000000000000000000000000602082015250565b7f7b226e616d65223a202200000000000000000000000000000000000000000000600082015250565b7f4552433732313a20617070726f76616c20746f2063757272656e74206f776e6560008201527f7200000000000000000000000000000000000000000000000000000000000000602082015250565b7f646174613a6170706c69636174696f6e2f6a736f6e3b6261736536342c000000600082015250565b7f4572726f723a20496e76616c69642073756a696b6f20696e6465780000000000600082015250565b7f4552433732313a207472616e736665722063616c6c6572206973206e6f74206f60008201527f776e6572206e6f7220617070726f766564000000000000000000000000000000602082015250565b7f4572726f723a2053756a696b6f20616c72656164792065786973740000000000600082015250565b7f4572726f7220696e207665726966792070726f6f660000000000000000000000600082015250565b61453e81613bc9565b811461454957600080fd5b50565b61455581613bdb565b811461456057600080fd5b50565b61456c81613be7565b811461457757600080fd5b50565b61458381613c33565b811461458e57600080fd5b5056fe4142434445464748494a4b4c4d4e4f505152535455565758595a6162636465666768696a6b6c6d6e6f707172737475767778797a303132333435363738392b2fa26469706673582212209bd270a1483ff929565dda8ae43bddf2ba38f42459f89d47277684175e0f6dbd64736f6c634300080400333c7376672077696474683d2234303022206865696768743d22343030222076696577426f783d2230203020343030203430302220786d6c6e733d22687474703a2f2f7777772e77332e6f72672f323030302f737667223e3c726563742077696474683d223130302522206865696768743d2231303025222f3e3c7465787420783d223530252220793d223530252220646f6d696e616e742d626173656c696e653d226d6964646c652220746578742d616e63686f723d226d6964646c6522207374796c653d2266696c6c3a236666663b666f6e742d66616d696c793a73616e733b666f6e742d73697a653a32307078223e",
  "linkReferences": {},
  "deployedLinkReferences": {}
}