{
  "_format": "hh-sol-artifact-1",
  "contractName": "Sujiko",
  "sourceName": "contracts/Sujiko.sol",
  "abi": [
    {
      "inputs": [
        {
          "internalType": "address",
          "name": "_verifierAddr",
          "type": "address"
        }
      ],
      "stateMutability": "nonpayable",
      "type": "constructor"
    },
    {
      "anonymous": false,
      "inputs": [
        {
          "indexed": true,
          "internalType": "address",
          "name": "owner",
          "type": "address"
        },
        {
          "indexed": true,
          "internalType": "address",
          "name": "approved",
          "type": "address"
        },
        {
          "indexed": true,
          "internalType": "uint256",
          "name": "tokenId",
          "type": "uint256"
        }
      ],
      "name": "Approval",
      "type": "event"
    },
    {
      "anonymous": false,
      "inputs": [
        {
          "indexed": true,
          "internalType": "address",
          "name": "owner",
          "type": "address"
        },
        {
          "indexed": true,
          "internalType": "address",
          "name": "operator",
          "type": "address"
        },
        {
          "indexed": false,
          "internalType": "bool",
          "name": "approved",
          "type": "bool"
        }
      ],
      "name": "ApprovalForAll",
      "type": "event"
    },
    {
      "anonymous": false,
      "inputs": [
        {
          "indexed": false,
          "internalType": "address",
          "name": "sender",
          "type": "address"
        },
        {
          "indexed": false,
          "internalType": "uint256",
          "name": "tokenId",
          "type": "uint256"
        }
      ],
      "name": "NewNFTMinted",
      "type": "event"
    },
    {
      "anonymous": false,
      "inputs": [
        {
          "indexed": true,
          "internalType": "address",
          "name": "from",
          "type": "address"
        },
        {
          "indexed": true,
          "internalType": "address",
          "name": "to",
          "type": "address"
        },
        {
          "indexed": true,
          "internalType": "uint256",
          "name": "tokenId",
          "type": "uint256"
        }
      ],
      "name": "Transfer",
      "type": "event"
    },
    {
      "inputs": [
        {
          "internalType": "address",
          "name": "to",
          "type": "address"
        },
        {
          "internalType": "uint256",
          "name": "tokenId",
          "type": "uint256"
        }
      ],
      "name": "approve",
      "outputs": [],
      "stateMutability": "nonpayable",
      "type": "function"
    },
    {
      "inputs": [
        {
          "internalType": "address",
          "name": "owner",
          "type": "address"
        }
      ],
      "name": "balanceOf",
      "outputs": [
        {
          "internalType": "uint256",
          "name": "",
          "type": "uint256"
        }
      ],
      "stateMutability": "view",
      "type": "function"
    },
    {
      "inputs": [
        {
          "internalType": "uint256",
          "name": "tokenId",
          "type": "uint256"
        }
      ],
      "name": "getApproved",
      "outputs": [
        {
          "internalType": "address",
          "name": "",
          "type": "address"
        }
      ],
      "stateMutability": "view",
      "type": "function"
    },
    {
      "inputs": [],
      "name": "getNewBoard",
      "outputs": [
        {
          "internalType": "uint8[9]",
          "name": "",
          "type": "uint8[9]"
        },
        {
          "internalType": "uint8[4]",
          "name": "",
          "type": "uint8[4]"
        }
      ],
      "stateMutability": "pure",
      "type": "function"
    },
    {
      "inputs": [
        {
          "internalType": "address",
          "name": "owner",
          "type": "address"
        },
        {
          "internalType": "address",
          "name": "operator",
          "type": "address"
        }
      ],
      "name": "isApprovedForAll",
      "outputs": [
        {
          "internalType": "bool",
          "name": "",
          "type": "bool"
        }
      ],
      "stateMutability": "view",
      "type": "function"
    },
    {
      "inputs": [
        {
          "internalType": "address",
          "name": "personAddress",
          "type": "address"
        }
      ],
      "name": "mintNFT",
      "outputs": [],
      "stateMutability": "nonpayable",
      "type": "function"
    },
    {
      "inputs": [],
      "name": "name",
      "outputs": [
        {
          "internalType": "string",
          "name": "",
          "type": "string"
        }
      ],
      "stateMutability": "view",
      "type": "function"
    },
    {
      "inputs": [
        {
          "internalType": "uint256",
          "name": "tokenId",
          "type": "uint256"
        }
      ],
      "name": "ownerOf",
      "outputs": [
        {
          "internalType": "address",
          "name": "",
          "type": "address"
        }
      ],
      "stateMutability": "view",
      "type": "function"
    },
    {
      "inputs": [],
      "name": "random",
      "outputs": [
        {
          "internalType": "uint8",
          "name": "",
          "type": "uint8"
        }
      ],
      "stateMutability": "view",
      "type": "function"
    },
    {
      "inputs": [
        {
          "internalType": "address",
          "name": "from",
          "type": "address"
        },
        {
          "internalType": "address",
          "name": "to",
          "type": "address"
        },
        {
          "internalType": "uint256",
          "name": "tokenId",
          "type": "uint256"
        }
      ],
      "name": "safeTransferFrom",
      "outputs": [],
      "stateMutability": "nonpayable",
      "type": "function"
    },
    {
      "inputs": [
        {
          "internalType": "address",
          "name": "from",
          "type": "address"
        },
        {
          "internalType": "address",
          "name": "to",
          "type": "address"
        },
        {
          "internalType": "uint256",
          "name": "tokenId",
          "type": "uint256"
        },
        {
          "internalType": "bytes",
          "name": "_data",
          "type": "bytes"
        }
      ],
      "name": "safeTransferFrom",
      "outputs": [],
      "stateMutability": "nonpayable",
      "type": "function"
    },
    {
      "inputs": [
        {
          "internalType": "address",
          "name": "operator",
          "type": "address"
        },
        {
          "internalType": "bool",
          "name": "approved",
          "type": "bool"
        }
      ],
      "name": "setApprovalForAll",
      "outputs": [],
      "stateMutability": "nonpayable",
      "type": "function"
    },
    {
      "inputs": [
        {
          "internalType": "bytes4",
          "name": "interfaceId",
          "type": "bytes4"
        }
      ],
      "name": "supportsInterface",
      "outputs": [
        {
          "internalType": "bool",
          "name": "",
          "type": "bool"
        }
      ],
      "stateMutability": "view",
      "type": "function"
    },
    {
      "inputs": [],
      "name": "symbol",
      "outputs": [
        {
          "internalType": "string",
          "name": "",
          "type": "string"
        }
      ],
      "stateMutability": "view",
      "type": "function"
    },
    {
      "inputs": [
        {
          "internalType": "uint256",
          "name": "tokenId",
          "type": "uint256"
        }
      ],
      "name": "tokenURI",
      "outputs": [
        {
          "internalType": "string",
          "name": "",
          "type": "string"
        }
      ],
      "stateMutability": "view",
      "type": "function"
    },
    {
      "inputs": [
        {
          "internalType": "address",
          "name": "from",
          "type": "address"
        },
        {
          "internalType": "address",
          "name": "to",
          "type": "address"
        },
        {
          "internalType": "uint256",
          "name": "tokenId",
          "type": "uint256"
        }
      ],
      "name": "transferFrom",
      "outputs": [],
      "stateMutability": "nonpayable",
      "type": "function"
    },
    {
      "inputs": [],
      "name": "verifierAddr",
      "outputs": [
        {
          "internalType": "address",
          "name": "",
          "type": "address"
        }
      ],
      "stateMutability": "view",
      "type": "function"
    },
    {
      "inputs": [
        {
          "internalType": "uint256[2]",
          "name": "a",
          "type": "uint256[2]"
        },
        {
          "internalType": "uint256[2][2]",
          "name": "b",
          "type": "uint256[2][2]"
        },
        {
          "internalType": "uint256[2]",
          "name": "c",
          "type": "uint256[2]"
        },
        {
          "internalType": "uint256[13]",
          "name": "input",
          "type": "uint256[13]"
        }
      ],
      "name": "verifyProof",
      "outputs": [
        {
          "internalType": "bool",
          "name": "",
          "type": "bool"
        }
      ],
      "stateMutability": "view",
      "type": "function"
    },
    {
      "inputs": [
        {
          "internalType": "uint256[2]",
          "name": "a",
          "type": "uint256[2]"
        },
        {
          "internalType": "uint256[2][2]",
          "name": "b",
          "type": "uint256[2][2]"
        },
        {
          "internalType": "uint256[2]",
          "name": "c",
          "type": "uint256[2]"
        },
        {
          "internalType": "uint256[13]",
          "name": "input",
          "type": "uint256[13]"
        }
      ],
      "name": "verifySujiko",
      "outputs": [
        {
          "internalType": "bool",
          "name": "",
          "type": "bool"
        }
      ],
      "stateMutability": "view",
      "type": "function"
    }
  ],
  "bytecode": "0x608060405260405180610120016040528060f181526020016200415260f191396009908051906020019062000036929190620001a0565b506040518060400160405280600d81526020017f3c2f746578743e3c2f7376673e00000000000000000000000000000000000000815250600a908051906020019062000084929190620001a0565b503480156200009257600080fd5b5060405162004243380380620042438339818101604052810190620000b8919062000267565b6040518060400160405280600681526020017f53756a696b6f00000000000000000000000000000000000000000000000000008152506040518060400160405280600681526020017f53554a494b4f000000000000000000000000000000000000000000000000000081525081600090805190602001906200013c929190620001a0565b50806001908051906020019062000155929190620001a0565b50505080600860006101000a81548173ffffffffffffffffffffffffffffffffffffffff021916908373ffffffffffffffffffffffffffffffffffffffff1602179055505062000346565b828054620001ae90620002c7565b90600052602060002090601f016020900481019282620001d257600085556200021e565b82601f10620001ed57805160ff19168380011785556200021e565b828001600101855582156200021e579182015b828111156200021d57825182559160200191906001019062000200565b5b5090506200022d919062000231565b5090565b5b808211156200024c57600081600090555060010162000232565b5090565b60008151905062000261816200032c565b92915050565b6000602082840312156200027a57600080fd5b60006200028a8482850162000250565b91505092915050565b6000620002a082620002a7565b9050919050565b600073ffffffffffffffffffffffffffffffffffffffff82169050919050565b60006002820490506001821680620002e057607f821691505b60208210811415620002f757620002f6620002fd565b5b50919050565b7f4e487b7100000000000000000000000000000000000000000000000000000000600052602260045260246000fd5b620003378162000293565b81146200034357600080fd5b50565b613dfc80620003566000396000f3fe608060405234801561001057600080fd5b50600436106101215760003560e01c80636352211e116100ad578063b88d4fde11610071578063b88d4fde1461031a578063c87b56dd14610336578063c987a08e14610366578063e985e9c514610385578063f143a75e146103b557610121565b80636352211e14610262578063663ea2e21461029257806370a08231146102b057806395d89b41146102e0578063a22cb465146102fe57610121565b806323b872dd116100f457806323b872dd146101c057806338e7e851146101dc57806342842e0e1461020c57806354ba0f27146102285780635ec01e4d1461024457610121565b806301ffc9a71461012657806306fdde0314610156578063081812fc14610174578063095ea7b3146101a4575b600080fd5b610140600480360381019061013b91906124c5565b6103e5565b60405161014d9190612e30565b60405180910390f35b61015e6104c7565b60405161016b9190612e4b565b60405180910390f35b61018e60048036038101906101899190612517565b610559565b60405161019b9190612d2e565b60405180910390f35b6101be60048036038101906101b991906123fb565b6105de565b005b6101da60048036038101906101d591906122f5565b6106f6565b005b6101f660048036038101906101f19190612437565b610756565b6040516102039190612e30565b60405180910390f35b610226600480360381019061022191906122f5565b6107af565b005b610242600480360381019061023d9190612290565b6107cf565b005b61024c6108de565b60405161025991906130e6565b60405180910390f35b61027c60048036038101906102779190612517565b610929565b6040516102899190612d2e565b60405180910390f35b61029a6109db565b6040516102a79190612d2e565b60405180910390f35b6102ca60048036038101906102c59190612290565b610a01565b6040516102d791906130cb565b60405180910390f35b6102e8610ab9565b6040516102f59190612e4b565b60405180910390f35b610318600480360381019061031391906123bf565b610b4b565b005b610334600480360381019061032f9190612344565b610b61565b005b610350600480360381019061034b9190612517565b610bc3565b60405161035d9190612e4b565b60405180910390f35b61036e610d15565b60405161037c929190612e05565b60405180910390f35b61039f600480360381019061039a91906122b9565b610dc2565b6040516103ac9190612e30565b60405180910390f35b6103cf60048036038101906103ca9190612437565b610e56565b6040516103dc9190612e30565b60405180910390f35b60007f80ac58cd000000000000000000000000000000000000000000000000000000007bffffffffffffffffffffffffffffffffffffffffffffffffffffffff1916827bffffffffffffffffffffffffffffffffffffffffffffffffffffffff191614806104b057507f5b5e139f000000000000000000000000000000000000000000000000000000007bffffffffffffffffffffffffffffffffffffffffffffffffffffffff1916827bffffffffffffffffffffffffffffffffffffffffffffffffffffffff1916145b806104c057506104bf82610f13565b5b9050919050565b6060600080546104d69061351c565b80601f01602080910402602001604051908101604052809291908181526020018280546105029061351c565b801561054f5780601f106105245761010080835404028352916020019161054f565b820191906000526020600020905b81548152906001019060200180831161053257829003601f168201915b5050505050905090565b600061056482610f7d565b6105a3576040517f08c379a000000000000000000000000000000000000000000000000000000000815260040161059a9061304b565b60405180910390fd5b6004600083815260200190815260200160002060009054906101000a900473ffffffffffffffffffffffffffffffffffffffff169050919050565b60006105e982610929565b90508073ffffffffffffffffffffffffffffffffffffffff168373ffffffffffffffffffffffffffffffffffffffff16141561065a576040517f08c379a00000000000000000000000000000000000000000000000000000000081526004016106519061308b565b60405180910390fd5b8073ffffffffffffffffffffffffffffffffffffffff16610679610fe9565b73ffffffffffffffffffffffffffffffffffffffff1614806106a857506106a7816106a2610fe9565b610dc2565b5b6106e7576040517f08c379a00000000000000000000000000000000000000000000000000000000081526004016106de90612f8b565b60405180910390fd5b6106f18383610ff1565b505050565b610707610701610fe9565b826110aa565b610746576040517f08c379a000000000000000000000000000000000000000000000000000000000815260040161073d906130ab565b60405180910390fd5b610751838383611188565b505050565b600061076485858585610e56565b6107a3576040517f08c379a000000000000000000000000000000000000000000000000000000000815260040161079a90612f6b565b60405180910390fd5b60019050949350505050565b6107ca83838360405180602001604052806000815250610b61565b505050565b60006107db60076113ef565b905060006009600a6040516020016107f4929190612c6e565b60405160208183030381529060405290506000610837610813836113fd565b6040516020016108239190612c9d565b6040516020818303038152906040526113fd565b905060008160405160200161084c9190612ce0565b60405160208183030381529060405290506108678585611587565b61087184826115a5565b61087b6007611619565b61089e604051806060016040528060258152602001613d6260259139858761162f565b7f1c05098ed1ff38e6238d2b1b04b2c7977d4c94ce651bda6473f9dba8dbf01da033856040516108cf929190612d95565b60405180910390a15050505050565b60006001600942446040516020016108f7929190612d02565b6040516020818303038152906040528051906020012060001c61091a91906135d2565b6109249190613363565b905090565b6000806002600084815260200190815260200160002060009054906101000a900473ffffffffffffffffffffffffffffffffffffffff169050600073ffffffffffffffffffffffffffffffffffffffff168173ffffffffffffffffffffffffffffffffffffffff1614156109d2576040517f08c379a00000000000000000000000000000000000000000000000000000000081526004016109c990612fcb565b60405180910390fd5b80915050919050565b600860009054906101000a900473ffffffffffffffffffffffffffffffffffffffff1681565b60008073ffffffffffffffffffffffffffffffffffffffff168273ffffffffffffffffffffffffffffffffffffffff161415610a72576040517f08c379a0000000000000000000000000000000000000000000000000000000008152600401610a6990612fab565b60405180910390fd5b600360008373ffffffffffffffffffffffffffffffffffffffff1673ffffffffffffffffffffffffffffffffffffffff168152602001908152602001600020549050919050565b606060018054610ac89061351c565b80601f0160208091040260200160405190810160405280929190818152602001828054610af49061351c565b8015610b415780601f10610b1657610100808354040283529160200191610b41565b820191906000526020600020905b815481529060010190602001808311610b2457829003601f168201915b5050505050905090565b610b5d610b56610fe9565b83836116ce565b5050565b610b72610b6c610fe9565b836110aa565b610bb1576040517f08c379a0000000000000000000000000000000000000000000000000000000008152600401610ba8906130ab565b60405180910390fd5b610bbd8484848461183b565b50505050565b6060610bce82610f7d565b610c0d576040517f08c379a0000000000000000000000000000000000000000000000000000000008152600401610c049061302b565b60405180910390fd5b6000600660008481526020019081526020016000208054610c2d9061351c565b80601f0160208091040260200160405190810160405280929190818152602001828054610c599061351c565b8015610ca65780601f10610c7b57610100808354040283529160200191610ca6565b820191906000526020600020905b815481529060010190602001808311610c8957829003601f168201915b505050505090506000610cb7611897565b9050600081511415610ccd578192505050610d10565b600082511115610d02578082604051602001610cea929190612c4a565b60405160208183030381529060405292505050610d10565b610d0b846118ae565b925050505b919050565b610d1d611f24565b610d25611f47565b604051806101200160405280600060ff168152602001600060ff168152602001600060ff168152602001600060ff168152602001600060ff168152602001600060ff168152602001600860ff168152602001600060ff168152602001600760ff168152506040518060800160405280600a60ff168152602001601560ff168152602001601260ff168152602001601460ff16815250915091509091565b6000600560008473ffffffffffffffffffffffffffffffffffffffff1673ffffffffffffffffffffffffffffffffffffffff16815260200190815260200160002060008373ffffffffffffffffffffffffffffffffffffffff1673ffffffffffffffffffffffffffffffffffffffff16815260200190815260200160002060009054906101000a900460ff16905092915050565b6000600860009054906101000a900473ffffffffffffffffffffffffffffffffffffffff1673ffffffffffffffffffffffffffffffffffffffff1663f143a75e868686866040518563ffffffff1660e01b8152600401610eb99493929190612dbe565b60206040518083038186803b158015610ed157600080fd5b505afa158015610ee5573d6000803e3d6000fd5b505050506040513d601f19601f82011682018060405250810190610f09919061249c565b9050949350505050565b60007f01ffc9a7000000000000000000000000000000000000000000000000000000007bffffffffffffffffffffffffffffffffffffffffffffffffffffffff1916827bffffffffffffffffffffffffffffffffffffffffffffffffffffffff1916149050919050565b60008073ffffffffffffffffffffffffffffffffffffffff166002600084815260200190815260200160002060009054906101000a900473ffffffffffffffffffffffffffffffffffffffff1673ffffffffffffffffffffffffffffffffffffffff1614159050919050565b600033905090565b816004600083815260200190815260200160002060006101000a81548173ffffffffffffffffffffffffffffffffffffffff021916908373ffffffffffffffffffffffffffffffffffffffff160217905550808273ffffffffffffffffffffffffffffffffffffffff1661106483610929565b73ffffffffffffffffffffffffffffffffffffffff167f8c5be1e5ebec7d5bd14f71427d1e84f3dd0314c0f7b2291e5b200ac8c7c3b92560405160405180910390a45050565b60006110b582610f7d565b6110f4576040517f08c379a00000000000000000000000000000000000000000000000000000000081526004016110eb90612f4b565b60405180910390fd5b60006110ff83610929565b90508073ffffffffffffffffffffffffffffffffffffffff168473ffffffffffffffffffffffffffffffffffffffff16148061116e57508373ffffffffffffffffffffffffffffffffffffffff1661115684610559565b73ffffffffffffffffffffffffffffffffffffffff16145b8061117f575061117e8185610dc2565b5b91505092915050565b8273ffffffffffffffffffffffffffffffffffffffff166111a882610929565b73ffffffffffffffffffffffffffffffffffffffff16146111fe576040517f08c379a00000000000000000000000000000000000000000000000000000000081526004016111f590612ecb565b60405180910390fd5b600073ffffffffffffffffffffffffffffffffffffffff168273ffffffffffffffffffffffffffffffffffffffff16141561126e576040517f08c379a000000000000000000000000000000000000000000000000000000000815260040161126590612f0b565b60405180910390fd5b611279838383611955565b611284600082610ff1565b6001600360008573ffffffffffffffffffffffffffffffffffffffff1673ffffffffffffffffffffffffffffffffffffffff16815260200190815260200160002060008282546112d49190613425565b925050819055506001600360008473ffffffffffffffffffffffffffffffffffffffff1673ffffffffffffffffffffffffffffffffffffffff168152602001908152602001600020600082825461132b919061330d565b92505081905550816002600083815260200190815260200160002060006101000a81548173ffffffffffffffffffffffffffffffffffffffff021916908373ffffffffffffffffffffffffffffffffffffffff160217905550808273ffffffffffffffffffffffffffffffffffffffff168473ffffffffffffffffffffffffffffffffffffffff167fddf252ad1be2c89b69c2b068fc378daa952ba7f163c4a11628f55a4df523b3ef60405160405180910390a46113ea83838361195a565b505050565b600081600001549050919050565b606060008251141561142057604051806020016040528060008152509050611582565b6000604051806060016040528060408152602001613d87604091399050600060036002855161144f919061330d565b611459919061339a565b600461146591906133cb565b67ffffffffffffffff8111156114a4577f4e487b7100000000000000000000000000000000000000000000000000000000600052604160045260246000fd5b6040519080825280601f01601f1916602001820160405280156114d65781602001600182028036833780820191505090505b509050600182016020820185865187015b80821015611542576003820191508151603f8160121c168501518453600184019350603f81600c1c168501518453600184019350603f8160061c168501518453600184019350603f81168501518453600184019350506114e7565b505060038651066001811461155e576002811461157157611579565b603d6001830353603d6002830353611579565b603d60018303535b50505080925050505b919050565b6115a182826040518060200160405280600081525061195f565b5050565b6115ae82610f7d565b6115ed576040517f08c379a00000000000000000000000000000000000000000000000000000000081526004016115e490612feb565b60405180910390fd5b80600660008481526020019081526020016000209080519060200190611614929190611f69565b505050565b6001816000016000828254019250508190555050565b6116c983838360405160240161164793929190612e6d565b6040516020818303038152906040527fe3849f79000000000000000000000000000000000000000000000000000000007bffffffffffffffffffffffffffffffffffffffffffffffffffffffff19166020820180517bffffffffffffffffffffffffffffffffffffffffffffffffffffffff83818316178352505050506119ba565b505050565b8173ffffffffffffffffffffffffffffffffffffffff168373ffffffffffffffffffffffffffffffffffffffff16141561173d576040517f08c379a000000000000000000000000000000000000000000000000000000000815260040161173490612f2b565b60405180910390fd5b80600560008573ffffffffffffffffffffffffffffffffffffffff1673ffffffffffffffffffffffffffffffffffffffff16815260200190815260200160002060008473ffffffffffffffffffffffffffffffffffffffff1673ffffffffffffffffffffffffffffffffffffffff16815260200190815260200160002060006101000a81548160ff0219169083151502179055508173ffffffffffffffffffffffffffffffffffffffff168373ffffffffffffffffffffffffffffffffffffffff167f17307eab39ab6107e8899845ad3d59bd9653f200f220920489ca2b5937696c318360405161182e9190612e30565b60405180910390a3505050565b611846848484611188565b611852848484846119e3565b611891576040517f08c379a000000000000000000000000000000000000000000000000000000000815260040161188890612eab565b60405180910390fd5b50505050565b606060405180602001604052806000815250905090565b60606118b982610f7d565b6118f8576040517f08c379a00000000000000000000000000000000000000000000000000000000081526004016118ef9061306b565b60405180910390fd5b6000611902611897565b90506000815111611922576040518060200160405280600081525061194d565b8061192c84611b7a565b60405160200161193d929190612c4a565b6040516020818303038152906040525b915050919050565b505050565b505050565b6119698383611d27565b61197660008484846119e3565b6119b5576040517f08c379a00000000000000000000000000000000000000000000000000000000081526004016119ac90612eab565b60405180910390fd5b505050565b60008151905060006a636f6e736f6c652e6c6f679050602083016000808483855afa5050505050565b6000611a048473ffffffffffffffffffffffffffffffffffffffff16611f01565b15611b6d578373ffffffffffffffffffffffffffffffffffffffff1663150b7a02611a2d610fe9565b8786866040518563ffffffff1660e01b8152600401611a4f9493929190612d49565b602060405180830381600087803b158015611a6957600080fd5b505af1925050508015611a9a57506040513d601f19601f82011682018060405250810190611a9791906124ee565b60015b611b1d573d8060008114611aca576040519150601f19603f3d011682016040523d82523d6000602084013e611acf565b606091505b50600081511415611b15576040517f08c379a0000000000000000000000000000000000000000000000000000000008152600401611b0c90612eab565b60405180910390fd5b805181602001fd5b63150b7a0260e01b7bffffffffffffffffffffffffffffffffffffffffffffffffffffffff1916817bffffffffffffffffffffffffffffffffffffffffffffffffffffffff191614915050611b72565b600190505b949350505050565b60606000821415611bc2576040518060400160405280600181526020017f30000000000000000000000000000000000000000000000000000000000000008152509050611d22565b600082905060005b60008214611bf4578080611bdd9061357f565b915050600a82611bed919061339a565b9150611bca565b60008167ffffffffffffffff811115611c36577f4e487b7100000000000000000000000000000000000000000000000000000000600052604160045260246000fd5b6040519080825280601f01601f191660200182016040528015611c685781602001600182028036833780820191505090505b5090505b60008514611d1b57600182611c819190613425565b9150600a85611c9091906135d2565b6030611c9c919061330d565b60f81b818381518110611cd8577f4e487b7100000000000000000000000000000000000000000000000000000000600052603260045260246000fd5b60200101907effffffffffffffffffffffffffffffffffffffffffffffffffffffffffffff1916908160001a905350600a85611d14919061339a565b9450611c6c565b8093505050505b919050565b600073ffffffffffffffffffffffffffffffffffffffff168273ffffffffffffffffffffffffffffffffffffffff161415611d97576040517f08c379a0000000000000000000000000000000000000000000000000000000008152600401611d8e9061300b565b60405180910390fd5b611da081610f7d565b15611de0576040517f08c379a0000000000000000000000000000000000000000000000000000000008152600401611dd790612eeb565b60405180910390fd5b611dec60008383611955565b6001600360008473ffffffffffffffffffffffffffffffffffffffff1673ffffffffffffffffffffffffffffffffffffffff1681526020019081526020016000206000828254611e3c919061330d565b92505081905550816002600083815260200190815260200160002060006101000a81548173ffffffffffffffffffffffffffffffffffffffff021916908373ffffffffffffffffffffffffffffffffffffffff160217905550808273ffffffffffffffffffffffffffffffffffffffff16600073ffffffffffffffffffffffffffffffffffffffff167fddf252ad1be2c89b69c2b068fc378daa952ba7f163c4a11628f55a4df523b3ef60405160405180910390a4611efd6000838361195a565b5050565b6000808273ffffffffffffffffffffffffffffffffffffffff163b119050919050565b604051806101200160405280600990602082028036833780820191505090505090565b6040518060800160405280600490602082028036833780820191505090505090565b828054611f759061351c565b90600052602060002090601f016020900481019282611f975760008555611fde565b82601f10611fb057805160ff1916838001178555611fde565b82800160010185558215611fde579182015b82811115611fdd578251825591602001919060010190611fc2565b5b509050611feb9190611fef565b5090565b5b80821115612008576000816000905550600101611ff0565b5090565b600061201f61201a84613126565b613101565b9050808285604086028201111561203557600080fd5b60005b85811015612065578161204b88826121d6565b845260208401935060408301925050600181019050612038565b5050509392505050565b600061208261207d8461314c565b613101565b9050808285602086028201111561209857600080fd5b60005b858110156120c857816120ae888261227b565b84526020840193506020830192505060018101905061209b565b5050509392505050565b60006120e56120e084613172565b613101565b905080828560208602820111156120fb57600080fd5b60005b8581101561212b5781612111888261227b565b8452602084019350602083019250506001810190506120fe565b5050509392505050565b600061214861214384613198565b613101565b90508281526020810184848401111561216057600080fd5b61216b8482856134da565b509392505050565b60008135905061218281613d05565b92915050565b600082601f83011261219957600080fd5b60026121a684828561200c565b91505092915050565b600082601f8301126121c057600080fd5b600d6121cd84828561206f565b91505092915050565b600082601f8301126121e757600080fd5b60026121f48482856120d2565b91505092915050565b60008135905061220c81613d1c565b92915050565b60008151905061222181613d1c565b92915050565b60008135905061223681613d33565b92915050565b60008151905061224b81613d33565b92915050565b600082601f83011261226257600080fd5b8135612272848260208601612135565b91505092915050565b60008135905061228a81613d4a565b92915050565b6000602082840312156122a257600080fd5b60006122b084828501612173565b91505092915050565b600080604083850312156122cc57600080fd5b60006122da85828601612173565b92505060206122eb85828601612173565b9150509250929050565b60008060006060848603121561230a57600080fd5b600061231886828701612173565b935050602061232986828701612173565b925050604061233a8682870161227b565b9150509250925092565b6000806000806080858703121561235a57600080fd5b600061236887828801612173565b945050602061237987828801612173565b935050604061238a8782880161227b565b925050606085013567ffffffffffffffff8111156123a757600080fd5b6123b387828801612251565b91505092959194509250565b600080604083850312156123d257600080fd5b60006123e085828601612173565b92505060206123f1858286016121fd565b9150509250929050565b6000806040838503121561240e57600080fd5b600061241c85828601612173565b925050602061242d8582860161227b565b9150509250929050565b6000806000806102a0858703121561244e57600080fd5b600061245c878288016121d6565b945050604061246d87828801612188565b93505060c061247e878288016121d6565b925050610100612490878288016121af565b91505092959194509250565b6000602082840312156124ae57600080fd5b60006124bc84828501612212565b91505092915050565b6000602082840312156124d757600080fd5b60006124e584828501612227565b91505092915050565b60006020828403121561250057600080fd5b600061250e8482850161223c565b91505092915050565b60006020828403121561252957600080fd5b60006125378482850161227b565b91505092915050565b600061254c8383612645565b60408301905092915050565b60006125648383612bf7565b60208301905092915050565b600061257c8383612c2c565b60208301905092915050565b61259181613459565b82525050565b6125a081613210565b6125aa818461329e565b92506125b5826131c9565b8060005b838110156125e65781516125cd8782612540565b96506125d88361325d565b9250506001810190506125b9565b505050505050565b6125f78161321b565b61260181846132a9565b925061260c826131d3565b8060005b8381101561263d5781516126248782612558565b965061262f8361326a565b925050600181019050612610565b505050505050565b61264e81613226565b61265881846132b4565b9250612663826131dd565b8060005b8381101561269457815161267b8782612558565b965061268683613277565b925050600181019050612667565b505050505050565b6126a581613226565b6126af81846132bf565b92506126ba826131dd565b8060005b838110156126eb5781516126d28782612558565b96506126dd83613277565b9250506001810190506126be565b505050505050565b6126fc81613231565b61270681846132ca565b9250612711826131e7565b8060005b838110156127425781516127298782612570565b965061273483613284565b925050600181019050612715565b505050505050565b6127538161323c565b61275d81846132d5565b9250612768826131f1565b8060005b838110156127995781516127808782612570565b965061278b83613291565b92505060018101905061276c565b505050505050565b6127aa8161346b565b82525050565b60006127bb82613247565b6127c581856132e0565b93506127d58185602086016134e9565b6127de816136bf565b840191505092915050565b60006127f482613252565b6127fe81856132f1565b935061280e8185602086016134e9565b612817816136bf565b840191505092915050565b600061282d82613252565b6128378185613302565b93506128478185602086016134e9565b80840191505092915050565b600081546128608161351c565b61286a8186613302565b945060018216600081146128855760018114612896576128c9565b60ff198316865281860193506128c9565b61289f856131fb565b60005b838110156128c1578154818901526001820191506020810190506128a2565b838801955050505b50505092915050565b60006128df6032836132f1565b91506128ea826136d0565b604082019050919050565b60006129026025836132f1565b915061290d8261371f565b604082019050919050565b6000612925601c836132f1565b91506129308261376e565b602082019050919050565b60006129486024836132f1565b915061295382613797565b604082019050919050565b600061296b6019836132f1565b9150612976826137e6565b602082019050919050565b600061298e602c836132f1565b91506129998261380f565b604082019050919050565b60006129b1606b83613302565b91506129bc8261385e565b606b82019050919050565b60006129d46011836132f1565b91506129df826138f9565b602082019050919050565b60006129f76038836132f1565b9150612a0282613922565b604082019050919050565b6000612a1a602a836132f1565b9150612a2582613971565b604082019050919050565b6000612a3d6029836132f1565b9150612a48826139c0565b604082019050919050565b6000612a60602e836132f1565b9150612a6b82613a0f565b604082019050919050565b6000612a83603583613302565b9150612a8e82613a5e565b603582019050919050565b6000612aa6600283613302565b9150612ab182613aad565b600282019050919050565b6000612ac96020836132f1565b9150612ad482613ad6565b602082019050919050565b6000612aec6031836132f1565b9150612af782613aff565b604082019050919050565b6000612b0f602c836132f1565b9150612b1a82613b4e565b604082019050919050565b6000612b32600d83613302565b9150612b3d82613b9d565b600d82019050919050565b6000612b55602f836132f1565b9150612b6082613bc6565b604082019050919050565b6000612b78600a83613302565b9150612b8382613c15565b600a82019050919050565b6000612b9b6021836132f1565b9150612ba682613c3e565b604082019050919050565b6000612bbe601d83613302565b9150612bc982613c8d565b601d82019050919050565b6000612be16031836132f1565b9150612bec82613cb6565b604082019050919050565b612c00816134c3565b82525050565b612c0f816134c3565b82525050565b612c26612c21826134c3565b6135c8565b82525050565b612c35816134cd565b82525050565b612c44816134cd565b82525050565b6000612c568285612822565b9150612c628284612822565b91508190509392505050565b6000612c7a8285612853565b9150612c8582612a76565b9150612c918284612853565b91508190509392505050565b6000612ca882612b6b565b9150612cb382612b25565b9150612cbe826129a4565b9150612cca8284612822565b9150612cd582612a99565b915081905092915050565b6000612ceb82612bb1565b9150612cf78284612822565b915081905092915050565b6000612d0e8285612c15565b602082019150612d1e8284612c15565b6020820191508190509392505050565b6000602082019050612d436000830184612588565b92915050565b6000608082019050612d5e6000830187612588565b612d6b6020830186612588565b612d786040830185612c06565b8181036060830152612d8a81846127b0565b905095945050505050565b6000604082019050612daa6000830185612588565b612db76020830184612c06565b9392505050565b60006102a082019050612dd4600083018761269c565b612de16040830186612597565b612dee60c083018561269c565b612dfc6101008301846125ee565b95945050505050565b60006101a082019050612e1b600083018561274a565b612e296101208301846126f3565b9392505050565b6000602082019050612e4560008301846127a1565b92915050565b60006020820190508181036000830152612e6581846127e9565b905092915050565b60006060820190508181036000830152612e8781866127e9565b9050612e966020830185612c06565b612ea36040830184612588565b949350505050565b60006020820190508181036000830152612ec4816128d2565b9050919050565b60006020820190508181036000830152612ee4816128f5565b9050919050565b60006020820190508181036000830152612f0481612918565b9050919050565b60006020820190508181036000830152612f248161293b565b9050919050565b60006020820190508181036000830152612f448161295e565b9050919050565b60006020820190508181036000830152612f6481612981565b9050919050565b60006020820190508181036000830152612f84816129c7565b9050919050565b60006020820190508181036000830152612fa4816129ea565b9050919050565b60006020820190508181036000830152612fc481612a0d565b9050919050565b60006020820190508181036000830152612fe481612a30565b9050919050565b6000602082019050818103600083015261300481612a53565b9050919050565b6000602082019050818103600083015261302481612abc565b9050919050565b6000602082019050818103600083015261304481612adf565b9050919050565b6000602082019050818103600083015261306481612b02565b9050919050565b6000602082019050818103600083015261308481612b48565b9050919050565b600060208201905081810360008301526130a481612b8e565b9050919050565b600060208201905081810360008301526130c481612bd4565b9050919050565b60006020820190506130e06000830184612c06565b92915050565b60006020820190506130fb6000830184612c3b565b92915050565b600061310b61311c565b9050613117828261354e565b919050565b6000604051905090565b600067ffffffffffffffff82111561314157613140613690565b5b602082029050919050565b600067ffffffffffffffff82111561316757613166613690565b5b602082029050919050565b600067ffffffffffffffff82111561318d5761318c613690565b5b602082029050919050565b600067ffffffffffffffff8211156131b3576131b2613690565b5b6131bc826136bf565b9050602081019050919050565b6000819050919050565b6000819050919050565b6000819050919050565b6000819050919050565b6000819050919050565b60008190508160005260206000209050919050565b600060029050919050565b6000600d9050919050565b600060029050919050565b600060049050919050565b600060099050919050565b600081519050919050565b600081519050919050565b6000602082019050919050565b6000602082019050919050565b6000602082019050919050565b6000602082019050919050565b6000602082019050919050565b600081905092915050565b600081905092915050565b600081905092915050565b600081905092915050565b600081905092915050565b600081905092915050565b600082825260208201905092915050565b600082825260208201905092915050565b600081905092915050565b6000613318826134c3565b9150613323836134c3565b9250827fffffffffffffffffffffffffffffffffffffffffffffffffffffffffffffffff0382111561335857613357613603565b5b828201905092915050565b600061336e826134cd565b9150613379836134cd565b92508260ff0382111561338f5761338e613603565b5b828201905092915050565b60006133a5826134c3565b91506133b0836134c3565b9250826133c0576133bf613632565b5b828204905092915050565b60006133d6826134c3565b91506133e1836134c3565b9250817fffffffffffffffffffffffffffffffffffffffffffffffffffffffffffffffff048311821515161561341a57613419613603565b5b828202905092915050565b6000613430826134c3565b915061343b836134c3565b92508282101561344e5761344d613603565b5b828203905092915050565b6000613464826134a3565b9050919050565b60008115159050919050565b60007fffffffff0000000000000000000000000000000000000000000000000000000082169050919050565b600073ffffffffffffffffffffffffffffffffffffffff82169050919050565b6000819050919050565b600060ff82169050919050565b82818337600083830152505050565b60005b838110156135075780820151818401526020810190506134ec565b83811115613516576000848401525b50505050565b6000600282049050600182168061353457607f821691505b6020821081141561354857613547613661565b5b50919050565b613557826136bf565b810181811067ffffffffffffffff8211171561357657613575613690565b5b80604052505050565b600061358a826134c3565b91507fffffffffffffffffffffffffffffffffffffffffffffffffffffffffffffffff8214156135bd576135bc613603565b5b600182019050919050565b6000819050919050565b60006135dd826134c3565b91506135e8836134c3565b9250826135f8576135f7613632565b5b828206905092915050565b7f4e487b7100000000000000000000000000000000000000000000000000000000600052601160045260246000fd5b7f4e487b7100000000000000000000000000000000000000000000000000000000600052601260045260246000fd5b7f4e487b7100000000000000000000000000000000000000000000000000000000600052602260045260246000fd5b7f4e487b7100000000000000000000000000000000000000000000000000000000600052604160045260246000fd5b6000601f19601f8301169050919050565b7f4552433732313a207472616e7366657220746f206e6f6e20455243373231526560008201527f63656976657220696d706c656d656e7465720000000000000000000000000000602082015250565b7f4552433732313a207472616e736665722066726f6d20696e636f72726563742060008201527f6f776e6572000000000000000000000000000000000000000000000000000000602082015250565b7f4552433732313a20746f6b656e20616c7265616479206d696e74656400000000600082015250565b7f4552433732313a207472616e7366657220746f20746865207a65726f2061646460008201527f7265737300000000000000000000000000000000000000000000000000000000602082015250565b7f4552433732313a20617070726f766520746f2063616c6c657200000000000000600082015250565b7f4552433732313a206f70657261746f7220717565727920666f72206e6f6e657860008201527f697374656e7420746f6b656e0000000000000000000000000000000000000000602082015250565b7f222c20226465736372697074696f6e223a202254686973204e4654206365727460008201527f6969657320796f75206861766520736f6c76656420612053756a696b6f20707560208201527f7a7a6c65222c2022696d616765223a2022646174613a696d6167652f7376672b60408201527f786d6c3b6261736536342c000000000000000000000000000000000000000000606082015250565b7f46696c65642070726f6f6620636865636b000000000000000000000000000000600082015250565b7f4552433732313a20617070726f76652063616c6c6572206973206e6f74206f7760008201527f6e6572206e6f7220617070726f76656420666f7220616c6c0000000000000000602082015250565b7f4552433732313a2062616c616e636520717565727920666f7220746865207a6560008201527f726f206164647265737300000000000000000000000000000000000000000000602082015250565b7f4552433732313a206f776e657220717565727920666f72206e6f6e657869737460008201527f656e7420746f6b656e0000000000000000000000000000000000000000000000602082015250565b7f45524337323155524953746f726167653a2055524920736574206f66206e6f6e60008201527f6578697374656e7420746f6b656e000000000000000000000000000000000000602082015250565b7f436f6e67726174756c6174696f6e732c20796f7520617265206120636572746960008201527f666965642053756a696b6f204368616d70696f6e210000000000000000000000602082015250565b7f227d000000000000000000000000000000000000000000000000000000000000600082015250565b7f4552433732313a206d696e7420746f20746865207a65726f2061646472657373600082015250565b7f45524337323155524953746f726167653a2055524920717565727920666f722060008201527f6e6f6e6578697374656e7420746f6b656e000000000000000000000000000000602082015250565b7f4552433732313a20617070726f76656420717565727920666f72206e6f6e657860008201527f697374656e7420746f6b656e0000000000000000000000000000000000000000602082015250565b7f53756a696b6f20536f6c76656400000000000000000000000000000000000000600082015250565b7f4552433732314d657461646174613a2055524920717565727920666f72206e6f60008201527f6e6578697374656e7420746f6b656e0000000000000000000000000000000000602082015250565b7f7b226e616d65223a202200000000000000000000000000000000000000000000600082015250565b7f4552433732313a20617070726f76616c20746f2063757272656e74206f776e6560008201527f7200000000000000000000000000000000000000000000000000000000000000602082015250565b7f646174613a6170706c69636174696f6e2f6a736f6e3b6261736536342c000000600082015250565b7f4552433732313a207472616e736665722063616c6c6572206973206e6f74206f60008201527f776e6572206e6f7220617070726f766564000000000000000000000000000000602082015250565b613d0e81613459565b8114613d1957600080fd5b50565b613d258161346b565b8114613d3057600080fd5b50565b613d3c81613477565b8114613d4757600080fd5b50565b613d53816134c3565b8114613d5e57600080fd5b5056fe416e204e465420772f20494420257320686173206265656e206d696e74656420746f2025734142434445464748494a4b4c4d4e4f505152535455565758595a6162636465666768696a6b6c6d6e6f707172737475767778797a303132333435363738392b2fa2646970667358221220f4bf5ce6c79394e9039b80a89d0c12cdc20508c77ca0f91d731bab12a38b85f164736f6c634300080400333c7376672077696474683d2234303022206865696768743d22343030222076696577426f783d2230203020343030203430302220786d6c6e733d22687474703a2f2f7777772e77332e6f72672f323030302f737667223e3c726563742077696474683d223130302522206865696768743d2231303025222f3e3c7465787420783d223530252220793d223530252220646f6d696e616e742d626173656c696e653d226d6964646c652220746578742d616e63686f723d226d6964646c6522207374796c653d2266696c6c3a236666663b666f6e742d66616d696c793a73616e733b666f6e742d73697a653a33307078223e",
  "linkReferences": {},
  "deployedLinkReferences": {}
}