{
  "_format": "hh-sol-artifact-1",
  "contractName": "Sujiko62",
  "sourceName": "contracts/Sujiko62.sol",
  "abi": [
    {
      "inputs": [
        {
          "internalType": "address",
          "name": "_verifierAddr",
          "type": "address"
        }
      ],
      "stateMutability": "nonpayable",
      "type": "constructor"
    },
    {
      "anonymous": false,
      "inputs": [
        {
          "indexed": true,
          "internalType": "address",
          "name": "owner",
          "type": "address"
        },
        {
          "indexed": true,
          "internalType": "address",
          "name": "approved",
          "type": "address"
        },
        {
          "indexed": true,
          "internalType": "uint256",
          "name": "tokenId",
          "type": "uint256"
        }
      ],
      "name": "Approval",
      "type": "event"
    },
    {
      "anonymous": false,
      "inputs": [
        {
          "indexed": true,
          "internalType": "address",
          "name": "owner",
          "type": "address"
        },
        {
          "indexed": true,
          "internalType": "address",
          "name": "operator",
          "type": "address"
        },
        {
          "indexed": false,
          "internalType": "bool",
          "name": "approved",
          "type": "bool"
        }
      ],
      "name": "ApprovalForAll",
      "type": "event"
    },
    {
      "anonymous": false,
      "inputs": [
        {
          "indexed": true,
          "internalType": "address",
          "name": "from",
          "type": "address"
        },
        {
          "indexed": true,
          "internalType": "address",
          "name": "to",
          "type": "address"
        },
        {
          "indexed": true,
          "internalType": "uint256",
          "name": "tokenId",
          "type": "uint256"
        }
      ],
      "name": "Transfer",
      "type": "event"
    },
    {
      "inputs": [
        {
          "internalType": "address",
          "name": "to",
          "type": "address"
        },
        {
          "internalType": "uint256",
          "name": "tokenId",
          "type": "uint256"
        }
      ],
      "name": "approve",
      "outputs": [],
      "stateMutability": "nonpayable",
      "type": "function"
    },
    {
      "inputs": [
        {
          "internalType": "address",
          "name": "owner",
          "type": "address"
        }
      ],
      "name": "balanceOf",
      "outputs": [
        {
          "internalType": "uint256",
          "name": "",
          "type": "uint256"
        }
      ],
      "stateMutability": "view",
      "type": "function"
    },
    {
      "inputs": [
        {
          "internalType": "uint256[2]",
          "name": "a",
          "type": "uint256[2]"
        },
        {
          "internalType": "uint256[2][2]",
          "name": "b",
          "type": "uint256[2][2]"
        },
        {
          "internalType": "uint256[2]",
          "name": "c",
          "type": "uint256[2]"
        },
        {
          "internalType": "uint256[20]",
          "name": "input",
          "type": "uint256[20]"
        }
      ],
      "name": "contributeSujiko62",
      "outputs": [
        {
          "internalType": "bool",
          "name": "",
          "type": "bool"
        }
      ],
      "stateMutability": "nonpayable",
      "type": "function"
    },
    {
      "inputs": [
        {
          "internalType": "uint256[20]",
          "name": "_sujiko",
          "type": "uint256[20]"
        }
      ],
      "name": "contributeWithSujiko62",
      "outputs": [
        {
          "internalType": "bool",
          "name": "",
          "type": "bool"
        }
      ],
      "stateMutability": "nonpayable",
      "type": "function"
    },
    {
      "inputs": [
        {
          "internalType": "uint256",
          "name": "tokenId",
          "type": "uint256"
        }
      ],
      "name": "getApproved",
      "outputs": [
        {
          "internalType": "address",
          "name": "",
          "type": "address"
        }
      ],
      "stateMutability": "view",
      "type": "function"
    },
    {
      "inputs": [
        {
          "internalType": "uint256",
          "name": "_i",
          "type": "uint256"
        }
      ],
      "name": "getNewSujiko62",
      "outputs": [
        {
          "internalType": "uint256[6]",
          "name": "",
          "type": "uint256[6]"
        },
        {
          "internalType": "uint256[2]",
          "name": "",
          "type": "uint256[2]"
        },
        {
          "internalType": "uint256[6][2]",
          "name": "",
          "type": "uint256[6][2]"
        },
        {
          "internalType": "uint256",
          "name": "",
          "type": "uint256"
        }
      ],
      "stateMutability": "view",
      "type": "function"
    },
    {
      "inputs": [
        {
          "internalType": "address",
          "name": "owner",
          "type": "address"
        },
        {
          "internalType": "address",
          "name": "operator",
          "type": "address"
        }
      ],
      "name": "isApprovedForAll",
      "outputs": [
        {
          "internalType": "bool",
          "name": "",
          "type": "bool"
        }
      ],
      "stateMutability": "view",
      "type": "function"
    },
    {
      "inputs": [
        {
          "internalType": "uint256[20]",
          "name": "_sujiko",
          "type": "uint256[20]"
        }
      ],
      "name": "isNewSujiko62",
      "outputs": [
        {
          "internalType": "bool",
          "name": "",
          "type": "bool"
        }
      ],
      "stateMutability": "view",
      "type": "function"
    },
    {
      "inputs": [],
      "name": "limitSujikos",
      "outputs": [
        {
          "internalType": "uint256",
          "name": "",
          "type": "uint256"
        }
      ],
      "stateMutability": "view",
      "type": "function"
    },
    {
      "inputs": [
        {
          "internalType": "address",
          "name": "personAddress",
          "type": "address"
        }
      ],
      "name": "mintNFT",
      "outputs": [],
      "stateMutability": "nonpayable",
      "type": "function"
    },
    {
      "inputs": [],
      "name": "name",
      "outputs": [
        {
          "internalType": "string",
          "name": "",
          "type": "string"
        }
      ],
      "stateMutability": "view",
      "type": "function"
    },
    {
      "inputs": [
        {
          "internalType": "uint256",
          "name": "tokenId",
          "type": "uint256"
        }
      ],
      "name": "ownerOf",
      "outputs": [
        {
          "internalType": "address",
          "name": "",
          "type": "address"
        }
      ],
      "stateMutability": "view",
      "type": "function"
    },
    {
      "inputs": [],
      "name": "random",
      "outputs": [
        {
          "internalType": "uint256",
          "name": "",
          "type": "uint256"
        }
      ],
      "stateMutability": "view",
      "type": "function"
    },
    {
      "inputs": [
        {
          "internalType": "address",
          "name": "from",
          "type": "address"
        },
        {
          "internalType": "address",
          "name": "to",
          "type": "address"
        },
        {
          "internalType": "uint256",
          "name": "tokenId",
          "type": "uint256"
        }
      ],
      "name": "safeTransferFrom",
      "outputs": [],
      "stateMutability": "nonpayable",
      "type": "function"
    },
    {
      "inputs": [
        {
          "internalType": "address",
          "name": "from",
          "type": "address"
        },
        {
          "internalType": "address",
          "name": "to",
          "type": "address"
        },
        {
          "internalType": "uint256",
          "name": "tokenId",
          "type": "uint256"
        },
        {
          "internalType": "bytes",
          "name": "_data",
          "type": "bytes"
        }
      ],
      "name": "safeTransferFrom",
      "outputs": [],
      "stateMutability": "nonpayable",
      "type": "function"
    },
    {
      "inputs": [
        {
          "internalType": "address",
          "name": "operator",
          "type": "address"
        },
        {
          "internalType": "bool",
          "name": "approved",
          "type": "bool"
        }
      ],
      "name": "setApprovalForAll",
      "outputs": [],
      "stateMutability": "nonpayable",
      "type": "function"
    },
    {
      "inputs": [
        {
          "internalType": "bytes4",
          "name": "interfaceId",
          "type": "bytes4"
        }
      ],
      "name": "supportsInterface",
      "outputs": [
        {
          "internalType": "bool",
          "name": "",
          "type": "bool"
        }
      ],
      "stateMutability": "view",
      "type": "function"
    },
    {
      "inputs": [],
      "name": "symbol",
      "outputs": [
        {
          "internalType": "string",
          "name": "",
          "type": "string"
        }
      ],
      "stateMutability": "view",
      "type": "function"
    },
    {
      "inputs": [
        {
          "internalType": "uint256",
          "name": "tokenId",
          "type": "uint256"
        }
      ],
      "name": "tokenURI",
      "outputs": [
        {
          "internalType": "string",
          "name": "",
          "type": "string"
        }
      ],
      "stateMutability": "view",
      "type": "function"
    },
    {
      "inputs": [
        {
          "internalType": "address",
          "name": "from",
          "type": "address"
        },
        {
          "internalType": "address",
          "name": "to",
          "type": "address"
        },
        {
          "internalType": "uint256",
          "name": "tokenId",
          "type": "uint256"
        }
      ],
      "name": "transferFrom",
      "outputs": [],
      "stateMutability": "nonpayable",
      "type": "function"
    },
    {
      "inputs": [],
      "name": "verifierAddr",
      "outputs": [
        {
          "internalType": "address",
          "name": "",
          "type": "address"
        }
      ],
      "stateMutability": "view",
      "type": "function"
    },
    {
      "inputs": [
        {
          "internalType": "uint256[2]",
          "name": "a",
          "type": "uint256[2]"
        },
        {
          "internalType": "uint256[2][2]",
          "name": "b",
          "type": "uint256[2][2]"
        },
        {
          "internalType": "uint256[2]",
          "name": "c",
          "type": "uint256[2]"
        },
        {
          "internalType": "uint256[20]",
          "name": "input",
          "type": "uint256[20]"
        }
      ],
      "name": "verifyProof",
      "outputs": [
        {
          "internalType": "bool",
          "name": "",
          "type": "bool"
        }
      ],
      "stateMutability": "view",
      "type": "function"
    },
    {
      "inputs": [
        {
          "internalType": "uint256[2]",
          "name": "a",
          "type": "uint256[2]"
        },
        {
          "internalType": "uint256[2][2]",
          "name": "b",
          "type": "uint256[2][2]"
        },
        {
          "internalType": "uint256[2]",
          "name": "c",
          "type": "uint256[2]"
        },
        {
          "internalType": "uint256[20]",
          "name": "input",
          "type": "uint256[20]"
        }
      ],
      "name": "verifySujiko62",
      "outputs": [
        {
          "internalType": "bool",
          "name": "",
          "type": "bool"
        }
      ],
      "stateMutability": "view",
      "type": "function"
    }
  ],
  "bytecode": "0x608060405260405180610120016040528060f18152602001620053e360f1913961028b90805190602001906200003792919062000366565b506040518060400160405280600d81526020017f3c2f746578743e3c2f7376673e0000000000000000000000000000000000000081525061028c90805190602001906200008692919062000366565b503480156200009457600080fd5b50604051620054d4380380620054d48339818101604052810190620000ba91906200054c565b6040518060400160405280600881526020017f53756a696b6f36320000000000000000000000000000000000000000000000008152506040518060400160405280600881526020017f53554a494b4f363200000000000000000000000000000000000000000000000081525081600090805190602001906200013e92919062000366565b5080600190805190602001906200015792919062000366565b50505080600960006101000a81548173ffffffffffffffffffffffffffffffffffffffff021916908373ffffffffffffffffffffffffffffffffffffffff1602179055506020600a8190555060405180606001604052806040518060c001604052806001815260200160008152602001600081526020016000815260200160058152602001600081525081526020016040518060400160405280600a8152602001600f815250815260200160405180604001604052806040518060c001604052806001815260200160018152602001600181526020016001815260200160008152602001600081525081526020016040518060c0016040528060008152602001600081526020016000815260200160018152602001600181526020016001815250815250815250600b6200029760086200034260201b62001bfe1760201c565b60208110620002cf577f4e487b7100000000000000000000000000000000000000000000000000000000600052603260045260246000fd5b60140201600082015181600001906006620002ec929190620003f7565b50602082015181600601906002620003069291906200043c565b506040820151816008019060026200032092919062000481565b509050506200033b60086200035060201b62001c0c1760201c565b506200062b565b600081600001549050919050565b6001816000016000828254019250508190555050565b8280546200037490620005ac565b90600052602060002090601f016020900481019282620003985760008555620003e4565b82601f10620003b357805160ff1916838001178555620003e4565b82800160010185558215620003e4579182015b82811115620003e3578251825591602001919060010190620003c6565b5b509050620003f39190620004d9565b5090565b826006810192821562000429579160200282015b82811115620004285782518255916020019190600101906200040b565b5b509050620004389190620004d9565b5090565b82600281019282156200046e579160200282015b828111156200046d57825182559160200191906001019062000450565b5b5090506200047d9190620004d9565b5090565b8260026006028101928215620004c6579160200282015b82811115620004c557825182906006620004b4929190620003f7565b509160200191906006019062000498565b5b509050620004d59190620004f8565b5090565b5b80821115620004f4576000816000905550600101620004da565b5090565b5b808211156200051c576000818162000512919062000520565b50600601620004f9565b5090565b508060060190620005329190620004d9565b50565b600081519050620005468162000611565b92915050565b6000602082840312156200055f57600080fd5b60006200056f8482850162000535565b91505092915050565b600062000585826200058c565b9050919050565b600073ffffffffffffffffffffffffffffffffffffffff82169050919050565b60006002820490506001821680620005c557607f821691505b60208210811415620005dc57620005db620005e2565b5b50919050565b7f4e487b7100000000000000000000000000000000000000000000000000000000600052602260045260246000fd5b6200061c8162000578565b81146200062857600080fd5b50565b614da8806200063b6000396000f3fe608060405234801561001057600080fd5b506004361061014d5760003560e01c80636352211e116100c3578063b8736bfc1161007c578063b8736bfc146103c7578063b88d4fde146103f7578063c87b56dd14610413578063d45a131214610443578063e56ac42f14610473578063e985e9c5146104a35761014d565b80636352211e146102f1578063663ea2e21461032157806370a082311461033f5780638f476f0a1461036f57806395d89b411461038d578063a22cb465146103ab5761014d565b806323b872dd1161011557806323b872dd1461021f5780632e9c8a5d1461023b57806342842e0e1461026b5780634a8322ba1461028757806354ba0f27146102b75780635ec01e4d146102d35761014d565b806301ffc9a714610152578063021e74d71461018257806306fdde03146101b5578063081812fc146101d3578063095ea7b314610203575b600080fd5b61016c6004803603810190610167919061330e565b6104d3565b6040516101799190613d32565b60405180910390f35b61019c60048036038101906101979190613360565b6105b5565b6040516101ac9493929190613cea565b60405180910390f35b6101bd6107f7565b6040516101ca9190613d4d565b60405180910390f35b6101ed60048036038101906101e89190613360565b610889565b6040516101fa9190613c3c565b60405180910390f35b61021d6004803603810190610218919061321a565b61090e565b005b61023960048036038101906102349190613114565b610a26565b005b61025560048036038101906102509190613280565b610a86565b6040516102629190613d32565b60405180910390f35b61028560048036038101906102809190613114565b610b28565b005b6102a1600480360381019061029c9190613280565b610b48565b6040516102ae9190613d32565b60405180910390f35b6102d160048036038101906102cc91906130af565b610bfb565b005b6102db610cd3565b6040516102e8919061404d565b60405180910390f35b61030b60048036038101906103069190613360565b610d1a565b6040516103189190613c3c565b60405180910390f35b610329610dcc565b6040516103369190613c3c565b60405180910390f35b610359600480360381019061035491906130af565b610df2565b604051610366919061404d565b60405180910390f35b610377610eaa565b604051610384919061404d565b60405180910390f35b610395610eb0565b6040516103a29190613d4d565b60405180910390f35b6103c560048036038101906103c091906131de565b610f42565b005b6103e160048036038101906103dc9190613256565b610f58565b6040516103ee9190613d32565b60405180910390f35b610411600480360381019061040c9190613163565b6113e8565b005b61042d60048036038101906104289190613360565b61144a565b60405161043a9190613d4d565b60405180910390f35b61045d60048036038101906104589190613256565b61159c565b60405161046a9190613d32565b60405180910390f35b61048d60048036038101906104889190613280565b611aad565b60405161049a9190613d32565b60405180910390f35b6104bd60048036038101906104b891906130d8565b611b6a565b6040516104ca9190613d32565b60405180910390f35b60007f80ac58cd000000000000000000000000000000000000000000000000000000007bffffffffffffffffffffffffffffffffffffffffffffffffffffffff1916827bffffffffffffffffffffffffffffffffffffffffffffffffffffffff1916148061059e57507f5b5e139f000000000000000000000000000000000000000000000000000000007bffffffffffffffffffffffffffffffffffffffffffffffffffffffff1916827bffffffffffffffffffffffffffffffffffffffffffffffffffffffff1916145b806105ae57506105ad82611c22565b5b9050919050565b6105bd612c0f565b6105c5612c31565b6105cd612c53565b60008085101580156105e757506105e46008611bfe565b85105b610626576040517f08c379a000000000000000000000000000000000000000000000000000000000815260040161061d90613ecd565b60405180910390fd5b600b8560208110610660577f4e487b7100000000000000000000000000000000000000000000000000000000600052603260045260246000fd5b60140201600001600b86602081106106a1577f4e487b7100000000000000000000000000000000000000000000000000000000600052603260045260246000fd5b60140201600601600b87602081106106e2577f4e487b7100000000000000000000000000000000000000000000000000000000600052603260045260246000fd5b601402016008016106f36008611bfe565b8360068060200260405190810160405280929190826006801561072b576020028201915b815481526020019060010190808311610717575b505050505093508260028060200260405190810160405280929190826002801561076a576020028201915b815481526020019060010190808311610756575b5050505050925081600280602002604051908101604052809291906000905b828210156107e2578382600602016006806020026040519081016040528092919082600680156107ce576020028201915b8154815260200190600101908083116107ba575b505050505081526020019060010190610789565b50505050915093509350935093509193509193565b6060600080546108069061444a565b80601f01602080910402602001604051908101604052809291908181526020018280546108329061444a565b801561087f5780601f106108545761010080835404028352916020019161087f565b820191906000526020600020905b81548152906001019060200180831161086257829003601f168201915b5050505050905090565b600061089482611c8c565b6108d3576040517f08c379a00000000000000000000000000000000000000000000000000000000081526004016108ca90613f8d565b60405180910390fd5b6004600083815260200190815260200160002060009054906101000a900473ffffffffffffffffffffffffffffffffffffffff169050919050565b600061091982610d1a565b90508073ffffffffffffffffffffffffffffffffffffffff168373ffffffffffffffffffffffffffffffffffffffff16141561098a576040517f08c379a000000000000000000000000000000000000000000000000000000000815260040161098190613fcd565b60405180910390fd5b8073ffffffffffffffffffffffffffffffffffffffff166109a9611cf8565b73ffffffffffffffffffffffffffffffffffffffff1614806109d857506109d7816109d2611cf8565b611b6a565b5b610a17576040517f08c379a0000000000000000000000000000000000000000000000000000000008152600401610a0e90613ead565b60405180910390fd5b610a218383611d00565b505050565b610a37610a31611cf8565b82611db9565b610a76576040517f08c379a0000000000000000000000000000000000000000000000000000000008152600401610a6d90613fed565b60405180910390fd5b610a81838383611e97565b505050565b6000610a9485858585611aad565b610ad3576040517f08c379a0000000000000000000000000000000000000000000000000000000008152600401610aca9061400d565b60405180910390fd5b610adc82610f58565b15610b1c576040517f08c379a0000000000000000000000000000000000000000000000000000000008152600401610b139061402d565b60405180910390fd5b60019050949350505050565b610b43838383604051806020016040528060008152506113e8565b505050565b6000610b5685858585611aad565b610b95576040517f08c379a0000000000000000000000000000000000000000000000000000000008152600401610b8c9061400d565b60405180910390fd5b610b9e82610f58565b610bdd576040517f08c379a0000000000000000000000000000000000000000000000000000000008152600401610bd490613dcd565b60405180910390fd5b610be68261159c565b610bef57600080fd5b60019050949350505050565b6000610c076007611bfe565b9050600061028b61028c604051602001610c22929190613b7c565b60405160208183030381529060405290506000610c65610c41836120fe565b604051602001610c519190613bab565b6040516020818303038152906040526120fe565b9050600081604051602001610c7a9190613bee565b6040516020818303038152906040529050610c958585612288565b610c9f84826122a6565b610ca96007611c0c565b610ccc604051806060016040528060258152602001614d0e60259139858761231a565b5050505050565b6000610cdf6008611bfe565b4244604051602001610cf2929190613c10565b6040516020818303038152906040528051906020012060001c610d159190614500565b905090565b6000806002600084815260200190815260200160002060009054906101000a900473ffffffffffffffffffffffffffffffffffffffff169050600073ffffffffffffffffffffffffffffffffffffffff168173ffffffffffffffffffffffffffffffffffffffff161415610dc3576040517f08c379a0000000000000000000000000000000000000000000000000000000008152600401610dba90613f0d565b60405180910390fd5b80915050919050565b600960009054906101000a900473ffffffffffffffffffffffffffffffffffffffff1681565b60008073ffffffffffffffffffffffffffffffffffffffff168273ffffffffffffffffffffffffffffffffffffffff161415610e63576040517f08c379a0000000000000000000000000000000000000000000000000000000008152600401610e5a90613eed565b60405180910390fd5b600360008373ffffffffffffffffffffffffffffffffffffffff1673ffffffffffffffffffffffffffffffffffffffff168152602001908152602001600020549050919050565b600a5481565b606060018054610ebf9061444a565b80601f0160208091040260200160405190810160405280929190818152602001828054610eeb9061444a565b8015610f385780601f10610f0d57610100808354040283529160200191610f38565b820191906000526020600020905b815481529060010190602001808311610f1b57829003601f168201915b5050505050905090565b610f54610f4d611cf8565b83836123b9565b5050565b600080610f656008611bfe565b905060005b818110156113dc5760006001905060005b600681101561105c578180156110475750858160148110610fc5577f4e487b7100000000000000000000000000000000000000000000000000000000600052603260045260246000fd5b6020020151600b8460208110611004577f4e487b7100000000000000000000000000000000000000000000000000000000600052603260045260246000fd5b601402016000018260068110611043577f4e487b7100000000000000000000000000000000000000000000000000000000600052603260045260246000fd5b0154145b91508080611054906144ad565b915050610f7b565b506000600690505b60088110156111515781801561113c57508581601481106110ae577f4e487b7100000000000000000000000000000000000000000000000000000000600052603260045260246000fd5b6020020151600b84602081106110ed577f4e487b7100000000000000000000000000000000000000000000000000000000600052603260045260246000fd5b601402016006016006836111019190614360565b60028110611138577f4e487b7100000000000000000000000000000000000000000000000000000000600052603260045260246000fd5b0154145b91508080611149906144ad565b915050611064565b506000600890505b600e8110156112835781801561126e57508581601481106111a3577f4e487b7100000000000000000000000000000000000000000000000000000000600052603260045260246000fd5b6020020151600b84602081106111e2577f4e487b7100000000000000000000000000000000000000000000000000000000600052603260045260246000fd5b60140201600801600060028110611222577f4e487b7100000000000000000000000000000000000000000000000000000000600052603260045260246000fd5b600602016008836112339190614360565b6006811061126a577f4e487b7100000000000000000000000000000000000000000000000000000000600052603260045260246000fd5b0154145b9150808061127b906144ad565b915050611159565b506000600e90505b60148110156113b5578180156113a057508581601481106112d5577f4e487b7100000000000000000000000000000000000000000000000000000000600052603260045260246000fd5b6020020151600b8460208110611314577f4e487b7100000000000000000000000000000000000000000000000000000000600052603260045260246000fd5b60140201600801600160028110611354577f4e487b7100000000000000000000000000000000000000000000000000000000600052603260045260246000fd5b60060201600e836113659190614360565b6006811061139c577f4e487b7100000000000000000000000000000000000000000000000000000000600052603260045260246000fd5b0154145b915080806113ad906144ad565b91505061128b565b5080156113c857600093505050506113e3565b5080806113d4906144ad565b915050610f6a565b5060019150505b919050565b6113f96113f3611cf8565b83611db9565b611438576040517f08c379a000000000000000000000000000000000000000000000000000000000815260040161142f90613fed565b60405180910390fd5b61144484848484612526565b50505050565b606061145582611c8c565b611494576040517f08c379a000000000000000000000000000000000000000000000000000000000815260040161148b90613f6d565b60405180910390fd5b60006006600084815260200190815260200160002080546114b49061444a565b80601f01602080910402602001604051908101604052809291908181526020018280546114e09061444a565b801561152d5780601f106115025761010080835404028352916020019161152d565b820191906000526020600020905b81548152906001019060200180831161151057829003601f168201915b50505050509050600061153e612582565b9050600081511415611554578192505050611597565b600082511115611589578082604051602001611571929190613b58565b60405160208183030381529060405292505050611597565b61159284612599565b925050505b919050565b6000600a546115ab6008611bfe565b106115eb576040517f08c379a00000000000000000000000000000000000000000000000000000000081526004016115e290613e8d565b60405180910390fd5b600060405180606001604052806040518060c001604052806000815260200160008152602001600081526020016000815260200160008152602001600081525081526020016040518060400160405280600081526020016000815250815260200160405180604001604052806040518060c001604052806000815260200160008152602001600081526020016000815260200160008152602001600081525081526020016040518060c0016040528060008152602001600081526020016000815260200160008152602001600081526020016000815250815250815250905060005b600681101561176d5783816014811061170f577f4e487b7100000000000000000000000000000000000000000000000000000000600052603260045260246000fd5b602002015182600001518260068110611751577f4e487b7100000000000000000000000000000000000000000000000000000000600052603260045260246000fd5b6020020181815250508080611765906144ad565b9150506116cd565b506000600690505b6008811015611821578381601481106117b7577f4e487b7100000000000000000000000000000000000000000000000000000000600052603260045260246000fd5b602002015182602001516006836117ce9190614360565b60028110611805577f4e487b7100000000000000000000000000000000000000000000000000000000600052603260045260246000fd5b6020020181815250508080611819906144ad565b915050611775565b506000600890505b600e8110156119135783816014811061186b577f4e487b7100000000000000000000000000000000000000000000000000000000600052603260045260246000fd5b602002015182604001516000600281106118ae577f4e487b7100000000000000000000000000000000000000000000000000000000600052603260045260246000fd5b60200201516008836118c09190614360565b600681106118f7577f4e487b7100000000000000000000000000000000000000000000000000000000600052603260045260246000fd5b602002018181525050808061190b906144ad565b915050611829565b506000600e90505b6014811015611a055783816014811061195d577f4e487b7100000000000000000000000000000000000000000000000000000000600052603260045260246000fd5b602002015182604001516001600281106119a0577f4e487b7100000000000000000000000000000000000000000000000000000000600052603260045260246000fd5b6020020151600e836119b29190614360565b600681106119e9577f4e487b7100000000000000000000000000000000000000000000000000000000600052603260045260246000fd5b60200201818152505080806119fd906144ad565b91505061191b565b5080600b611a136008611bfe565b60208110611a4a577f4e487b7100000000000000000000000000000000000000000000000000000000600052603260045260246000fd5b60140201600082015181600001906006611a65929190612c80565b50602082015181600601906002611a7d929190612cc0565b50604082015181600801906002611a95929190612d00565b50905050611aa36008611c0c565b6001915050919050565b6000600960009054906101000a900473ffffffffffffffffffffffffffffffffffffffff1673ffffffffffffffffffffffffffffffffffffffff1663e56ac42f868686866040518563ffffffff1660e01b8152600401611b109493929190613ca3565b60206040518083038186803b158015611b2857600080fd5b505afa158015611b3c573d6000803e3d6000fd5b505050506040513d601f19601f82011682018060405250810190611b6091906132e5565b9050949350505050565b6000600560008473ffffffffffffffffffffffffffffffffffffffff1673ffffffffffffffffffffffffffffffffffffffff16815260200190815260200160002060008373ffffffffffffffffffffffffffffffffffffffff1673ffffffffffffffffffffffffffffffffffffffff16815260200190815260200160002060009054906101000a900460ff16905092915050565b600081600001549050919050565b6001816000016000828254019250508190555050565b60007f01ffc9a7000000000000000000000000000000000000000000000000000000007bffffffffffffffffffffffffffffffffffffffffffffffffffffffff1916827bffffffffffffffffffffffffffffffffffffffffffffffffffffffff1916149050919050565b60008073ffffffffffffffffffffffffffffffffffffffff166002600084815260200190815260200160002060009054906101000a900473ffffffffffffffffffffffffffffffffffffffff1673ffffffffffffffffffffffffffffffffffffffff1614159050919050565b600033905090565b816004600083815260200190815260200160002060006101000a81548173ffffffffffffffffffffffffffffffffffffffff021916908373ffffffffffffffffffffffffffffffffffffffff160217905550808273ffffffffffffffffffffffffffffffffffffffff16611d7383610d1a565b73ffffffffffffffffffffffffffffffffffffffff167f8c5be1e5ebec7d5bd14f71427d1e84f3dd0314c0f7b2291e5b200ac8c7c3b92560405160405180910390a45050565b6000611dc482611c8c565b611e03576040517f08c379a0000000000000000000000000000000000000000000000000000000008152600401611dfa90613e6d565b60405180910390fd5b6000611e0e83610d1a565b90508073ffffffffffffffffffffffffffffffffffffffff168473ffffffffffffffffffffffffffffffffffffffff161480611e7d57508373ffffffffffffffffffffffffffffffffffffffff16611e6584610889565b73ffffffffffffffffffffffffffffffffffffffff16145b80611e8e5750611e8d8185611b6a565b5b91505092915050565b8273ffffffffffffffffffffffffffffffffffffffff16611eb782610d1a565b73ffffffffffffffffffffffffffffffffffffffff1614611f0d576040517f08c379a0000000000000000000000000000000000000000000000000000000008152600401611f0490613ded565b60405180910390fd5b600073ffffffffffffffffffffffffffffffffffffffff168273ffffffffffffffffffffffffffffffffffffffff161415611f7d576040517f08c379a0000000000000000000000000000000000000000000000000000000008152600401611f7490613e2d565b60405180910390fd5b611f88838383612640565b611f93600082611d00565b6001600360008573ffffffffffffffffffffffffffffffffffffffff1673ffffffffffffffffffffffffffffffffffffffff1681526020019081526020016000206000828254611fe39190614360565b925050819055506001600360008473ffffffffffffffffffffffffffffffffffffffff1673ffffffffffffffffffffffffffffffffffffffff168152602001908152602001600020600082825461203a919061427f565b92505081905550816002600083815260200190815260200160002060006101000a81548173ffffffffffffffffffffffffffffffffffffffff021916908373ffffffffffffffffffffffffffffffffffffffff160217905550808273ffffffffffffffffffffffffffffffffffffffff168473ffffffffffffffffffffffffffffffffffffffff167fddf252ad1be2c89b69c2b068fc378daa952ba7f163c4a11628f55a4df523b3ef60405160405180910390a46120f9838383612645565b505050565b606060008251141561212157604051806020016040528060008152509050612283565b6000604051806060016040528060408152602001614d336040913990506000600360028551612150919061427f565b61215a91906142d5565b60046121669190614306565b67ffffffffffffffff8111156121a5577f4e487b7100000000000000000000000000000000000000000000000000000000600052604160045260246000fd5b6040519080825280601f01601f1916602001820160405280156121d75781602001600182028036833780820191505090505b509050600182016020820185865187015b80821015612243576003820191508151603f8160121c168501518453600184019350603f81600c1c168501518453600184019350603f8160061c168501518453600184019350603f81168501518453600184019350506121e8565b505060038651066001811461225f57600281146122725761227a565b603d6001830353603d600283035361227a565b603d60018303535b50505080925050505b919050565b6122a282826040518060200160405280600081525061264a565b5050565b6122af82611c8c565b6122ee576040517f08c379a00000000000000000000000000000000000000000000000000000000081526004016122e590613f2d565b60405180910390fd5b80600660008481526020019081526020016000209080519060200190612315929190612d51565b505050565b6123b483838360405160240161233293929190613d6f565b6040516020818303038152906040527fe3849f79000000000000000000000000000000000000000000000000000000007bffffffffffffffffffffffffffffffffffffffffffffffffffffffff19166020820180517bffffffffffffffffffffffffffffffffffffffffffffffffffffffff83818316178352505050506126a5565b505050565b8173ffffffffffffffffffffffffffffffffffffffff168373ffffffffffffffffffffffffffffffffffffffff161415612428576040517f08c379a000000000000000000000000000000000000000000000000000000000815260040161241f90613e4d565b60405180910390fd5b80600560008573ffffffffffffffffffffffffffffffffffffffff1673ffffffffffffffffffffffffffffffffffffffff16815260200190815260200160002060008473ffffffffffffffffffffffffffffffffffffffff1673ffffffffffffffffffffffffffffffffffffffff16815260200190815260200160002060006101000a81548160ff0219169083151502179055508173ffffffffffffffffffffffffffffffffffffffff168373ffffffffffffffffffffffffffffffffffffffff167f17307eab39ab6107e8899845ad3d59bd9653f200f220920489ca2b5937696c31836040516125199190613d32565b60405180910390a3505050565b612531848484611e97565b61253d848484846126ce565b61257c576040517f08c379a000000000000000000000000000000000000000000000000000000000815260040161257390613dad565b60405180910390fd5b50505050565b606060405180602001604052806000815250905090565b60606125a482611c8c565b6125e3576040517f08c379a00000000000000000000000000000000000000000000000000000000081526004016125da90613fad565b60405180910390fd5b60006125ed612582565b9050600081511161260d5760405180602001604052806000815250612638565b8061261784612865565b604051602001612628929190613b58565b6040516020818303038152906040525b915050919050565b505050565b505050565b6126548383612a12565b61266160008484846126ce565b6126a0576040517f08c379a000000000000000000000000000000000000000000000000000000000815260040161269790613dad565b60405180910390fd5b505050565b60008151905060006a636f6e736f6c652e6c6f679050602083016000808483855afa5050505050565b60006126ef8473ffffffffffffffffffffffffffffffffffffffff16612bec565b15612858578373ffffffffffffffffffffffffffffffffffffffff1663150b7a02612718611cf8565b8786866040518563ffffffff1660e01b815260040161273a9493929190613c57565b602060405180830381600087803b15801561275457600080fd5b505af192505050801561278557506040513d601f19601f820116820180604052508101906127829190613337565b60015b612808573d80600081146127b5576040519150601f19603f3d011682016040523d82523d6000602084013e6127ba565b606091505b50600081511415612800576040517f08c379a00000000000000000000000000000000000000000000000000000000081526004016127f790613dad565b60405180910390fd5b805181602001fd5b63150b7a0260e01b7bffffffffffffffffffffffffffffffffffffffffffffffffffffffff1916817bffffffffffffffffffffffffffffffffffffffffffffffffffffffff19161491505061285d565b600190505b949350505050565b606060008214156128ad576040518060400160405280600181526020017f30000000000000000000000000000000000000000000000000000000000000008152509050612a0d565b600082905060005b600082146128df5780806128c8906144ad565b915050600a826128d891906142d5565b91506128b5565b60008167ffffffffffffffff811115612921577f4e487b7100000000000000000000000000000000000000000000000000000000600052604160045260246000fd5b6040519080825280601f01601f1916602001820160405280156129535781602001600182028036833780820191505090505b5090505b60008514612a065760018261296c9190614360565b9150600a8561297b9190614500565b6030612987919061427f565b60f81b8183815181106129c3577f4e487b7100000000000000000000000000000000000000000000000000000000600052603260045260246000fd5b60200101907effffffffffffffffffffffffffffffffffffffffffffffffffffffffffffff1916908160001a905350600a856129ff91906142d5565b9450612957565b8093505050505b919050565b600073ffffffffffffffffffffffffffffffffffffffff168273ffffffffffffffffffffffffffffffffffffffff161415612a82576040517f08c379a0000000000000000000000000000000000000000000000000000000008152600401612a7990613f4d565b60405180910390fd5b612a8b81611c8c565b15612acb576040517f08c379a0000000000000000000000000000000000000000000000000000000008152600401612ac290613e0d565b60405180910390fd5b612ad760008383612640565b6001600360008473ffffffffffffffffffffffffffffffffffffffff1673ffffffffffffffffffffffffffffffffffffffff1681526020019081526020016000206000828254612b27919061427f565b92505081905550816002600083815260200190815260200160002060006101000a81548173ffffffffffffffffffffffffffffffffffffffff021916908373ffffffffffffffffffffffffffffffffffffffff160217905550808273ffffffffffffffffffffffffffffffffffffffff16600073ffffffffffffffffffffffffffffffffffffffff167fddf252ad1be2c89b69c2b068fc378daa952ba7f163c4a11628f55a4df523b3ef60405160405180910390a4612be860008383612645565b5050565b6000808273ffffffffffffffffffffffffffffffffffffffff163b119050919050565b6040518060c00160405280600690602082028036833780820191505090505090565b6040518060400160405280600290602082028036833780820191505090505090565b60405180604001604052806002905b612c6a612c0f565b815260200190600190039081612c625790505090565b8260068101928215612caf579160200282015b82811115612cae578251825591602001919060010190612c93565b5b509050612cbc9190612dd7565b5090565b8260028101928215612cef579160200282015b82811115612cee578251825591602001919060010190612cd3565b5b509050612cfc9190612dd7565b5090565b8260026006028101928215612d40579160200282015b82811115612d3f57825182906006612d2f929190612c80565b5091602001919060060190612d16565b5b509050612d4d9190612df4565b5090565b828054612d5d9061444a565b90600052602060002090601f016020900481019282612d7f5760008555612dc6565b82601f10612d9857805160ff1916838001178555612dc6565b82800160010185558215612dc6579182015b82811115612dc5578251825591602001919060010190612daa565b5b509050612dd39190612dd7565b5090565b5b80821115612df0576000816000905550600101612dd8565b5090565b5b80821115612e145760008181612e0b9190612e18565b50600601612df5565b5090565b508060060190612e289190612dd7565b50565b6000612e3e612e398461408d565b614068565b90508082856040860282011115612e5457600080fd5b60005b85811015612e845781612e6a8882612ff5565b845260208401935060408301925050600181019050612e57565b5050509392505050565b6000612ea1612e9c846140b3565b614068565b90508082856020860282011115612eb757600080fd5b60005b85811015612ee75781612ecd888261309a565b845260208401935060208301925050600181019050612eba565b5050509392505050565b6000612f04612eff846140d9565b614068565b90508082856020860282011115612f1a57600080fd5b60005b85811015612f4a5781612f30888261309a565b845260208401935060208301925050600181019050612f1d565b5050509392505050565b6000612f67612f62846140ff565b614068565b905082815260208101848484011115612f7f57600080fd5b612f8a848285614408565b509392505050565b600081359050612fa181614cb1565b92915050565b600082601f830112612fb857600080fd5b6002612fc5848285612e2b565b91505092915050565b600082601f830112612fdf57600080fd5b6014612fec848285612e8e565b91505092915050565b600082601f83011261300657600080fd5b6002613013848285612ef1565b91505092915050565b60008135905061302b81614cc8565b92915050565b60008151905061304081614cc8565b92915050565b60008135905061305581614cdf565b92915050565b60008151905061306a81614cdf565b92915050565b600082601f83011261308157600080fd5b8135613091848260208601612f54565b91505092915050565b6000813590506130a981614cf6565b92915050565b6000602082840312156130c157600080fd5b60006130cf84828501612f92565b91505092915050565b600080604083850312156130eb57600080fd5b60006130f985828601612f92565b925050602061310a85828601612f92565b9150509250929050565b60008060006060848603121561312957600080fd5b600061313786828701612f92565b935050602061314886828701612f92565b92505060406131598682870161309a565b9150509250925092565b6000806000806080858703121561317957600080fd5b600061318787828801612f92565b945050602061319887828801612f92565b93505060406131a98782880161309a565b925050606085013567ffffffffffffffff8111156131c657600080fd5b6131d287828801613070565b91505092959194509250565b600080604083850312156131f157600080fd5b60006131ff85828601612f92565b92505060206132108582860161301c565b9150509250929050565b6000806040838503121561322d57600080fd5b600061323b85828601612f92565b925050602061324c8582860161309a565b9150509250929050565b6000610280828403121561326957600080fd5b600061327784828501612fce565b91505092915050565b600080600080610380858703121561329757600080fd5b60006132a587828801612ff5565b94505060406132b687828801612fa7565b93505060c06132c787828801612ff5565b9250506101006132d987828801612fce565b91505092959194509250565b6000602082840312156132f757600080fd5b600061330584828501613031565b91505092915050565b60006020828403121561332057600080fd5b600061332e84828501613046565b91505092915050565b60006020828403121561334957600080fd5b60006133578482850161305b565b91505092915050565b60006020828403121561337257600080fd5b60006133808482850161309a565b91505092915050565b600061339583836134e5565b60408301905092915050565b60006133ad8383613593565b60c08301905092915050565b60006133c58383613b23565b60208301905092915050565b6133da81614394565b82525050565b6133e981614177565b6133f38184614205565b92506133fe82614130565b8060005b8381101561342f5781516134168782613389565b9650613421836141c4565b925050600181019050613402565b505050505050565b61344081614182565b61344a8184614210565b92506134558261413a565b8060005b8381101561348657815161346d87826133a1565b9650613478836141d1565b925050600181019050613459565b505050505050565b6134978161418d565b6134a1818461421b565b92506134ac82614144565b8060005b838110156134dd5781516134c487826133b9565b96506134cf836141de565b9250506001810190506134b0565b505050505050565b6134ee81614198565b6134f88184614226565b92506135038261414e565b8060005b8381101561353457815161351b87826133b9565b9650613526836141eb565b925050600181019050613507565b505050505050565b61354581614198565b61354f8184614231565b925061355a8261414e565b8060005b8381101561358b57815161357287826133b9565b965061357d836141eb565b92505060018101905061355e565b505050505050565b61359c816141a3565b6135a6818461423c565b92506135b182614158565b8060005b838110156135e25781516135c987826133b9565b96506135d4836141f8565b9250506001810190506135b5565b505050505050565b6135f3816141a3565b6135fd8184614247565b925061360882614158565b8060005b8381101561363957815161362087826133b9565b965061362b836141f8565b92505060018101905061360c565b505050505050565b61364a816143a6565b82525050565b600061365b826141ae565b6136658185614252565b9350613675818560208601614417565b61367e816145ed565b840191505092915050565b6000613694826141b9565b61369e8185614263565b93506136ae818560208601614417565b6136b7816145ed565b840191505092915050565b60006136cd826141b9565b6136d78185614274565b93506136e7818560208601614417565b80840191505092915050565b600081546137008161444a565b61370a8186614274565b94506001821660008114613725576001811461373657613769565b60ff19831686528186019350613769565b61373f85614162565b60005b8381101561376157815481890152600182019150602081019050613742565b838801955050505b50505092915050565b600061377f603283614263565b915061378a826145fe565b604082019050919050565b60006137a2601d83614263565b91506137ad8261464d565b602082019050919050565b60006137c5602583614263565b91506137d082614676565b604082019050919050565b60006137e8601c83614263565b91506137f3826146c5565b602082019050919050565b600061380b601c83614274565b9150613816826146ee565b601c82019050919050565b600061382e602483614263565b915061383982614717565b604082019050919050565b6000613851601983614263565b915061385c82614766565b602082019050919050565b6000613874607b83614274565b915061387f8261478f565b607b82019050919050565b6000613897602c83614263565b91506138a28261482a565b604082019050919050565b60006138ba601f83614263565b91506138c582614879565b602082019050919050565b60006138dd603883614263565b91506138e8826148a2565b604082019050919050565b6000613900601c83614263565b915061390b826148f1565b602082019050919050565b6000613923602a83614263565b915061392e8261491a565b604082019050919050565b6000613946602983614263565b915061395182614969565b604082019050919050565b6000613969602e83614263565b9150613974826149b8565b604082019050919050565b600061398c600283614274565b915061399782614a07565b600282019050919050565b60006139af602083614263565b91506139ba82614a30565b602082019050919050565b60006139d2603183614263565b91506139dd82614a59565b604082019050919050565b60006139f5602c83614263565b9150613a0082614aa8565b604082019050919050565b6000613a18602f83614263565b9150613a2382614af7565b604082019050919050565b6000613a3b600a83614274565b9150613a4682614b46565b600a82019050919050565b6000613a5e602183614263565b9150613a6982614b6f565b604082019050919050565b6000613a81601d83614274565b9150613a8c82614bbe565b601d82019050919050565b6000613aa4601383614274565b9150613aaf82614be7565b601382019050919050565b6000613ac7603183614263565b9150613ad282614c10565b604082019050919050565b6000613aea601583614263565b9150613af582614c5f565b602082019050919050565b6000613b0d601783614263565b9150613b1882614c88565b602082019050919050565b613b2c816143fe565b82525050565b613b3b816143fe565b82525050565b613b52613b4d826143fe565b6144f6565b82525050565b6000613b6482856136c2565b9150613b7082846136c2565b91508190509392505050565b6000613b8882856136f3565b9150613b93826137fe565b9150613b9f82846136f3565b91508190509392505050565b6000613bb682613a2e565b9150613bc182613a97565b9150613bcc82613867565b9150613bd882846136c2565b9150613be38261397f565b915081905092915050565b6000613bf982613a74565b9150613c0582846136c2565b915081905092915050565b6000613c1c8285613b41565b602082019150613c2c8284613b41565b6020820191508190509392505050565b6000602082019050613c5160008301846133d1565b92915050565b6000608082019050613c6c60008301876133d1565b613c7960208301866133d1565b613c866040830185613b32565b8181036060830152613c988184613650565b905095945050505050565b600061038082019050613cb9600083018761353c565b613cc660408301866133e0565b613cd360c083018561353c565b613ce161010083018461348e565b95945050505050565b60006102a082019050613d0060008301876135ea565b613d0d60c083018661353c565b613d1b610100830185613437565b613d29610280830184613b32565b95945050505050565b6000602082019050613d476000830184613641565b92915050565b60006020820190508181036000830152613d678184613689565b905092915050565b60006060820190508181036000830152613d898186613689565b9050613d986020830185613b32565b613da560408301846133d1565b949350505050565b60006020820190508181036000830152613dc681613772565b9050919050565b60006020820190508181036000830152613de681613795565b9050919050565b60006020820190508181036000830152613e06816137b8565b9050919050565b60006020820190508181036000830152613e26816137db565b9050919050565b60006020820190508181036000830152613e4681613821565b9050919050565b60006020820190508181036000830152613e6681613844565b9050919050565b60006020820190508181036000830152613e868161388a565b9050919050565b60006020820190508181036000830152613ea6816138ad565b9050919050565b60006020820190508181036000830152613ec6816138d0565b9050919050565b60006020820190508181036000830152613ee6816138f3565b9050919050565b60006020820190508181036000830152613f0681613916565b9050919050565b60006020820190508181036000830152613f2681613939565b9050919050565b60006020820190508181036000830152613f468161395c565b9050919050565b60006020820190508181036000830152613f66816139a2565b9050919050565b60006020820190508181036000830152613f86816139c5565b9050919050565b60006020820190508181036000830152613fa6816139e8565b9050919050565b60006020820190508181036000830152613fc681613a0b565b9050919050565b60006020820190508181036000830152613fe681613a51565b9050919050565b6000602082019050818103600083015261400681613aba565b9050919050565b6000602082019050818103600083015261402681613add565b9050919050565b6000602082019050818103600083015261404681613b00565b9050919050565b60006020820190506140626000830184613b32565b92915050565b6000614072614083565b905061407e828261447c565b919050565b6000604051905090565b600067ffffffffffffffff8211156140a8576140a76145be565b5b602082029050919050565b600067ffffffffffffffff8211156140ce576140cd6145be565b5b602082029050919050565b600067ffffffffffffffff8211156140f4576140f36145be565b5b602082029050919050565b600067ffffffffffffffff82111561411a576141196145be565b5b614123826145ed565b9050602081019050919050565b6000819050919050565b6000819050919050565b6000819050919050565b6000819050919050565b6000819050919050565b60008190508160005260206000209050919050565b600060029050919050565b600060029050919050565b600060149050919050565b600060029050919050565b600060069050919050565b600081519050919050565b600081519050919050565b6000602082019050919050565b6000602082019050919050565b6000602082019050919050565b6000602082019050919050565b6000602082019050919050565b600081905092915050565b600081905092915050565b600081905092915050565b600081905092915050565b600081905092915050565b600081905092915050565b600081905092915050565b600082825260208201905092915050565b600082825260208201905092915050565b600081905092915050565b600061428a826143fe565b9150614295836143fe565b9250827fffffffffffffffffffffffffffffffffffffffffffffffffffffffffffffffff038211156142ca576142c9614531565b5b828201905092915050565b60006142e0826143fe565b91506142eb836143fe565b9250826142fb576142fa614560565b5b828204905092915050565b6000614311826143fe565b915061431c836143fe565b9250817fffffffffffffffffffffffffffffffffffffffffffffffffffffffffffffffff048311821515161561435557614354614531565b5b828202905092915050565b600061436b826143fe565b9150614376836143fe565b92508282101561438957614388614531565b5b828203905092915050565b600061439f826143de565b9050919050565b60008115159050919050565b60007fffffffff0000000000000000000000000000000000000000000000000000000082169050919050565b600073ffffffffffffffffffffffffffffffffffffffff82169050919050565b6000819050919050565b82818337600083830152505050565b60005b8381101561443557808201518184015260208101905061441a565b83811115614444576000848401525b50505050565b6000600282049050600182168061446257607f821691505b602082108114156144765761447561458f565b5b50919050565b614485826145ed565b810181811067ffffffffffffffff821117156144a4576144a36145be565b5b80604052505050565b60006144b8826143fe565b91507fffffffffffffffffffffffffffffffffffffffffffffffffffffffffffffffff8214156144eb576144ea614531565b5b600182019050919050565b6000819050919050565b600061450b826143fe565b9150614516836143fe565b92508261452657614525614560565b5b828206905092915050565b7f4e487b7100000000000000000000000000000000000000000000000000000000600052601160045260246000fd5b7f4e487b7100000000000000000000000000000000000000000000000000000000600052601260045260246000fd5b7f4e487b7100000000000000000000000000000000000000000000000000000000600052602260045260246000fd5b7f4e487b7100000000000000000000000000000000000000000000000000000000600052604160045260246000fd5b6000601f19601f8301169050919050565b7f4552433732313a207472616e7366657220746f206e6f6e20455243373231526560008201527f63656976657220696d706c656d656e7465720000000000000000000000000000602082015250565b7f4572726f723a2053756a696b6f363220616c7265616479206578697374000000600082015250565b7f4552433732313a207472616e736665722066726f6d20696e636f72726563742060008201527f6f776e6572000000000000000000000000000000000000000000000000000000602082015250565b7f4552433732313a20746f6b656e20616c7265616479206d696e74656400000000600082015250565b7f5468616e6b7320666f722074686520636f6e747269627574696f6e2100000000600082015250565b7f4552433732313a207472616e7366657220746f20746865207a65726f2061646460008201527f7265737300000000000000000000000000000000000000000000000000000000602082015250565b7f4552433732313a20617070726f766520746f2063616c6c657200000000000000600082015250565b7f222c20226465736372697074696f6e223a202254686973204e4654206365727460008201527f6966696573207468617420796f75206861766520636f6e74726962757465642060208201527f7769746820796f7572206f776e2053756a696b6f222c2022696d616765223a2060408201527f22646174613a696d6167652f7376672b786d6c3b6261736536342c0000000000606082015250565b7f4552433732313a206f70657261746f7220717565727920666f72206e6f6e657860008201527f697374656e7420746f6b656e0000000000000000000000000000000000000000602082015250565b7f4572726f723a2052656163686564206c696d6974206f662073756a696b6f7300600082015250565b7f4552433732313a20617070726f76652063616c6c6572206973206e6f74206f7760008201527f6e6572206e6f7220617070726f76656420666f7220616c6c0000000000000000602082015250565b7f4572726f723a20496e76616c69642073756a696b6f7320696e64657800000000600082015250565b7f4552433732313a2062616c616e636520717565727920666f7220746865207a6560008201527f726f206164647265737300000000000000000000000000000000000000000000602082015250565b7f4552433732313a206f776e657220717565727920666f72206e6f6e657869737460008201527f656e7420746f6b656e0000000000000000000000000000000000000000000000602082015250565b7f45524337323155524953746f726167653a2055524920736574206f66206e6f6e60008201527f6578697374656e7420746f6b656e000000000000000000000000000000000000602082015250565b7f227d000000000000000000000000000000000000000000000000000000000000600082015250565b7f4552433732313a206d696e7420746f20746865207a65726f2061646472657373600082015250565b7f45524337323155524953746f726167653a2055524920717565727920666f722060008201527f6e6f6e6578697374656e7420746f6b656e000000000000000000000000000000602082015250565b7f4552433732313a20617070726f76656420717565727920666f72206e6f6e657860008201527f697374656e7420746f6b656e0000000000000000000000000000000000000000602082015250565b7f4552433732314d657461646174613a2055524920717565727920666f72206e6f60008201527f6e6578697374656e7420746f6b656e0000000000000000000000000000000000602082015250565b7f7b226e616d65223a202200000000000000000000000000000000000000000000600082015250565b7f4552433732313a20617070726f76616c20746f2063757272656e74206f776e6560008201527f7200000000000000000000000000000000000000000000000000000000000000602082015250565b7f646174613a6170706c69636174696f6e2f6a736f6e3b6261736536342c000000600082015250565b7f53756a696b6f20436f6e747269627569746f7200000000000000000000000000600082015250565b7f4552433732313a207472616e736665722063616c6c6572206973206e6f74206f60008201527f776e6572206e6f7220617070726f766564000000000000000000000000000000602082015250565b7f4572726f7220696e207665726966792070726f6f660000000000000000000000600082015250565b7f4572726f723a20556e6b6e6f776e2053756a696b6f3632000000000000000000600082015250565b614cba81614394565b8114614cc557600080fd5b50565b614cd1816143a6565b8114614cdc57600080fd5b50565b614ce8816143b2565b8114614cf357600080fd5b50565b614cff816143fe565b8114614d0a57600080fd5b5056fe416e204e465420772f20494420257320686173206265656e206d696e74656420746f2025734142434445464748494a4b4c4d4e4f505152535455565758595a6162636465666768696a6b6c6d6e6f707172737475767778797a303132333435363738392b2fa26469706673582212205f0c471d2af3d35193580baf812dca89e7d60d0544d65f1d13f7efa5092e1cbb64736f6c634300080400333c7376672077696474683d2234303022206865696768743d22343030222076696577426f783d2230203020343030203430302220786d6c6e733d22687474703a2f2f7777772e77332e6f72672f323030302f737667223e3c726563742077696474683d223130302522206865696768743d2231303025222f3e3c7465787420783d223530252220793d223530252220646f6d696e616e742d626173656c696e653d226d6964646c652220746578742d616e63686f723d226d6964646c6522207374796c653d2266696c6c3a236666663b666f6e742d66616d696c793a73616e733b666f6e742d73697a653a33307078223e",
  "linkReferences": {},
  "deployedLinkReferences": {}
}